{
	"data": {
		"bytecode": {
			"linkReferences": {},
			"object": "6080604052600a6000556014600155601e60025534801561001f57600080fd5b506102148061002f6000396000f3fe608060405234801561001057600080fd5b50600436106100885760003560e01c8063473e50dd1161005b578063473e50dd146100f1578063b1f0c43f1461010f578063cc2a78791461012d578063cf9f23b51461013757610088565b8063067f5b441461008d5780630adb32fe146100ab5780631aa35610146100b557806326fc80db146100d3575b600080fd5b610095610155565b6040516100a291906101c3565b60405180910390f35b6100b361015f565b005b6100bd61016a565b6040516100ca91906101c3565b60405180910390f35b6100db610170565b6040516100e891906101c3565b60405180910390f35b6100f961017a565b60405161010691906101c3565b60405180910390f35b610117610183565b60405161012491906101c3565b60405180910390f35b61013561018d565b005b61013f610198565b60405161014c91906101c3565b60405180910390f35b6000600154905090565b6101676101a1565b50565b60005481565b6000600254905090565b60008054905090565b6000600254905090565b6101956101a1565b50565b60006028905090565b6000601e905090565b6000819050919050565b6101bd816101aa565b82525050565b60006020820190506101d860008301846101b4565b9291505056fea26469706673582212206a311cb9f73bb70256341c6fb4a739c33f3585c308f159513813fa594d1cbf0864736f6c63430008120033",
			"opcodes": "PUSH1 0x80 PUSH1 0x40 MSTORE PUSH1 0xA PUSH1 0x0 SSTORE PUSH1 0x14 PUSH1 0x1 SSTORE PUSH1 0x1E PUSH1 0x2 SSTORE CALLVALUE DUP1 ISZERO PUSH2 0x1F JUMPI PUSH1 0x0 DUP1 REVERT JUMPDEST POP PUSH2 0x214 DUP1 PUSH2 0x2F PUSH1 0x0 CODECOPY PUSH1 0x0 RETURN INVALID PUSH1 0x80 PUSH1 0x40 MSTORE CALLVALUE DUP1 ISZERO PUSH2 0x10 JUMPI PUSH1 0x0 DUP1 REVERT JUMPDEST POP PUSH1 0x4 CALLDATASIZE LT PUSH2 0x88 JUMPI PUSH1 0x0 CALLDATALOAD PUSH1 0xE0 SHR DUP1 PUSH4 0x473E50DD GT PUSH2 0x5B JUMPI DUP1 PUSH4 0x473E50DD EQ PUSH2 0xF1 JUMPI DUP1 PUSH4 0xB1F0C43F EQ PUSH2 0x10F JUMPI DUP1 PUSH4 0xCC2A7879 EQ PUSH2 0x12D JUMPI DUP1 PUSH4 0xCF9F23B5 EQ PUSH2 0x137 JUMPI PUSH2 0x88 JUMP JUMPDEST DUP1 PUSH4 0x67F5B44 EQ PUSH2 0x8D JUMPI DUP1 PUSH4 0xADB32FE EQ PUSH2 0xAB JUMPI DUP1 PUSH4 0x1AA35610 EQ PUSH2 0xB5 JUMPI DUP1 PUSH4 0x26FC80DB EQ PUSH2 0xD3 JUMPI JUMPDEST PUSH1 0x0 DUP1 REVERT JUMPDEST PUSH2 0x95 PUSH2 0x155 JUMP JUMPDEST PUSH1 0x40 MLOAD PUSH2 0xA2 SWAP2 SWAP1 PUSH2 0x1C3 JUMP JUMPDEST PUSH1 0x40 MLOAD DUP1 SWAP2 SUB SWAP1 RETURN JUMPDEST PUSH2 0xB3 PUSH2 0x15F JUMP JUMPDEST STOP JUMPDEST PUSH2 0xBD PUSH2 0x16A JUMP JUMPDEST PUSH1 0x40 MLOAD PUSH2 0xCA SWAP2 SWAP1 PUSH2 0x1C3 JUMP JUMPDEST PUSH1 0x40 MLOAD DUP1 SWAP2 SUB SWAP1 RETURN JUMPDEST PUSH2 0xDB PUSH2 0x170 JUMP JUMPDEST PUSH1 0x40 MLOAD PUSH2 0xE8 SWAP2 SWAP1 PUSH2 0x1C3 JUMP JUMPDEST PUSH1 0x40 MLOAD DUP1 SWAP2 SUB SWAP1 RETURN JUMPDEST PUSH2 0xF9 PUSH2 0x17A JUMP JUMPDEST PUSH1 0x40 MLOAD PUSH2 0x106 SWAP2 SWAP1 PUSH2 0x1C3 JUMP JUMPDEST PUSH1 0x40 MLOAD DUP1 SWAP2 SUB SWAP1 RETURN JUMPDEST PUSH2 0x117 PUSH2 0x183 JUMP JUMPDEST PUSH1 0x40 MLOAD PUSH2 0x124 SWAP2 SWAP1 PUSH2 0x1C3 JUMP JUMPDEST PUSH1 0x40 MLOAD DUP1 SWAP2 SUB SWAP1 RETURN JUMPDEST PUSH2 0x135 PUSH2 0x18D JUMP JUMPDEST STOP JUMPDEST PUSH2 0x13F PUSH2 0x198 JUMP JUMPDEST PUSH1 0x40 MLOAD PUSH2 0x14C SWAP2 SWAP1 PUSH2 0x1C3 JUMP JUMPDEST PUSH1 0x40 MLOAD DUP1 SWAP2 SUB SWAP1 RETURN JUMPDEST PUSH1 0x0 PUSH1 0x1 SLOAD SWAP1 POP SWAP1 JUMP JUMPDEST PUSH2 0x167 PUSH2 0x1A1 JUMP JUMPDEST POP JUMP JUMPDEST PUSH1 0x0 SLOAD DUP2 JUMP JUMPDEST PUSH1 0x0 PUSH1 0x2 SLOAD SWAP1 POP SWAP1 JUMP JUMPDEST PUSH1 0x0 DUP1 SLOAD SWAP1 POP SWAP1 JUMP JUMPDEST PUSH1 0x0 PUSH1 0x2 SLOAD SWAP1 POP SWAP1 JUMP JUMPDEST PUSH2 0x195 PUSH2 0x1A1 JUMP JUMPDEST POP JUMP JUMPDEST PUSH1 0x0 PUSH1 0x28 SWAP1 POP SWAP1 JUMP JUMPDEST PUSH1 0x0 PUSH1 0x1E SWAP1 POP SWAP1 JUMP JUMPDEST PUSH1 0x0 DUP2 SWAP1 POP SWAP2 SWAP1 POP JUMP JUMPDEST PUSH2 0x1BD DUP2 PUSH2 0x1AA JUMP JUMPDEST DUP3 MSTORE POP POP JUMP JUMPDEST PUSH1 0x0 PUSH1 0x20 DUP3 ADD SWAP1 POP PUSH2 0x1D8 PUSH1 0x0 DUP4 ADD DUP5 PUSH2 0x1B4 JUMP JUMPDEST SWAP3 SWAP2 POP POP JUMP INVALID LOG2 PUSH5 0x6970667358 0x22 SLT KECCAK256 PUSH11 0x311CB9F73BB70256341C6F 0xB4 0xA7 CODECOPY 0xC3 EXTCODEHASH CALLDATALOAD DUP6 0xC3 ADDMOD CALL MSIZE MLOAD CODESIZE SGT STATICCALL MSIZE 0x4D SHR 0xBF ADDMOD PUSH5 0x736F6C6343 STOP ADDMOD SLT STOP CALLER "
		},
		"gasEstimates": {
			"creation": {
				"codeDepositCost": "106400",
				"executionCost": "66471",
				"totalCost": "172871"
			},
			"external": {
				"ext()": "403",
				"funcretext()": "207",
				"funcretint()": "228",
				"getintvar()": "2459",
				"getprivar()": "2438",
				"getpubvar()": "2437",
				"retint()": "2504",
				"u1()": "2474"
			}
		},
		"methodIdentifiers": {
			"ext()": "cf9f23b5",
			"funcretext()": "0adb32fe",
			"funcretint()": "cc2a7879",
			"getintvar()": "b1f0c43f",
			"getprivar()": "067f5b44",
			"getpubvar()": "473e50dd",
			"retint()": "26fc80db",
			"u1()": "1aa35610"
		}
	},
	"abi": [
		{
			"inputs": [],
			"name": "ext",
			"outputs": [
				{
					"internalType": "uint256",
					"name": "",
					"type": "uint256"
				}
			],
			"stateMutability": "pure",
			"type": "function"
		},
		{
			"inputs": [],
			"name": "funcretext",
			"outputs": [],
			"stateMutability": "pure",
			"type": "function"
		},
		{
			"inputs": [],
			"name": "funcretint",
			"outputs": [],
			"stateMutability": "pure",
			"type": "function"
		},
		{
			"inputs": [],
			"name": "getintvar",
			"outputs": [
				{
					"internalType": "uint256",
					"name": "",
					"type": "uint256"
				}
			],
			"stateMutability": "view",
			"type": "function"
		},
		{
			"inputs": [],
			"name": "getprivar",
			"outputs": [
				{
					"internalType": "uint256",
					"name": "",
					"type": "uint256"
				}
			],
			"stateMutability": "view",
			"type": "function"
		},
		{
			"inputs": [],
			"name": "getpubvar",
			"outputs": [
				{
					"internalType": "uint256",
					"name": "",
					"type": "uint256"
				}
			],
			"stateMutability": "view",
			"type": "function"
		},
		{
			"inputs": [],
			"name": "retint",
			"outputs": [
				{
					"internalType": "uint256",
					"name": "",
					"type": "uint256"
				}
			],
			"stateMutability": "view",
			"type": "function"
		},
		{
			"inputs": [],
			"name": "u1",
			"outputs": [
				{
					"internalType": "uint256",
					"name": "",
					"type": "uint256"
				}
			],
			"stateMutability": "view",
			"type": "function"
		}
	]
}