{
	"data": {
		"bytecode": {
			"linkReferences": {},
			"object": "608060405234801561001057600080fd5b50610346806100206000396000f3fe608060405234801561001057600080fd5b50600436106100365760003560e01c80638b04dac51461003b578063b36cfc2d14610045575b600080fd5b61004361004f565b005b61004d610059565b005b610057610063565b565b6100616100a2565b565b7fcf34ef537ac33ee1ac626ca1587a0a7e8e51561e5514f8cb36afa1c5102b3bab604051610090906101ac565b60405180910390a16100a06100e1565b565b7fcf34ef537ac33ee1ac626ca1587a0a7e8e51561e5514f8cb36afa1c5102b3bab6040516100cf90610218565b60405180910390a16100df610118565b565b7fcf34ef537ac33ee1ac626ca1587a0a7e8e51561e5514f8cb36afa1c5102b3bab60405161010e90610284565b60405180910390a1565b7f8027e590ec1c63d7b17c9cd0ec5b0d81caa3ea72e365d73f48d84dbd42abc529604051610145906102f0565b60405180910390a1565b600082825260208201905092915050565b7f432e456d69742063616c6c656400000000000000000000000000000000000000600082015250565b6000610196600d8361014f565b91506101a182610160565b602082019050919050565b600060208201905081810360008301526101c581610189565b9050919050565b7f432e456d6974322063616c6c6564000000000000000000000000000000000000600082015250565b6000610202600e8361014f565b915061020d826101cc565b602082019050919050565b60006020820190508181036000830152610231816101f5565b9050919050565b7f412e456d69742063616c6c656400000000000000000000000000000000000000600082015250565b600061026e600d8361014f565b915061027982610238565b602082019050919050565b6000602082019050818103600083015261029d81610261565b9050919050565b7f452e456d69742063616c6c656400000000000000000000000000000000000000600082015250565b60006102da600d8361014f565b91506102e5826102a4565b602082019050919050565b60006020820190508181036000830152610309816102cd565b905091905056fea264697066735822122035c9b84edad672f374ce6a8dbe47d5850fb57d7826300184870b2ee279d4fb7064736f6c63430008120033",
			"opcodes": "PUSH1 0x80 PUSH1 0x40 MSTORE CALLVALUE DUP1 ISZERO PUSH2 0x10 JUMPI PUSH1 0x0 DUP1 REVERT JUMPDEST POP PUSH2 0x346 DUP1 PUSH2 0x20 PUSH1 0x0 CODECOPY PUSH1 0x0 RETURN INVALID PUSH1 0x80 PUSH1 0x40 MSTORE CALLVALUE DUP1 ISZERO PUSH2 0x10 JUMPI PUSH1 0x0 DUP1 REVERT JUMPDEST POP PUSH1 0x4 CALLDATASIZE LT PUSH2 0x36 JUMPI PUSH1 0x0 CALLDATALOAD PUSH1 0xE0 SHR DUP1 PUSH4 0x8B04DAC5 EQ PUSH2 0x3B JUMPI DUP1 PUSH4 0xB36CFC2D EQ PUSH2 0x45 JUMPI JUMPDEST PUSH1 0x0 DUP1 REVERT JUMPDEST PUSH2 0x43 PUSH2 0x4F JUMP JUMPDEST STOP JUMPDEST PUSH2 0x4D PUSH2 0x59 JUMP JUMPDEST STOP JUMPDEST PUSH2 0x57 PUSH2 0x63 JUMP JUMPDEST JUMP JUMPDEST PUSH2 0x61 PUSH2 0xA2 JUMP JUMPDEST JUMP JUMPDEST PUSH32 0xCF34EF537AC33EE1AC626CA1587A0A7E8E51561E5514F8CB36AFA1C5102B3BAB PUSH1 0x40 MLOAD PUSH2 0x90 SWAP1 PUSH2 0x1AC JUMP JUMPDEST PUSH1 0x40 MLOAD DUP1 SWAP2 SUB SWAP1 LOG1 PUSH2 0xA0 PUSH2 0xE1 JUMP JUMPDEST JUMP JUMPDEST PUSH32 0xCF34EF537AC33EE1AC626CA1587A0A7E8E51561E5514F8CB36AFA1C5102B3BAB PUSH1 0x40 MLOAD PUSH2 0xCF SWAP1 PUSH2 0x218 JUMP JUMPDEST PUSH1 0x40 MLOAD DUP1 SWAP2 SUB SWAP1 LOG1 PUSH2 0xDF PUSH2 0x118 JUMP JUMPDEST JUMP JUMPDEST PUSH32 0xCF34EF537AC33EE1AC626CA1587A0A7E8E51561E5514F8CB36AFA1C5102B3BAB PUSH1 0x40 MLOAD PUSH2 0x10E SWAP1 PUSH2 0x284 JUMP JUMPDEST PUSH1 0x40 MLOAD DUP1 SWAP2 SUB SWAP1 LOG1 JUMP JUMPDEST PUSH32 0x8027E590EC1C63D7B17C9CD0EC5B0D81CAA3EA72E365D73F48D84DBD42ABC529 PUSH1 0x40 MLOAD PUSH2 0x145 SWAP1 PUSH2 0x2F0 JUMP JUMPDEST PUSH1 0x40 MLOAD DUP1 SWAP2 SUB SWAP1 LOG1 JUMP JUMPDEST PUSH1 0x0 DUP3 DUP3 MSTORE PUSH1 0x20 DUP3 ADD SWAP1 POP SWAP3 SWAP2 POP POP JUMP JUMPDEST PUSH32 0x432E456D69742063616C6C656400000000000000000000000000000000000000 PUSH1 0x0 DUP3 ADD MSTORE POP JUMP JUMPDEST PUSH1 0x0 PUSH2 0x196 PUSH1 0xD DUP4 PUSH2 0x14F JUMP JUMPDEST SWAP2 POP PUSH2 0x1A1 DUP3 PUSH2 0x160 JUMP JUMPDEST PUSH1 0x20 DUP3 ADD SWAP1 POP SWAP2 SWAP1 POP JUMP JUMPDEST PUSH1 0x0 PUSH1 0x20 DUP3 ADD SWAP1 POP DUP2 DUP2 SUB PUSH1 0x0 DUP4 ADD MSTORE PUSH2 0x1C5 DUP2 PUSH2 0x189 JUMP JUMPDEST SWAP1 POP SWAP2 SWAP1 POP JUMP JUMPDEST PUSH32 0x432E456D6974322063616C6C6564000000000000000000000000000000000000 PUSH1 0x0 DUP3 ADD MSTORE POP JUMP JUMPDEST PUSH1 0x0 PUSH2 0x202 PUSH1 0xE DUP4 PUSH2 0x14F JUMP JUMPDEST SWAP2 POP PUSH2 0x20D DUP3 PUSH2 0x1CC JUMP JUMPDEST PUSH1 0x20 DUP3 ADD SWAP1 POP SWAP2 SWAP1 POP JUMP JUMPDEST PUSH1 0x0 PUSH1 0x20 DUP3 ADD SWAP1 POP DUP2 DUP2 SUB PUSH1 0x0 DUP4 ADD MSTORE PUSH2 0x231 DUP2 PUSH2 0x1F5 JUMP JUMPDEST SWAP1 POP SWAP2 SWAP1 POP JUMP JUMPDEST PUSH32 0x412E456D69742063616C6C656400000000000000000000000000000000000000 PUSH1 0x0 DUP3 ADD MSTORE POP JUMP JUMPDEST PUSH1 0x0 PUSH2 0x26E PUSH1 0xD DUP4 PUSH2 0x14F JUMP JUMPDEST SWAP2 POP PUSH2 0x279 DUP3 PUSH2 0x238 JUMP JUMPDEST PUSH1 0x20 DUP3 ADD SWAP1 POP SWAP2 SWAP1 POP JUMP JUMPDEST PUSH1 0x0 PUSH1 0x20 DUP3 ADD SWAP1 POP DUP2 DUP2 SUB PUSH1 0x0 DUP4 ADD MSTORE PUSH2 0x29D DUP2 PUSH2 0x261 JUMP JUMPDEST SWAP1 POP SWAP2 SWAP1 POP JUMP JUMPDEST PUSH32 0x452E456D69742063616C6C656400000000000000000000000000000000000000 PUSH1 0x0 DUP3 ADD MSTORE POP JUMP JUMPDEST PUSH1 0x0 PUSH2 0x2DA PUSH1 0xD DUP4 PUSH2 0x14F JUMP JUMPDEST SWAP2 POP PUSH2 0x2E5 DUP3 PUSH2 0x2A4 JUMP JUMPDEST PUSH1 0x20 DUP3 ADD SWAP1 POP SWAP2 SWAP1 POP JUMP JUMPDEST PUSH1 0x0 PUSH1 0x20 DUP3 ADD SWAP1 POP DUP2 DUP2 SUB PUSH1 0x0 DUP4 ADD MSTORE PUSH2 0x309 DUP2 PUSH2 0x2CD JUMP JUMPDEST SWAP1 POP SWAP2 SWAP1 POP JUMP INVALID LOG2 PUSH5 0x6970667358 0x22 SLT KECCAK256 CALLDATALOAD 0xC9 0xB8 0x4E 0xDA 0xD6 PUSH19 0xF374CE6A8DBE47D5850FB57D7826300184870B 0x2E 0xE2 PUSH26 0xD4FB7064736F6C63430008120033000000000000000000000000 "
		},
		"gasEstimates": {
			"creation": {
				"codeDepositCost": "167600",
				"executionCost": "214",
				"totalCost": "167814"
			},
			"external": {
				"Emit()": "infinite",
				"Emit2()": "infinite"
			}
		},
		"methodIdentifiers": {
			"Emit()": "8b04dac5",
			"Emit2()": "b36cfc2d"
		}
	},
	"abi": [
		{
			"anonymous": false,
			"inputs": [
				{
					"indexed": false,
					"internalType": "string",
					"name": "s1",
					"type": "string"
				}
			],
			"name": "Log",
			"type": "event"
		},
		{
			"anonymous": false,
			"inputs": [
				{
					"indexed": false,
					"internalType": "string",
					"name": "s1",
					"type": "string"
				}
			],
			"name": "LogE",
			"type": "event"
		},
		{
			"inputs": [],
			"name": "Emit",
			"outputs": [],
			"stateMutability": "nonpayable",
			"type": "function"
		},
		{
			"inputs": [],
			"name": "Emit2",
			"outputs": [],
			"stateMutability": "nonpayable",
			"type": "function"
		}
	]
}