{
	"data": {
		"bytecode": {
			"linkReferences": {},
			"object": "608060405234801561001057600080fd5b50610563806100206000396000f3fe608060405234801561001057600080fd5b50600436106100625760003560e01c80630d28dd8514610067578063200d2ed214610071578063552670ff1461008f5780636059543314610099578063a2c2d666146100a3578063ce251a30146100c1575b600080fd5b61006f6100cb565b005b6100796100de565b6040516100869190610445565b60405180910390f35b610097610260565b005b6100a16102d8565b005b6100ab61033e565b6040516100b891906104de565b60405180910390f35b6100c961034f565b005b6000806101000a81549060ff0219169055565b6060600260038111156100f4576100f3610467565b5b60008054906101000a900460ff16600381111561011457610113610467565b5b03610156576040518060400160405280600f81526020017f596f752068617665204661696c65640000000000000000000000000000000000815250905061025d565b6001600381111561016a57610169610467565b5b60008054906101000a900460ff16600381111561018a57610189610467565b5b036101cc576040518060400160405280600f81526020017f596f752068617665207061737365640000000000000000000000000000000000815250905061025d565b6003808111156101df576101de610467565b5b60008054906101000a900460ff1660038111156101ff576101fe610467565b5b03610224576040518060600160405280603481526020016104fa60349139905061025d565b6040518060400160405280601781526020017f436865636b696e6720697320696e2070726f677265737300000000000000000081525090505b90565b6000600381111561027457610273610467565b5b60008054906101000a900460ff16600381111561029457610293610467565b5b036102d657600260038111156102ad576102ac610467565b5b6000806101000a81548160ff021916908360038111156102d0576102cf610467565b5b02179055505b565b600060038111156102ec576102eb610467565b5b60008054906101000a900460ff16600381111561030c5761030b610467565b5b0361033c5760016000806101000a81548160ff0219169083600381111561033657610335610467565b5b02179055505b565b60008054906101000a900460ff1681565b6001600381111561036357610362610467565b5b60008054906101000a900460ff16600381111561038357610382610467565b5b036103b35760036000806101000a81548160ff021916908360038111156103ad576103ac610467565b5b02179055505b565b600081519050919050565b600082825260208201905092915050565b60005b838110156103ef5780820151818401526020810190506103d4565b60008484015250505050565b6000601f19601f8301169050919050565b6000610417826103b5565b61042181856103c0565b93506104318185602086016103d1565b61043a816103fb565b840191505092915050565b6000602082019050818103600083015261045f818461040c565b905092915050565b7f4e487b7100000000000000000000000000000000000000000000000000000000600052602160045260246000fd5b600481106104a7576104a6610467565b5b50565b60008190506104b882610496565b919050565b60006104c8826104aa565b9050919050565b6104d8816104bd565b82525050565b60006020820190506104f360008301846104cf565b9291505056fe436f6e67726167756c6174696f6e732120596f752068617665206265656e20617761726465642061207363686f6c617273686970a2646970667358221220804cff9d3962edd4f40d50c99aae50c8a759ef0f86a5e560d8fb10d7d688b28b64736f6c63430008120033",
			"opcodes": "PUSH1 0x80 PUSH1 0x40 MSTORE CALLVALUE DUP1 ISZERO PUSH2 0x10 JUMPI PUSH1 0x0 DUP1 REVERT JUMPDEST POP PUSH2 0x563 DUP1 PUSH2 0x20 PUSH1 0x0 CODECOPY PUSH1 0x0 RETURN INVALID PUSH1 0x80 PUSH1 0x40 MSTORE CALLVALUE DUP1 ISZERO PUSH2 0x10 JUMPI PUSH1 0x0 DUP1 REVERT JUMPDEST POP PUSH1 0x4 CALLDATASIZE LT PUSH2 0x62 JUMPI PUSH1 0x0 CALLDATALOAD PUSH1 0xE0 SHR DUP1 PUSH4 0xD28DD85 EQ PUSH2 0x67 JUMPI DUP1 PUSH4 0x200D2ED2 EQ PUSH2 0x71 JUMPI DUP1 PUSH4 0x552670FF EQ PUSH2 0x8F JUMPI DUP1 PUSH4 0x60595433 EQ PUSH2 0x99 JUMPI DUP1 PUSH4 0xA2C2D666 EQ PUSH2 0xA3 JUMPI DUP1 PUSH4 0xCE251A30 EQ PUSH2 0xC1 JUMPI JUMPDEST PUSH1 0x0 DUP1 REVERT JUMPDEST PUSH2 0x6F PUSH2 0xCB JUMP JUMPDEST STOP JUMPDEST PUSH2 0x79 PUSH2 0xDE JUMP JUMPDEST PUSH1 0x40 MLOAD PUSH2 0x86 SWAP2 SWAP1 PUSH2 0x445 JUMP JUMPDEST PUSH1 0x40 MLOAD DUP1 SWAP2 SUB SWAP1 RETURN JUMPDEST PUSH2 0x97 PUSH2 0x260 JUMP JUMPDEST STOP JUMPDEST PUSH2 0xA1 PUSH2 0x2D8 JUMP JUMPDEST STOP JUMPDEST PUSH2 0xAB PUSH2 0x33E JUMP JUMPDEST PUSH1 0x40 MLOAD PUSH2 0xB8 SWAP2 SWAP1 PUSH2 0x4DE JUMP JUMPDEST PUSH1 0x40 MLOAD DUP1 SWAP2 SUB SWAP1 RETURN JUMPDEST PUSH2 0xC9 PUSH2 0x34F JUMP JUMPDEST STOP JUMPDEST PUSH1 0x0 DUP1 PUSH2 0x100 EXP DUP2 SLOAD SWAP1 PUSH1 0xFF MUL NOT AND SWAP1 SSTORE JUMP JUMPDEST PUSH1 0x60 PUSH1 0x2 PUSH1 0x3 DUP2 GT ISZERO PUSH2 0xF4 JUMPI PUSH2 0xF3 PUSH2 0x467 JUMP JUMPDEST JUMPDEST PUSH1 0x0 DUP1 SLOAD SWAP1 PUSH2 0x100 EXP SWAP1 DIV PUSH1 0xFF AND PUSH1 0x3 DUP2 GT ISZERO PUSH2 0x114 JUMPI PUSH2 0x113 PUSH2 0x467 JUMP JUMPDEST JUMPDEST SUB PUSH2 0x156 JUMPI PUSH1 0x40 MLOAD DUP1 PUSH1 0x40 ADD PUSH1 0x40 MSTORE DUP1 PUSH1 0xF DUP2 MSTORE PUSH1 0x20 ADD PUSH32 0x596F752068617665204661696C65640000000000000000000000000000000000 DUP2 MSTORE POP SWAP1 POP PUSH2 0x25D JUMP JUMPDEST PUSH1 0x1 PUSH1 0x3 DUP2 GT ISZERO PUSH2 0x16A JUMPI PUSH2 0x169 PUSH2 0x467 JUMP JUMPDEST JUMPDEST PUSH1 0x0 DUP1 SLOAD SWAP1 PUSH2 0x100 EXP SWAP1 DIV PUSH1 0xFF AND PUSH1 0x3 DUP2 GT ISZERO PUSH2 0x18A JUMPI PUSH2 0x189 PUSH2 0x467 JUMP JUMPDEST JUMPDEST SUB PUSH2 0x1CC JUMPI PUSH1 0x40 MLOAD DUP1 PUSH1 0x40 ADD PUSH1 0x40 MSTORE DUP1 PUSH1 0xF DUP2 MSTORE PUSH1 0x20 ADD PUSH32 0x596F752068617665207061737365640000000000000000000000000000000000 DUP2 MSTORE POP SWAP1 POP PUSH2 0x25D JUMP JUMPDEST PUSH1 0x3 DUP1 DUP2 GT ISZERO PUSH2 0x1DF JUMPI PUSH2 0x1DE PUSH2 0x467 JUMP JUMPDEST JUMPDEST PUSH1 0x0 DUP1 SLOAD SWAP1 PUSH2 0x100 EXP SWAP1 DIV PUSH1 0xFF AND PUSH1 0x3 DUP2 GT ISZERO PUSH2 0x1FF JUMPI PUSH2 0x1FE PUSH2 0x467 JUMP JUMPDEST JUMPDEST SUB PUSH2 0x224 JUMPI PUSH1 0x40 MLOAD DUP1 PUSH1 0x60 ADD PUSH1 0x40 MSTORE DUP1 PUSH1 0x34 DUP2 MSTORE PUSH1 0x20 ADD PUSH2 0x4FA PUSH1 0x34 SWAP2 CODECOPY SWAP1 POP PUSH2 0x25D JUMP JUMPDEST PUSH1 0x40 MLOAD DUP1 PUSH1 0x40 ADD PUSH1 0x40 MSTORE DUP1 PUSH1 0x17 DUP2 MSTORE PUSH1 0x20 ADD PUSH32 0x436865636B696E6720697320696E2070726F6772657373000000000000000000 DUP2 MSTORE POP SWAP1 POP JUMPDEST SWAP1 JUMP JUMPDEST PUSH1 0x0 PUSH1 0x3 DUP2 GT ISZERO PUSH2 0x274 JUMPI PUSH2 0x273 PUSH2 0x467 JUMP JUMPDEST JUMPDEST PUSH1 0x0 DUP1 SLOAD SWAP1 PUSH2 0x100 EXP SWAP1 DIV PUSH1 0xFF AND PUSH1 0x3 DUP2 GT ISZERO PUSH2 0x294 JUMPI PUSH2 0x293 PUSH2 0x467 JUMP JUMPDEST JUMPDEST SUB PUSH2 0x2D6 JUMPI PUSH1 0x2 PUSH1 0x3 DUP2 GT ISZERO PUSH2 0x2AD JUMPI PUSH2 0x2AC PUSH2 0x467 JUMP JUMPDEST JUMPDEST PUSH1 0x0 DUP1 PUSH2 0x100 EXP DUP2 SLOAD DUP2 PUSH1 0xFF MUL NOT AND SWAP1 DUP4 PUSH1 0x3 DUP2 GT ISZERO PUSH2 0x2D0 JUMPI PUSH2 0x2CF PUSH2 0x467 JUMP JUMPDEST JUMPDEST MUL OR SWAP1 SSTORE POP JUMPDEST JUMP JUMPDEST PUSH1 0x0 PUSH1 0x3 DUP2 GT ISZERO PUSH2 0x2EC JUMPI PUSH2 0x2EB PUSH2 0x467 JUMP JUMPDEST JUMPDEST PUSH1 0x0 DUP1 SLOAD SWAP1 PUSH2 0x100 EXP SWAP1 DIV PUSH1 0xFF AND PUSH1 0x3 DUP2 GT ISZERO PUSH2 0x30C JUMPI PUSH2 0x30B PUSH2 0x467 JUMP JUMPDEST JUMPDEST SUB PUSH2 0x33C JUMPI PUSH1 0x1 PUSH1 0x0 DUP1 PUSH2 0x100 EXP DUP2 SLOAD DUP2 PUSH1 0xFF MUL NOT AND SWAP1 DUP4 PUSH1 0x3 DUP2 GT ISZERO PUSH2 0x336 JUMPI PUSH2 0x335 PUSH2 0x467 JUMP JUMPDEST JUMPDEST MUL OR SWAP1 SSTORE POP JUMPDEST JUMP JUMPDEST PUSH1 0x0 DUP1 SLOAD SWAP1 PUSH2 0x100 EXP SWAP1 DIV PUSH1 0xFF AND DUP2 JUMP JUMPDEST PUSH1 0x1 PUSH1 0x3 DUP2 GT ISZERO PUSH2 0x363 JUMPI PUSH2 0x362 PUSH2 0x467 JUMP JUMPDEST JUMPDEST PUSH1 0x0 DUP1 SLOAD SWAP1 PUSH2 0x100 EXP SWAP1 DIV PUSH1 0xFF AND PUSH1 0x3 DUP2 GT ISZERO PUSH2 0x383 JUMPI PUSH2 0x382 PUSH2 0x467 JUMP JUMPDEST JUMPDEST SUB PUSH2 0x3B3 JUMPI PUSH1 0x3 PUSH1 0x0 DUP1 PUSH2 0x100 EXP DUP2 SLOAD DUP2 PUSH1 0xFF MUL NOT AND SWAP1 DUP4 PUSH1 0x3 DUP2 GT ISZERO PUSH2 0x3AD JUMPI PUSH2 0x3AC PUSH2 0x467 JUMP JUMPDEST JUMPDEST MUL OR SWAP1 SSTORE POP JUMPDEST JUMP JUMPDEST PUSH1 0x0 DUP2 MLOAD SWAP1 POP SWAP2 SWAP1 POP JUMP JUMPDEST PUSH1 0x0 DUP3 DUP3 MSTORE PUSH1 0x20 DUP3 ADD SWAP1 POP SWAP3 SWAP2 POP POP JUMP JUMPDEST PUSH1 0x0 JUMPDEST DUP4 DUP2 LT ISZERO PUSH2 0x3EF JUMPI DUP1 DUP3 ADD MLOAD DUP2 DUP5 ADD MSTORE PUSH1 0x20 DUP2 ADD SWAP1 POP PUSH2 0x3D4 JUMP JUMPDEST PUSH1 0x0 DUP5 DUP5 ADD MSTORE POP POP POP POP JUMP JUMPDEST PUSH1 0x0 PUSH1 0x1F NOT PUSH1 0x1F DUP4 ADD AND SWAP1 POP SWAP2 SWAP1 POP JUMP JUMPDEST PUSH1 0x0 PUSH2 0x417 DUP3 PUSH2 0x3B5 JUMP JUMPDEST PUSH2 0x421 DUP2 DUP6 PUSH2 0x3C0 JUMP JUMPDEST SWAP4 POP PUSH2 0x431 DUP2 DUP6 PUSH1 0x20 DUP7 ADD PUSH2 0x3D1 JUMP JUMPDEST PUSH2 0x43A DUP2 PUSH2 0x3FB JUMP JUMPDEST DUP5 ADD SWAP2 POP POP SWAP3 SWAP2 POP POP JUMP JUMPDEST PUSH1 0x0 PUSH1 0x20 DUP3 ADD SWAP1 POP DUP2 DUP2 SUB PUSH1 0x0 DUP4 ADD MSTORE PUSH2 0x45F DUP2 DUP5 PUSH2 0x40C JUMP JUMPDEST SWAP1 POP SWAP3 SWAP2 POP POP JUMP JUMPDEST PUSH32 0x4E487B7100000000000000000000000000000000000000000000000000000000 PUSH1 0x0 MSTORE PUSH1 0x21 PUSH1 0x4 MSTORE PUSH1 0x24 PUSH1 0x0 REVERT JUMPDEST PUSH1 0x4 DUP2 LT PUSH2 0x4A7 JUMPI PUSH2 0x4A6 PUSH2 0x467 JUMP JUMPDEST JUMPDEST POP JUMP JUMPDEST PUSH1 0x0 DUP2 SWAP1 POP PUSH2 0x4B8 DUP3 PUSH2 0x496 JUMP JUMPDEST SWAP2 SWAP1 POP JUMP JUMPDEST PUSH1 0x0 PUSH2 0x4C8 DUP3 PUSH2 0x4AA JUMP JUMPDEST SWAP1 POP SWAP2 SWAP1 POP JUMP JUMPDEST PUSH2 0x4D8 DUP2 PUSH2 0x4BD JUMP JUMPDEST DUP3 MSTORE POP POP JUMP JUMPDEST PUSH1 0x0 PUSH1 0x20 DUP3 ADD SWAP1 POP PUSH2 0x4F3 PUSH1 0x0 DUP4 ADD DUP5 PUSH2 0x4CF JUMP JUMPDEST SWAP3 SWAP2 POP POP JUMP INVALID NUMBER PUSH16 0x6E67726167756C6174696F6E73212059 PUSH16 0x752068617665206265656E2061776172 PUSH5 0x6564206120 PUSH20 0x63686F6C617273686970A2646970667358221220 DUP1 0x4C SELFDESTRUCT SWAP14 CODECOPY PUSH3 0xEDD4F4 0xD POP 0xC9 SWAP11 0xAE POP 0xC8 0xA7 MSIZE 0xEF 0xF DUP7 0xA5 0xE5 PUSH1 0xD8 0xFB LT 0xD7 0xD6 DUP9 0xB2 DUP12 PUSH5 0x736F6C6343 STOP ADDMOD SLT STOP CALLER "
		},
		"gasEstimates": {
			"creation": {
				"codeDepositCost": "275800",
				"executionCost": "318",
				"totalCost": "276118"
			},
			"external": {
				"Fail()": "26687",
				"Pass()": "26683",
				"ResetStatus()": "24364",
				"Scholarship()": "26727",
				"e1()": "2623",
				"status()": "infinite"
			}
		},
		"methodIdentifiers": {
			"Fail()": "552670ff",
			"Pass()": "60595433",
			"ResetStatus()": "0d28dd85",
			"Scholarship()": "ce251a30",
			"e1()": "a2c2d666",
			"status()": "200d2ed2"
		}
	},
	"abi": [
		{
			"inputs": [],
			"name": "Fail",
			"outputs": [],
			"stateMutability": "nonpayable",
			"type": "function"
		},
		{
			"inputs": [],
			"name": "Pass",
			"outputs": [],
			"stateMutability": "nonpayable",
			"type": "function"
		},
		{
			"inputs": [],
			"name": "ResetStatus",
			"outputs": [],
			"stateMutability": "nonpayable",
			"type": "function"
		},
		{
			"inputs": [],
			"name": "Scholarship",
			"outputs": [],
			"stateMutability": "nonpayable",
			"type": "function"
		},
		{
			"inputs": [],
			"name": "e1",
			"outputs": [
				{
					"internalType": "enum En_um.Exam",
					"name": "",
					"type": "uint8"
				}
			],
			"stateMutability": "view",
			"type": "function"
		},
		{
			"inputs": [],
			"name": "status",
			"outputs": [
				{
					"internalType": "string",
					"name": "",
					"type": "string"
				}
			],
			"stateMutability": "view",
			"type": "function"
		}
	]
}