{
	"data": {
		"bytecode": {
			"linkReferences": {},
			"object": "608060405234801561001057600080fd5b5061077f806100206000396000f3fe608060405234801561001057600080fd5b506004361061007d5760003560e01c806371e5ee5f1161005b57806371e5ee5f146100e3578063e02fba1814610113578063f2d61e2914610131578063f5887d2f146101515761007d565b80632fa334291461008257806345f907a8146100a257806366adb482146100c2575b600080fd5b61008a61016d565b604051610099939291906103c6565b60405180910390f35b6100aa6101b7565b6040516100b9939291906103c6565b60405180910390f35b6100ca610201565b6040516100da9493929190610404565b60405180910390f35b6100fd60048036038101906100f89190610490565b610239565b60405161010a91906104bd565b60405180910390f35b61011b61025d565b6040516101289190610596565b60405180910390f35b6101396102b5565b604051610148939291906103c6565b60405180910390f35b61016b60048036038101906101669190610700565b6102ff565b005b6000806060600560016040518060400160405280600481526020017f42616e6b00000000000000000000000000000000000000000000000000000000815250925092509250909192565b600080606060059250600191506040518060400160405280600481526020017f42616e6b000000000000000000000000000000000000000000000000000000008152509050909192565b6000606060008060008061021361016d565b925050915060008060056000915091508383838397509750975097505050505090919293565b6000818154811061024957600080fd5b906000526020600020016000915090505481565b606060008054806020026020016040519081016040528092919081815260200182805480156102ab57602002820191906000526020600020905b815481526020019060010190808311610297575b5050505050905090565b6000806060600560016040518060400160405280600481526020017f42616e6b00000000000000000000000000000000000000000000000000000000815250925092509250909192565b50565b6000819050919050565b61031581610302565b82525050565b60008115159050919050565b6103308161031b565b82525050565b600081519050919050565b600082825260208201905092915050565b60005b83811015610370578082015181840152602081019050610355565b60008484015250505050565b6000601f19601f8301169050919050565b600061039882610336565b6103a28185610341565b93506103b2818560208601610352565b6103bb8161037c565b840191505092915050565b60006060820190506103db600083018661030c565b6103e86020830185610327565b81810360408301526103fa818461038d565b9050949350505050565b6000608082019050610419600083018761030c565b818103602083015261042b818661038d565b905061043a604083018561030c565b6104476060830184610327565b95945050505050565b6000604051905090565b600080fd5b600080fd5b61046d81610302565b811461047857600080fd5b50565b60008135905061048a81610464565b92915050565b6000602082840312156104a6576104a561045a565b5b60006104b48482850161047b565b91505092915050565b60006020820190506104d2600083018461030c565b92915050565b600081519050919050565b600082825260208201905092915050565b6000819050602082019050919050565b61050d81610302565b82525050565b600061051f8383610504565b60208301905092915050565b6000602082019050919050565b6000610543826104d8565b61054d81856104e3565b9350610558836104f4565b8060005b838110156105895781516105708882610513565b975061057b8361052b565b92505060018101905061055c565b5085935050505092915050565b600060208201905081810360008301526105b08184610538565b905092915050565b600080fd5b7f4e487b7100000000000000000000000000000000000000000000000000000000600052604160045260246000fd5b6105f58261037c565b810181811067ffffffffffffffff82111715610614576106136105bd565b5b80604052505050565b6000610627610450565b905061063382826105ec565b919050565b600067ffffffffffffffff821115610653576106526105bd565b5b602082029050602081019050919050565b600080fd5b600061067c61067784610638565b61061d565b9050808382526020820190506020840283018581111561069f5761069e610664565b5b835b818110156106c857806106b4888261047b565b8452602084019350506020810190506106a1565b5050509392505050565b600082601f8301126106e7576106e66105b8565b5b81356106f7848260208601610669565b91505092915050565b6000602082840312156107165761071561045a565b5b600082013567ffffffffffffffff8111156107345761073361045f565b5b610740848285016106d2565b9150509291505056fea26469706673582212206eac34bedda1230ffda993f857996f2e88da98ead46825275fb2a3651801171664736f6c63430008120033",
			"opcodes": "PUSH1 0x80 PUSH1 0x40 MSTORE CALLVALUE DUP1 ISZERO PUSH2 0x10 JUMPI PUSH1 0x0 DUP1 REVERT JUMPDEST POP PUSH2 0x77F DUP1 PUSH2 0x20 PUSH1 0x0 CODECOPY PUSH1 0x0 RETURN INVALID PUSH1 0x80 PUSH1 0x40 MSTORE CALLVALUE DUP1 ISZERO PUSH2 0x10 JUMPI PUSH1 0x0 DUP1 REVERT JUMPDEST POP PUSH1 0x4 CALLDATASIZE LT PUSH2 0x7D JUMPI PUSH1 0x0 CALLDATALOAD PUSH1 0xE0 SHR DUP1 PUSH4 0x71E5EE5F GT PUSH2 0x5B JUMPI DUP1 PUSH4 0x71E5EE5F EQ PUSH2 0xE3 JUMPI DUP1 PUSH4 0xE02FBA18 EQ PUSH2 0x113 JUMPI DUP1 PUSH4 0xF2D61E29 EQ PUSH2 0x131 JUMPI DUP1 PUSH4 0xF5887D2F EQ PUSH2 0x151 JUMPI PUSH2 0x7D JUMP JUMPDEST DUP1 PUSH4 0x2FA33429 EQ PUSH2 0x82 JUMPI DUP1 PUSH4 0x45F907A8 EQ PUSH2 0xA2 JUMPI DUP1 PUSH4 0x66ADB482 EQ PUSH2 0xC2 JUMPI JUMPDEST PUSH1 0x0 DUP1 REVERT JUMPDEST PUSH2 0x8A PUSH2 0x16D JUMP JUMPDEST PUSH1 0x40 MLOAD PUSH2 0x99 SWAP4 SWAP3 SWAP2 SWAP1 PUSH2 0x3C6 JUMP JUMPDEST PUSH1 0x40 MLOAD DUP1 SWAP2 SUB SWAP1 RETURN JUMPDEST PUSH2 0xAA PUSH2 0x1B7 JUMP JUMPDEST PUSH1 0x40 MLOAD PUSH2 0xB9 SWAP4 SWAP3 SWAP2 SWAP1 PUSH2 0x3C6 JUMP JUMPDEST PUSH1 0x40 MLOAD DUP1 SWAP2 SUB SWAP1 RETURN JUMPDEST PUSH2 0xCA PUSH2 0x201 JUMP JUMPDEST PUSH1 0x40 MLOAD PUSH2 0xDA SWAP5 SWAP4 SWAP3 SWAP2 SWAP1 PUSH2 0x404 JUMP JUMPDEST PUSH1 0x40 MLOAD DUP1 SWAP2 SUB SWAP1 RETURN JUMPDEST PUSH2 0xFD PUSH1 0x4 DUP1 CALLDATASIZE SUB DUP2 ADD SWAP1 PUSH2 0xF8 SWAP2 SWAP1 PUSH2 0x490 JUMP JUMPDEST PUSH2 0x239 JUMP JUMPDEST PUSH1 0x40 MLOAD PUSH2 0x10A SWAP2 SWAP1 PUSH2 0x4BD JUMP JUMPDEST PUSH1 0x40 MLOAD DUP1 SWAP2 SUB SWAP1 RETURN JUMPDEST PUSH2 0x11B PUSH2 0x25D JUMP JUMPDEST PUSH1 0x40 MLOAD PUSH2 0x128 SWAP2 SWAP1 PUSH2 0x596 JUMP JUMPDEST PUSH1 0x40 MLOAD DUP1 SWAP2 SUB SWAP1 RETURN JUMPDEST PUSH2 0x139 PUSH2 0x2B5 JUMP JUMPDEST PUSH1 0x40 MLOAD PUSH2 0x148 SWAP4 SWAP3 SWAP2 SWAP1 PUSH2 0x3C6 JUMP JUMPDEST PUSH1 0x40 MLOAD DUP1 SWAP2 SUB SWAP1 RETURN JUMPDEST PUSH2 0x16B PUSH1 0x4 DUP1 CALLDATASIZE SUB DUP2 ADD SWAP1 PUSH2 0x166 SWAP2 SWAP1 PUSH2 0x700 JUMP JUMPDEST PUSH2 0x2FF JUMP JUMPDEST STOP JUMPDEST PUSH1 0x0 DUP1 PUSH1 0x60 PUSH1 0x5 PUSH1 0x1 PUSH1 0x40 MLOAD DUP1 PUSH1 0x40 ADD PUSH1 0x40 MSTORE DUP1 PUSH1 0x4 DUP2 MSTORE PUSH1 0x20 ADD PUSH32 0x42616E6B00000000000000000000000000000000000000000000000000000000 DUP2 MSTORE POP SWAP3 POP SWAP3 POP SWAP3 POP SWAP1 SWAP2 SWAP3 JUMP JUMPDEST PUSH1 0x0 DUP1 PUSH1 0x60 PUSH1 0x5 SWAP3 POP PUSH1 0x1 SWAP2 POP PUSH1 0x40 MLOAD DUP1 PUSH1 0x40 ADD PUSH1 0x40 MSTORE DUP1 PUSH1 0x4 DUP2 MSTORE PUSH1 0x20 ADD PUSH32 0x42616E6B00000000000000000000000000000000000000000000000000000000 DUP2 MSTORE POP SWAP1 POP SWAP1 SWAP2 SWAP3 JUMP JUMPDEST PUSH1 0x0 PUSH1 0x60 PUSH1 0x0 DUP1 PUSH1 0x0 DUP1 PUSH2 0x213 PUSH2 0x16D JUMP JUMPDEST SWAP3 POP POP SWAP2 POP PUSH1 0x0 DUP1 PUSH1 0x5 PUSH1 0x0 SWAP2 POP SWAP2 POP DUP4 DUP4 DUP4 DUP4 SWAP8 POP SWAP8 POP SWAP8 POP SWAP8 POP POP POP POP POP SWAP1 SWAP2 SWAP3 SWAP4 JUMP JUMPDEST PUSH1 0x0 DUP2 DUP2 SLOAD DUP2 LT PUSH2 0x249 JUMPI PUSH1 0x0 DUP1 REVERT JUMPDEST SWAP1 PUSH1 0x0 MSTORE PUSH1 0x20 PUSH1 0x0 KECCAK256 ADD PUSH1 0x0 SWAP2 POP SWAP1 POP SLOAD DUP2 JUMP JUMPDEST PUSH1 0x60 PUSH1 0x0 DUP1 SLOAD DUP1 PUSH1 0x20 MUL PUSH1 0x20 ADD PUSH1 0x40 MLOAD SWAP1 DUP2 ADD PUSH1 0x40 MSTORE DUP1 SWAP3 SWAP2 SWAP1 DUP2 DUP2 MSTORE PUSH1 0x20 ADD DUP3 DUP1 SLOAD DUP1 ISZERO PUSH2 0x2AB JUMPI PUSH1 0x20 MUL DUP3 ADD SWAP2 SWAP1 PUSH1 0x0 MSTORE PUSH1 0x20 PUSH1 0x0 KECCAK256 SWAP1 JUMPDEST DUP2 SLOAD DUP2 MSTORE PUSH1 0x20 ADD SWAP1 PUSH1 0x1 ADD SWAP1 DUP1 DUP4 GT PUSH2 0x297 JUMPI JUMPDEST POP POP POP POP POP SWAP1 POP SWAP1 JUMP JUMPDEST PUSH1 0x0 DUP1 PUSH1 0x60 PUSH1 0x5 PUSH1 0x1 PUSH1 0x40 MLOAD DUP1 PUSH1 0x40 ADD PUSH1 0x40 MSTORE DUP1 PUSH1 0x4 DUP2 MSTORE PUSH1 0x20 ADD PUSH32 0x42616E6B00000000000000000000000000000000000000000000000000000000 DUP2 MSTORE POP SWAP3 POP SWAP3 POP SWAP3 POP SWAP1 SWAP2 SWAP3 JUMP JUMPDEST POP JUMP JUMPDEST PUSH1 0x0 DUP2 SWAP1 POP SWAP2 SWAP1 POP JUMP JUMPDEST PUSH2 0x315 DUP2 PUSH2 0x302 JUMP JUMPDEST DUP3 MSTORE POP POP JUMP JUMPDEST PUSH1 0x0 DUP2 ISZERO ISZERO SWAP1 POP SWAP2 SWAP1 POP JUMP JUMPDEST PUSH2 0x330 DUP2 PUSH2 0x31B JUMP JUMPDEST DUP3 MSTORE POP POP JUMP JUMPDEST PUSH1 0x0 DUP2 MLOAD SWAP1 POP SWAP2 SWAP1 POP JUMP JUMPDEST PUSH1 0x0 DUP3 DUP3 MSTORE PUSH1 0x20 DUP3 ADD SWAP1 POP SWAP3 SWAP2 POP POP JUMP JUMPDEST PUSH1 0x0 JUMPDEST DUP4 DUP2 LT ISZERO PUSH2 0x370 JUMPI DUP1 DUP3 ADD MLOAD DUP2 DUP5 ADD MSTORE PUSH1 0x20 DUP2 ADD SWAP1 POP PUSH2 0x355 JUMP JUMPDEST PUSH1 0x0 DUP5 DUP5 ADD MSTORE POP POP POP POP JUMP JUMPDEST PUSH1 0x0 PUSH1 0x1F NOT PUSH1 0x1F DUP4 ADD AND SWAP1 POP SWAP2 SWAP1 POP JUMP JUMPDEST PUSH1 0x0 PUSH2 0x398 DUP3 PUSH2 0x336 JUMP JUMPDEST PUSH2 0x3A2 DUP2 DUP6 PUSH2 0x341 JUMP JUMPDEST SWAP4 POP PUSH2 0x3B2 DUP2 DUP6 PUSH1 0x20 DUP7 ADD PUSH2 0x352 JUMP JUMPDEST PUSH2 0x3BB DUP2 PUSH2 0x37C JUMP JUMPDEST DUP5 ADD SWAP2 POP POP SWAP3 SWAP2 POP POP JUMP JUMPDEST PUSH1 0x0 PUSH1 0x60 DUP3 ADD SWAP1 POP PUSH2 0x3DB PUSH1 0x0 DUP4 ADD DUP7 PUSH2 0x30C JUMP JUMPDEST PUSH2 0x3E8 PUSH1 0x20 DUP4 ADD DUP6 PUSH2 0x327 JUMP JUMPDEST DUP2 DUP2 SUB PUSH1 0x40 DUP4 ADD MSTORE PUSH2 0x3FA DUP2 DUP5 PUSH2 0x38D JUMP JUMPDEST SWAP1 POP SWAP5 SWAP4 POP POP POP POP JUMP JUMPDEST PUSH1 0x0 PUSH1 0x80 DUP3 ADD SWAP1 POP PUSH2 0x419 PUSH1 0x0 DUP4 ADD DUP8 PUSH2 0x30C JUMP JUMPDEST DUP2 DUP2 SUB PUSH1 0x20 DUP4 ADD MSTORE PUSH2 0x42B DUP2 DUP7 PUSH2 0x38D JUMP JUMPDEST SWAP1 POP PUSH2 0x43A PUSH1 0x40 DUP4 ADD DUP6 PUSH2 0x30C JUMP JUMPDEST PUSH2 0x447 PUSH1 0x60 DUP4 ADD DUP5 PUSH2 0x327 JUMP JUMPDEST SWAP6 SWAP5 POP POP POP POP POP JUMP JUMPDEST PUSH1 0x0 PUSH1 0x40 MLOAD SWAP1 POP SWAP1 JUMP JUMPDEST PUSH1 0x0 DUP1 REVERT JUMPDEST PUSH1 0x0 DUP1 REVERT JUMPDEST PUSH2 0x46D DUP2 PUSH2 0x302 JUMP JUMPDEST DUP2 EQ PUSH2 0x478 JUMPI PUSH1 0x0 DUP1 REVERT JUMPDEST POP JUMP JUMPDEST PUSH1 0x0 DUP2 CALLDATALOAD SWAP1 POP PUSH2 0x48A DUP2 PUSH2 0x464 JUMP JUMPDEST SWAP3 SWAP2 POP POP JUMP JUMPDEST PUSH1 0x0 PUSH1 0x20 DUP3 DUP5 SUB SLT ISZERO PUSH2 0x4A6 JUMPI PUSH2 0x4A5 PUSH2 0x45A JUMP JUMPDEST JUMPDEST PUSH1 0x0 PUSH2 0x4B4 DUP5 DUP3 DUP6 ADD PUSH2 0x47B JUMP JUMPDEST SWAP2 POP POP SWAP3 SWAP2 POP POP JUMP JUMPDEST PUSH1 0x0 PUSH1 0x20 DUP3 ADD SWAP1 POP PUSH2 0x4D2 PUSH1 0x0 DUP4 ADD DUP5 PUSH2 0x30C JUMP JUMPDEST SWAP3 SWAP2 POP POP JUMP JUMPDEST PUSH1 0x0 DUP2 MLOAD SWAP1 POP SWAP2 SWAP1 POP JUMP JUMPDEST PUSH1 0x0 DUP3 DUP3 MSTORE PUSH1 0x20 DUP3 ADD SWAP1 POP SWAP3 SWAP2 POP POP JUMP JUMPDEST PUSH1 0x0 DUP2 SWAP1 POP PUSH1 0x20 DUP3 ADD SWAP1 POP SWAP2 SWAP1 POP JUMP JUMPDEST PUSH2 0x50D DUP2 PUSH2 0x302 JUMP JUMPDEST DUP3 MSTORE POP POP JUMP JUMPDEST PUSH1 0x0 PUSH2 0x51F DUP4 DUP4 PUSH2 0x504 JUMP JUMPDEST PUSH1 0x20 DUP4 ADD SWAP1 POP SWAP3 SWAP2 POP POP JUMP JUMPDEST PUSH1 0x0 PUSH1 0x20 DUP3 ADD SWAP1 POP SWAP2 SWAP1 POP JUMP JUMPDEST PUSH1 0x0 PUSH2 0x543 DUP3 PUSH2 0x4D8 JUMP JUMPDEST PUSH2 0x54D DUP2 DUP6 PUSH2 0x4E3 JUMP JUMPDEST SWAP4 POP PUSH2 0x558 DUP4 PUSH2 0x4F4 JUMP JUMPDEST DUP1 PUSH1 0x0 JUMPDEST DUP4 DUP2 LT ISZERO PUSH2 0x589 JUMPI DUP2 MLOAD PUSH2 0x570 DUP9 DUP3 PUSH2 0x513 JUMP JUMPDEST SWAP8 POP PUSH2 0x57B DUP4 PUSH2 0x52B JUMP JUMPDEST SWAP3 POP POP PUSH1 0x1 DUP2 ADD SWAP1 POP PUSH2 0x55C JUMP JUMPDEST POP DUP6 SWAP4 POP POP POP POP SWAP3 SWAP2 POP POP JUMP JUMPDEST PUSH1 0x0 PUSH1 0x20 DUP3 ADD SWAP1 POP DUP2 DUP2 SUB PUSH1 0x0 DUP4 ADD MSTORE PUSH2 0x5B0 DUP2 DUP5 PUSH2 0x538 JUMP JUMPDEST SWAP1 POP SWAP3 SWAP2 POP POP JUMP JUMPDEST PUSH1 0x0 DUP1 REVERT JUMPDEST PUSH32 0x4E487B7100000000000000000000000000000000000000000000000000000000 PUSH1 0x0 MSTORE PUSH1 0x41 PUSH1 0x4 MSTORE PUSH1 0x24 PUSH1 0x0 REVERT JUMPDEST PUSH2 0x5F5 DUP3 PUSH2 0x37C JUMP JUMPDEST DUP2 ADD DUP2 DUP2 LT PUSH8 0xFFFFFFFFFFFFFFFF DUP3 GT OR ISZERO PUSH2 0x614 JUMPI PUSH2 0x613 PUSH2 0x5BD JUMP JUMPDEST JUMPDEST DUP1 PUSH1 0x40 MSTORE POP POP POP JUMP JUMPDEST PUSH1 0x0 PUSH2 0x627 PUSH2 0x450 JUMP JUMPDEST SWAP1 POP PUSH2 0x633 DUP3 DUP3 PUSH2 0x5EC JUMP JUMPDEST SWAP2 SWAP1 POP JUMP JUMPDEST PUSH1 0x0 PUSH8 0xFFFFFFFFFFFFFFFF DUP3 GT ISZERO PUSH2 0x653 JUMPI PUSH2 0x652 PUSH2 0x5BD JUMP JUMPDEST JUMPDEST PUSH1 0x20 DUP3 MUL SWAP1 POP PUSH1 0x20 DUP2 ADD SWAP1 POP SWAP2 SWAP1 POP JUMP JUMPDEST PUSH1 0x0 DUP1 REVERT JUMPDEST PUSH1 0x0 PUSH2 0x67C PUSH2 0x677 DUP5 PUSH2 0x638 JUMP JUMPDEST PUSH2 0x61D JUMP JUMPDEST SWAP1 POP DUP1 DUP4 DUP3 MSTORE PUSH1 0x20 DUP3 ADD SWAP1 POP PUSH1 0x20 DUP5 MUL DUP4 ADD DUP6 DUP2 GT ISZERO PUSH2 0x69F JUMPI PUSH2 0x69E PUSH2 0x664 JUMP JUMPDEST JUMPDEST DUP4 JUMPDEST DUP2 DUP2 LT ISZERO PUSH2 0x6C8 JUMPI DUP1 PUSH2 0x6B4 DUP9 DUP3 PUSH2 0x47B JUMP JUMPDEST DUP5 MSTORE PUSH1 0x20 DUP5 ADD SWAP4 POP POP PUSH1 0x20 DUP2 ADD SWAP1 POP PUSH2 0x6A1 JUMP JUMPDEST POP POP POP SWAP4 SWAP3 POP POP POP JUMP JUMPDEST PUSH1 0x0 DUP3 PUSH1 0x1F DUP4 ADD SLT PUSH2 0x6E7 JUMPI PUSH2 0x6E6 PUSH2 0x5B8 JUMP JUMPDEST JUMPDEST DUP2 CALLDATALOAD PUSH2 0x6F7 DUP5 DUP3 PUSH1 0x20 DUP7 ADD PUSH2 0x669 JUMP JUMPDEST SWAP2 POP POP SWAP3 SWAP2 POP POP JUMP JUMPDEST PUSH1 0x0 PUSH1 0x20 DUP3 DUP5 SUB SLT ISZERO PUSH2 0x716 JUMPI PUSH2 0x715 PUSH2 0x45A JUMP JUMPDEST JUMPDEST PUSH1 0x0 DUP3 ADD CALLDATALOAD PUSH8 0xFFFFFFFFFFFFFFFF DUP2 GT ISZERO PUSH2 0x734 JUMPI PUSH2 0x733 PUSH2 0x45F JUMP JUMPDEST JUMPDEST PUSH2 0x740 DUP5 DUP3 DUP6 ADD PUSH2 0x6D2 JUMP JUMPDEST SWAP2 POP POP SWAP3 SWAP2 POP POP JUMP INVALID LOG2 PUSH5 0x6970667358 0x22 SLT KECCAK256 PUSH15 0xAC34BEDDA1230FFDA993F857996F2E DUP9 0xDA SWAP9 0xEA 0xD4 PUSH9 0x25275FB2A365180117 AND PUSH5 0x736F6C6343 STOP ADDMOD SLT STOP CALLER "
		},
		"gasEstimates": {
			"creation": {
				"codeDepositCost": "383800",
				"executionCost": "418",
				"totalCost": "384218"
			},
			"external": {
				"arr(uint256)": "infinite",
				"destructure()": "infinite",
				"input_array(uint256[])": "infinite",
				"multiple_return()": "infinite",
				"named()": "infinite",
				"output_array()": "infinite",
				"return_named()": "infinite"
			}
		},
		"methodIdentifiers": {
			"arr(uint256)": "71e5ee5f",
			"destructure()": "66adb482",
			"input_array(uint256[])": "f5887d2f",
			"multiple_return()": "2fa33429",
			"named()": "45f907a8",
			"output_array()": "e02fba18",
			"return_named()": "f2d61e29"
		}
	},
	"abi": [
		{
			"inputs": [
				{
					"internalType": "uint256",
					"name": "",
					"type": "uint256"
				}
			],
			"name": "arr",
			"outputs": [
				{
					"internalType": "uint256",
					"name": "",
					"type": "uint256"
				}
			],
			"stateMutability": "view",
			"type": "function"
		},
		{
			"inputs": [],
			"name": "destructure",
			"outputs": [
				{
					"internalType": "uint256",
					"name": "",
					"type": "uint256"
				},
				{
					"internalType": "string",
					"name": "",
					"type": "string"
				},
				{
					"internalType": "uint256",
					"name": "",
					"type": "uint256"
				},
				{
					"internalType": "bool",
					"name": "",
					"type": "bool"
				}
			],
			"stateMutability": "pure",
			"type": "function"
		},
		{
			"inputs": [
				{
					"internalType": "uint256[]",
					"name": "",
					"type": "uint256[]"
				}
			],
			"name": "input_array",
			"outputs": [],
			"stateMutability": "nonpayable",
			"type": "function"
		},
		{
			"inputs": [],
			"name": "multiple_return",
			"outputs": [
				{
					"internalType": "uint256",
					"name": "",
					"type": "uint256"
				},
				{
					"internalType": "bool",
					"name": "",
					"type": "bool"
				},
				{
					"internalType": "string",
					"name": "",
					"type": "string"
				}
			],
			"stateMutability": "pure",
			"type": "function"
		},
		{
			"inputs": [],
			"name": "named",
			"outputs": [
				{
					"internalType": "uint256",
					"name": "x",
					"type": "uint256"
				},
				{
					"internalType": "bool",
					"name": "y",
					"type": "bool"
				},
				{
					"internalType": "string",
					"name": "z",
					"type": "string"
				}
			],
			"stateMutability": "pure",
			"type": "function"
		},
		{
			"inputs": [],
			"name": "output_array",
			"outputs": [
				{
					"internalType": "uint256[]",
					"name": "",
					"type": "uint256[]"
				}
			],
			"stateMutability": "view",
			"type": "function"
		},
		{
			"inputs": [],
			"name": "return_named",
			"outputs": [
				{
					"internalType": "uint256",
					"name": "x",
					"type": "uint256"
				},
				{
					"internalType": "bool",
					"name": "y",
					"type": "bool"
				},
				{
					"internalType": "string",
					"name": "z",
					"type": "string"
				}
			],
			"stateMutability": "pure",
			"type": "function"
		}
	]
}