{
	"data": {
		"bytecode": {
			"linkReferences": {},
			"object": "608060405234801561001057600080fd5b506103f1806100206000396000f3fe608060405234801561001057600080fd5b50600436106100365760003560e01c8063c04062261461003b578063d4f639ea14610045575b600080fd5b61004361004f565b005b61004d610059565b005b610057610063565b565b6100616100a2565b565b7fe4ce60ef5cafebaa0b89e2b7efb3d2555b4b24735f879981e488b863933f4b00604051610090906101eb565b60405180910390a16100a06100e1565b565b7fe4ce60ef5cafebaa0b89e2b7efb3d2555b4b24735f879981e488b863933f4b006040516100cf90610257565b60405180910390a16100df610118565b565b7fe4ce60ef5cafebaa0b89e2b7efb3d2555b4b24735f879981e488b863933f4b0060405161010e906102c3565b60405180910390a1565b7fe4ce60ef5cafebaa0b89e2b7efb3d2555b4b24735f879981e488b863933f4b006040516101459061032f565b60405180910390a1610155610157565b565b7fe4ce60ef5cafebaa0b89e2b7efb3d2555b4b24735f879981e488b863933f4b006040516101849061039b565b60405180910390a1565b600082825260208201905092915050565b7f72756e2072657475726e73205469676572000000000000000000000000000000600082015250565b60006101d560118361018e565b91506101e08261019f565b602082019050919050565b60006020820190508181036000830152610204816101c8565b9050919050565b7f72756e3220616c736f2072657475726e73205469676572000000000000000000600082015250565b600061024160178361018e565b915061024c8261020b565b602082019050919050565b6000602082019050818103600083015261027081610234565b9050919050565b7f72756e2072657475726e73204269674361740000000000000000000000000000600082015250565b60006102ad60128361018e565b91506102b882610277565b602082019050919050565b600060208201905081810360008301526102dc816102a0565b9050919050565b7f72756e3220616c736f2072657475726e73204c696f6e00000000000000000000600082015250565b600061031960168361018e565b9150610324826102e3565b602082019050919050565b600060208201905081810360008301526103488161030c565b9050919050565b7f72756e3220616c736f2072657475726e73204269674361740000000000000000600082015250565b600061038560188361018e565b91506103908261034f565b602082019050919050565b600060208201905081810360008301526103b481610378565b905091905056fea2646970667358221220a1eb25bbf348d99cc172153a47c4b2b08fdc972d5d99ec2bac124a16b12dbf0c64736f6c63430008120033",
			"opcodes": "PUSH1 0x80 PUSH1 0x40 MSTORE CALLVALUE DUP1 ISZERO PUSH2 0x10 JUMPI PUSH1 0x0 DUP1 REVERT JUMPDEST POP PUSH2 0x3F1 DUP1 PUSH2 0x20 PUSH1 0x0 CODECOPY PUSH1 0x0 RETURN INVALID PUSH1 0x80 PUSH1 0x40 MSTORE CALLVALUE DUP1 ISZERO PUSH2 0x10 JUMPI PUSH1 0x0 DUP1 REVERT JUMPDEST POP PUSH1 0x4 CALLDATASIZE LT PUSH2 0x36 JUMPI PUSH1 0x0 CALLDATALOAD PUSH1 0xE0 SHR DUP1 PUSH4 0xC0406226 EQ PUSH2 0x3B JUMPI DUP1 PUSH4 0xD4F639EA EQ PUSH2 0x45 JUMPI JUMPDEST PUSH1 0x0 DUP1 REVERT JUMPDEST PUSH2 0x43 PUSH2 0x4F JUMP JUMPDEST STOP JUMPDEST PUSH2 0x4D PUSH2 0x59 JUMP JUMPDEST STOP JUMPDEST PUSH2 0x57 PUSH2 0x63 JUMP JUMPDEST JUMP JUMPDEST PUSH2 0x61 PUSH2 0xA2 JUMP JUMPDEST JUMP JUMPDEST PUSH32 0xE4CE60EF5CAFEBAA0B89E2B7EFB3D2555B4B24735F879981E488B863933F4B00 PUSH1 0x40 MLOAD PUSH2 0x90 SWAP1 PUSH2 0x1EB JUMP JUMPDEST PUSH1 0x40 MLOAD DUP1 SWAP2 SUB SWAP1 LOG1 PUSH2 0xA0 PUSH2 0xE1 JUMP JUMPDEST JUMP JUMPDEST PUSH32 0xE4CE60EF5CAFEBAA0B89E2B7EFB3D2555B4B24735F879981E488B863933F4B00 PUSH1 0x40 MLOAD PUSH2 0xCF SWAP1 PUSH2 0x257 JUMP JUMPDEST PUSH1 0x40 MLOAD DUP1 SWAP2 SUB SWAP1 LOG1 PUSH2 0xDF PUSH2 0x118 JUMP JUMPDEST JUMP JUMPDEST PUSH32 0xE4CE60EF5CAFEBAA0B89E2B7EFB3D2555B4B24735F879981E488B863933F4B00 PUSH1 0x40 MLOAD PUSH2 0x10E SWAP1 PUSH2 0x2C3 JUMP JUMPDEST PUSH1 0x40 MLOAD DUP1 SWAP2 SUB SWAP1 LOG1 JUMP JUMPDEST PUSH32 0xE4CE60EF5CAFEBAA0B89E2B7EFB3D2555B4B24735F879981E488B863933F4B00 PUSH1 0x40 MLOAD PUSH2 0x145 SWAP1 PUSH2 0x32F JUMP JUMPDEST PUSH1 0x40 MLOAD DUP1 SWAP2 SUB SWAP1 LOG1 PUSH2 0x155 PUSH2 0x157 JUMP JUMPDEST JUMP JUMPDEST PUSH32 0xE4CE60EF5CAFEBAA0B89E2B7EFB3D2555B4B24735F879981E488B863933F4B00 PUSH1 0x40 MLOAD PUSH2 0x184 SWAP1 PUSH2 0x39B JUMP JUMPDEST PUSH1 0x40 MLOAD DUP1 SWAP2 SUB SWAP1 LOG1 JUMP JUMPDEST PUSH1 0x0 DUP3 DUP3 MSTORE PUSH1 0x20 DUP3 ADD SWAP1 POP SWAP3 SWAP2 POP POP JUMP JUMPDEST PUSH32 0x72756E2072657475726E73205469676572000000000000000000000000000000 PUSH1 0x0 DUP3 ADD MSTORE POP JUMP JUMPDEST PUSH1 0x0 PUSH2 0x1D5 PUSH1 0x11 DUP4 PUSH2 0x18E JUMP JUMPDEST SWAP2 POP PUSH2 0x1E0 DUP3 PUSH2 0x19F JUMP JUMPDEST PUSH1 0x20 DUP3 ADD SWAP1 POP SWAP2 SWAP1 POP JUMP JUMPDEST PUSH1 0x0 PUSH1 0x20 DUP3 ADD SWAP1 POP DUP2 DUP2 SUB PUSH1 0x0 DUP4 ADD MSTORE PUSH2 0x204 DUP2 PUSH2 0x1C8 JUMP JUMPDEST SWAP1 POP SWAP2 SWAP1 POP JUMP JUMPDEST PUSH32 0x72756E3220616C736F2072657475726E73205469676572000000000000000000 PUSH1 0x0 DUP3 ADD MSTORE POP JUMP JUMPDEST PUSH1 0x0 PUSH2 0x241 PUSH1 0x17 DUP4 PUSH2 0x18E JUMP JUMPDEST SWAP2 POP PUSH2 0x24C DUP3 PUSH2 0x20B JUMP JUMPDEST PUSH1 0x20 DUP3 ADD SWAP1 POP SWAP2 SWAP1 POP JUMP JUMPDEST PUSH1 0x0 PUSH1 0x20 DUP3 ADD SWAP1 POP DUP2 DUP2 SUB PUSH1 0x0 DUP4 ADD MSTORE PUSH2 0x270 DUP2 PUSH2 0x234 JUMP JUMPDEST SWAP1 POP SWAP2 SWAP1 POP JUMP JUMPDEST PUSH32 0x72756E2072657475726E73204269674361740000000000000000000000000000 PUSH1 0x0 DUP3 ADD MSTORE POP JUMP JUMPDEST PUSH1 0x0 PUSH2 0x2AD PUSH1 0x12 DUP4 PUSH2 0x18E JUMP JUMPDEST SWAP2 POP PUSH2 0x2B8 DUP3 PUSH2 0x277 JUMP JUMPDEST PUSH1 0x20 DUP3 ADD SWAP1 POP SWAP2 SWAP1 POP JUMP JUMPDEST PUSH1 0x0 PUSH1 0x20 DUP3 ADD SWAP1 POP DUP2 DUP2 SUB PUSH1 0x0 DUP4 ADD MSTORE PUSH2 0x2DC DUP2 PUSH2 0x2A0 JUMP JUMPDEST SWAP1 POP SWAP2 SWAP1 POP JUMP JUMPDEST PUSH32 0x72756E3220616C736F2072657475726E73204C696F6E00000000000000000000 PUSH1 0x0 DUP3 ADD MSTORE POP JUMP JUMPDEST PUSH1 0x0 PUSH2 0x319 PUSH1 0x16 DUP4 PUSH2 0x18E JUMP JUMPDEST SWAP2 POP PUSH2 0x324 DUP3 PUSH2 0x2E3 JUMP JUMPDEST PUSH1 0x20 DUP3 ADD SWAP1 POP SWAP2 SWAP1 POP JUMP JUMPDEST PUSH1 0x0 PUSH1 0x20 DUP3 ADD SWAP1 POP DUP2 DUP2 SUB PUSH1 0x0 DUP4 ADD MSTORE PUSH2 0x348 DUP2 PUSH2 0x30C JUMP JUMPDEST SWAP1 POP SWAP2 SWAP1 POP JUMP JUMPDEST PUSH32 0x72756E3220616C736F2072657475726E73204269674361740000000000000000 PUSH1 0x0 DUP3 ADD MSTORE POP JUMP JUMPDEST PUSH1 0x0 PUSH2 0x385 PUSH1 0x18 DUP4 PUSH2 0x18E JUMP JUMPDEST SWAP2 POP PUSH2 0x390 DUP3 PUSH2 0x34F JUMP JUMPDEST PUSH1 0x20 DUP3 ADD SWAP1 POP SWAP2 SWAP1 POP JUMP JUMPDEST PUSH1 0x0 PUSH1 0x20 DUP3 ADD SWAP1 POP DUP2 DUP2 SUB PUSH1 0x0 DUP4 ADD MSTORE PUSH2 0x3B4 DUP2 PUSH2 0x378 JUMP JUMPDEST SWAP1 POP SWAP2 SWAP1 POP JUMP INVALID LOG2 PUSH5 0x6970667358 0x22 SLT KECCAK256 LOG1 0xEB 0x25 0xBB RETURN BASEFEE 0xD9 SWAP13 0xC1 PUSH19 0x153A47C4B2B08FDC972D5D99EC2BAC124A16B1 0x2D 0xBF 0xC PUSH5 0x736F6C6343 STOP ADDMOD SLT STOP CALLER "
		},
		"gasEstimates": {
			"creation": {
				"codeDepositCost": "201800",
				"executionCost": "245",
				"totalCost": "202045"
			},
			"external": {
				"run()": "infinite",
				"run2()": "infinite"
			}
		},
		"methodIdentifiers": {
			"run()": "c0406226",
			"run2()": "d4f639ea"
		}
	},
	"abi": [
		{
			"anonymous": false,
			"inputs": [
				{
					"indexed": false,
					"internalType": "string",
					"name": "name",
					"type": "string"
				}
			],
			"name": "Name",
			"type": "event"
		},
		{
			"inputs": [],
			"name": "run",
			"outputs": [],
			"stateMutability": "nonpayable",
			"type": "function"
		},
		{
			"inputs": [],
			"name": "run2",
			"outputs": [],
			"stateMutability": "nonpayable",
			"type": "function"
		}
	]
}