{
	"data": {
		"bytecode": {
			"linkReferences": {},
			"object": "60806040526040518060400160405280600560ff168152602001601960ff168152506004906002610031929190610086565b506040518060800160405280600160ff168152602001600260ff168152602001600360ff168152602001600560ff1681525060069060046100739291906100cb565b5034801561008057600080fd5b5061013a565b82600281019282156100ba579160200282015b828111156100b9578251829060ff16905591602001919060010190610099565b5b5090506100c7919061011d565b5090565b82805482825590600052602060002090810192821561010c579160200282015b8281111561010b578251829060ff169055916020019190600101906100eb565b5b509050610119919061011d565b5090565b5b8082111561013657600081600090555060010161011e565b5090565b610954806101496000396000f3fe608060405234801561001057600080fd5b50600436106100cf5760003560e01c8063959ac4841161008c578063be1c766b11610066578063be1c766b1461020e578063d504ea1d1461022c578063e91e58431461024a578063edf0099b14610266576100cf565b8063959ac484146101b8578063a4ece52c146101d4578063b61f14a5146101de576100cf565b80630b674ea3146100d45780633a7d22bc146100f05780634cc82215146101205780636987b1fb1461013c5780638732ded81461016c5780638b1f5f441461019c575b600080fd5b6100ee60048036038101906100e991906105ed565b610296565b005b61010a600480360381019061010591906105ed565b610313565b6040516101179190610629565b60405180910390f35b61013a600480360381019061013591906105ed565b61033b565b005b610156600480360381019061015191906105ed565b610360565b6040516101639190610629565b60405180910390f35b610186600480360381019061018191906105ed565b610384565b6040516101939190610629565b60405180910390f35b6101b660048036038101906101b19190610644565b61039f565b005b6101d260048036038101906101cd91906105ed565b6103c6565b005b6101dc6103f2565b005b6101f860048036038101906101f391906105ed565b61041c565b6040516102059190610629565b60405180910390f35b610216610437565b6040516102239190610629565b60405180910390f35b610234610444565b6040516102419190610742565b60405180910390f35b610264600480360381019061025f91906105ed565b61049c565b005b610280600480360381019061027b91906105ed565b61058e565b60405161028d9190610629565b60405180910390f35b600660016006805490506102aa9190610793565b815481106102bb576102ba6107c7565b5b9060005260206000200154600682815481106102da576102d96107c7565b5b906000526020600020018190555060068054806102fa576102f96107f6565b5b6001900381819060005260206000200160009055905550565b600060068281548110610329576103286107c7565b5b90600052602060002001549050919050565b6006818154811061034f5761034e6107c7565b5b906000526020600020016000905550565b6000818154811061037057600080fd5b906000526020600020016000915090505481565b6001816003811061039457600080fd5b016000915090505481565b80600683815481106103b4576103b36107c7565b5b90600052602060002001819055505050565b600681908060018154018082558091505060019003906000526020600020016000909190919091505550565b6006805480610404576104036107f6565b5b60019003818190600052602060002001600090559055565b6004816002811061042c57600080fd5b016000915090505481565b6000600680549050905090565b6060600680548060200260200160405190810160405280929190818152602001828054801561049257602002820191906000526020600020905b81548152602001906001019080831161047e575b5050505050905090565b60068054905081106104e3576040517f08c379a00000000000000000000000000000000000000000000000000000000081526004016104da90610882565b60405180910390fd5b60008190505b60016006805490506104fb9190610793565b81101561056257600660018261051191906108a2565b81548110610522576105216107c7565b5b906000526020600020015460068281548110610541576105406107c7565b5b9060005260206000200181905550808061055a906108d6565b9150506104e9565b506006805480610575576105746107f6565b5b6001900381819060005260206000200160009055905550565b6006818154811061059e57600080fd5b906000526020600020016000915090505481565b600080fd5b6000819050919050565b6105ca816105b7565b81146105d557600080fd5b50565b6000813590506105e7816105c1565b92915050565b600060208284031215610603576106026105b2565b5b6000610611848285016105d8565b91505092915050565b610623816105b7565b82525050565b600060208201905061063e600083018461061a565b92915050565b6000806040838503121561065b5761065a6105b2565b5b6000610669858286016105d8565b925050602061067a858286016105d8565b9150509250929050565b600081519050919050565b600082825260208201905092915050565b6000819050602082019050919050565b6106b9816105b7565b82525050565b60006106cb83836106b0565b60208301905092915050565b6000602082019050919050565b60006106ef82610684565b6106f9818561068f565b9350610704836106a0565b8060005b8381101561073557815161071c88826106bf565b9750610727836106d7565b925050600181019050610708565b5085935050505092915050565b6000602082019050818103600083015261075c81846106e4565b905092915050565b7f4e487b7100000000000000000000000000000000000000000000000000000000600052601160045260246000fd5b600061079e826105b7565b91506107a9836105b7565b92508282039050818111156107c1576107c0610764565b5b92915050565b7f4e487b7100000000000000000000000000000000000000000000000000000000600052603260045260246000fd5b7f4e487b7100000000000000000000000000000000000000000000000000000000600052603160045260246000fd5b600082825260208201905092915050565b7f4f7574206f6620426f756e640000000000000000000000000000000000000000600082015250565b600061086c600c83610825565b915061087782610836565b602082019050919050565b6000602082019050818103600083015261089b8161085f565b9050919050565b60006108ad826105b7565b91506108b8836105b7565b92508282019050808211156108d0576108cf610764565b5b92915050565b60006108e1826105b7565b91507fffffffffffffffffffffffffffffffffffffffffffffffffffffffffffffffff820361091357610912610764565b5b60018201905091905056fea2646970667358221220520c2ddd2693b044aebab6b5197bc7af2a148bf325209f4f0e599b95b481107564736f6c63430008120033",
			"opcodes": "PUSH1 0x80 PUSH1 0x40 MSTORE PUSH1 0x40 MLOAD DUP1 PUSH1 0x40 ADD PUSH1 0x40 MSTORE DUP1 PUSH1 0x5 PUSH1 0xFF AND DUP2 MSTORE PUSH1 0x20 ADD PUSH1 0x19 PUSH1 0xFF AND DUP2 MSTORE POP PUSH1 0x4 SWAP1 PUSH1 0x2 PUSH2 0x31 SWAP3 SWAP2 SWAP1 PUSH2 0x86 JUMP JUMPDEST POP PUSH1 0x40 MLOAD DUP1 PUSH1 0x80 ADD PUSH1 0x40 MSTORE DUP1 PUSH1 0x1 PUSH1 0xFF AND DUP2 MSTORE PUSH1 0x20 ADD PUSH1 0x2 PUSH1 0xFF AND DUP2 MSTORE PUSH1 0x20 ADD PUSH1 0x3 PUSH1 0xFF AND DUP2 MSTORE PUSH1 0x20 ADD PUSH1 0x5 PUSH1 0xFF AND DUP2 MSTORE POP PUSH1 0x6 SWAP1 PUSH1 0x4 PUSH2 0x73 SWAP3 SWAP2 SWAP1 PUSH2 0xCB JUMP JUMPDEST POP CALLVALUE DUP1 ISZERO PUSH2 0x80 JUMPI PUSH1 0x0 DUP1 REVERT JUMPDEST POP PUSH2 0x13A JUMP JUMPDEST DUP3 PUSH1 0x2 DUP2 ADD SWAP3 DUP3 ISZERO PUSH2 0xBA JUMPI SWAP2 PUSH1 0x20 MUL DUP3 ADD JUMPDEST DUP3 DUP2 GT ISZERO PUSH2 0xB9 JUMPI DUP3 MLOAD DUP3 SWAP1 PUSH1 0xFF AND SWAP1 SSTORE SWAP2 PUSH1 0x20 ADD SWAP2 SWAP1 PUSH1 0x1 ADD SWAP1 PUSH2 0x99 JUMP JUMPDEST JUMPDEST POP SWAP1 POP PUSH2 0xC7 SWAP2 SWAP1 PUSH2 0x11D JUMP JUMPDEST POP SWAP1 JUMP JUMPDEST DUP3 DUP1 SLOAD DUP3 DUP3 SSTORE SWAP1 PUSH1 0x0 MSTORE PUSH1 0x20 PUSH1 0x0 KECCAK256 SWAP1 DUP2 ADD SWAP3 DUP3 ISZERO PUSH2 0x10C JUMPI SWAP2 PUSH1 0x20 MUL DUP3 ADD JUMPDEST DUP3 DUP2 GT ISZERO PUSH2 0x10B JUMPI DUP3 MLOAD DUP3 SWAP1 PUSH1 0xFF AND SWAP1 SSTORE SWAP2 PUSH1 0x20 ADD SWAP2 SWAP1 PUSH1 0x1 ADD SWAP1 PUSH2 0xEB JUMP JUMPDEST JUMPDEST POP SWAP1 POP PUSH2 0x119 SWAP2 SWAP1 PUSH2 0x11D JUMP JUMPDEST POP SWAP1 JUMP JUMPDEST JUMPDEST DUP1 DUP3 GT ISZERO PUSH2 0x136 JUMPI PUSH1 0x0 DUP2 PUSH1 0x0 SWAP1 SSTORE POP PUSH1 0x1 ADD PUSH2 0x11E JUMP JUMPDEST POP SWAP1 JUMP JUMPDEST PUSH2 0x954 DUP1 PUSH2 0x149 PUSH1 0x0 CODECOPY PUSH1 0x0 RETURN INVALID PUSH1 0x80 PUSH1 0x40 MSTORE CALLVALUE DUP1 ISZERO PUSH2 0x10 JUMPI PUSH1 0x0 DUP1 REVERT JUMPDEST POP PUSH1 0x4 CALLDATASIZE LT PUSH2 0xCF JUMPI PUSH1 0x0 CALLDATALOAD PUSH1 0xE0 SHR DUP1 PUSH4 0x959AC484 GT PUSH2 0x8C JUMPI DUP1 PUSH4 0xBE1C766B GT PUSH2 0x66 JUMPI DUP1 PUSH4 0xBE1C766B EQ PUSH2 0x20E JUMPI DUP1 PUSH4 0xD504EA1D EQ PUSH2 0x22C JUMPI DUP1 PUSH4 0xE91E5843 EQ PUSH2 0x24A JUMPI DUP1 PUSH4 0xEDF0099B EQ PUSH2 0x266 JUMPI PUSH2 0xCF JUMP JUMPDEST DUP1 PUSH4 0x959AC484 EQ PUSH2 0x1B8 JUMPI DUP1 PUSH4 0xA4ECE52C EQ PUSH2 0x1D4 JUMPI DUP1 PUSH4 0xB61F14A5 EQ PUSH2 0x1DE JUMPI PUSH2 0xCF JUMP JUMPDEST DUP1 PUSH4 0xB674EA3 EQ PUSH2 0xD4 JUMPI DUP1 PUSH4 0x3A7D22BC EQ PUSH2 0xF0 JUMPI DUP1 PUSH4 0x4CC82215 EQ PUSH2 0x120 JUMPI DUP1 PUSH4 0x6987B1FB EQ PUSH2 0x13C JUMPI DUP1 PUSH4 0x8732DED8 EQ PUSH2 0x16C JUMPI DUP1 PUSH4 0x8B1F5F44 EQ PUSH2 0x19C JUMPI JUMPDEST PUSH1 0x0 DUP1 REVERT JUMPDEST PUSH2 0xEE PUSH1 0x4 DUP1 CALLDATASIZE SUB DUP2 ADD SWAP1 PUSH2 0xE9 SWAP2 SWAP1 PUSH2 0x5ED JUMP JUMPDEST PUSH2 0x296 JUMP JUMPDEST STOP JUMPDEST PUSH2 0x10A PUSH1 0x4 DUP1 CALLDATASIZE SUB DUP2 ADD SWAP1 PUSH2 0x105 SWAP2 SWAP1 PUSH2 0x5ED JUMP JUMPDEST PUSH2 0x313 JUMP JUMPDEST PUSH1 0x40 MLOAD PUSH2 0x117 SWAP2 SWAP1 PUSH2 0x629 JUMP JUMPDEST PUSH1 0x40 MLOAD DUP1 SWAP2 SUB SWAP1 RETURN JUMPDEST PUSH2 0x13A PUSH1 0x4 DUP1 CALLDATASIZE SUB DUP2 ADD SWAP1 PUSH2 0x135 SWAP2 SWAP1 PUSH2 0x5ED JUMP JUMPDEST PUSH2 0x33B JUMP JUMPDEST STOP JUMPDEST PUSH2 0x156 PUSH1 0x4 DUP1 CALLDATASIZE SUB DUP2 ADD SWAP1 PUSH2 0x151 SWAP2 SWAP1 PUSH2 0x5ED JUMP JUMPDEST PUSH2 0x360 JUMP JUMPDEST PUSH1 0x40 MLOAD PUSH2 0x163 SWAP2 SWAP1 PUSH2 0x629 JUMP JUMPDEST PUSH1 0x40 MLOAD DUP1 SWAP2 SUB SWAP1 RETURN JUMPDEST PUSH2 0x186 PUSH1 0x4 DUP1 CALLDATASIZE SUB DUP2 ADD SWAP1 PUSH2 0x181 SWAP2 SWAP1 PUSH2 0x5ED JUMP JUMPDEST PUSH2 0x384 JUMP JUMPDEST PUSH1 0x40 MLOAD PUSH2 0x193 SWAP2 SWAP1 PUSH2 0x629 JUMP JUMPDEST PUSH1 0x40 MLOAD DUP1 SWAP2 SUB SWAP1 RETURN JUMPDEST PUSH2 0x1B6 PUSH1 0x4 DUP1 CALLDATASIZE SUB DUP2 ADD SWAP1 PUSH2 0x1B1 SWAP2 SWAP1 PUSH2 0x644 JUMP JUMPDEST PUSH2 0x39F JUMP JUMPDEST STOP JUMPDEST PUSH2 0x1D2 PUSH1 0x4 DUP1 CALLDATASIZE SUB DUP2 ADD SWAP1 PUSH2 0x1CD SWAP2 SWAP1 PUSH2 0x5ED JUMP JUMPDEST PUSH2 0x3C6 JUMP JUMPDEST STOP JUMPDEST PUSH2 0x1DC PUSH2 0x3F2 JUMP JUMPDEST STOP JUMPDEST PUSH2 0x1F8 PUSH1 0x4 DUP1 CALLDATASIZE SUB DUP2 ADD SWAP1 PUSH2 0x1F3 SWAP2 SWAP1 PUSH2 0x5ED JUMP JUMPDEST PUSH2 0x41C JUMP JUMPDEST PUSH1 0x40 MLOAD PUSH2 0x205 SWAP2 SWAP1 PUSH2 0x629 JUMP JUMPDEST PUSH1 0x40 MLOAD DUP1 SWAP2 SUB SWAP1 RETURN JUMPDEST PUSH2 0x216 PUSH2 0x437 JUMP JUMPDEST PUSH1 0x40 MLOAD PUSH2 0x223 SWAP2 SWAP1 PUSH2 0x629 JUMP JUMPDEST PUSH1 0x40 MLOAD DUP1 SWAP2 SUB SWAP1 RETURN JUMPDEST PUSH2 0x234 PUSH2 0x444 JUMP JUMPDEST PUSH1 0x40 MLOAD PUSH2 0x241 SWAP2 SWAP1 PUSH2 0x742 JUMP JUMPDEST PUSH1 0x40 MLOAD DUP1 SWAP2 SUB SWAP1 RETURN JUMPDEST PUSH2 0x264 PUSH1 0x4 DUP1 CALLDATASIZE SUB DUP2 ADD SWAP1 PUSH2 0x25F SWAP2 SWAP1 PUSH2 0x5ED JUMP JUMPDEST PUSH2 0x49C JUMP JUMPDEST STOP JUMPDEST PUSH2 0x280 PUSH1 0x4 DUP1 CALLDATASIZE SUB DUP2 ADD SWAP1 PUSH2 0x27B SWAP2 SWAP1 PUSH2 0x5ED JUMP JUMPDEST PUSH2 0x58E JUMP JUMPDEST PUSH1 0x40 MLOAD PUSH2 0x28D SWAP2 SWAP1 PUSH2 0x629 JUMP JUMPDEST PUSH1 0x40 MLOAD DUP1 SWAP2 SUB SWAP1 RETURN JUMPDEST PUSH1 0x6 PUSH1 0x1 PUSH1 0x6 DUP1 SLOAD SWAP1 POP PUSH2 0x2AA SWAP2 SWAP1 PUSH2 0x793 JUMP JUMPDEST DUP2 SLOAD DUP2 LT PUSH2 0x2BB JUMPI PUSH2 0x2BA PUSH2 0x7C7 JUMP JUMPDEST JUMPDEST SWAP1 PUSH1 0x0 MSTORE PUSH1 0x20 PUSH1 0x0 KECCAK256 ADD SLOAD PUSH1 0x6 DUP3 DUP2 SLOAD DUP2 LT PUSH2 0x2DA JUMPI PUSH2 0x2D9 PUSH2 0x7C7 JUMP JUMPDEST JUMPDEST SWAP1 PUSH1 0x0 MSTORE PUSH1 0x20 PUSH1 0x0 KECCAK256 ADD DUP2 SWAP1 SSTORE POP PUSH1 0x6 DUP1 SLOAD DUP1 PUSH2 0x2FA JUMPI PUSH2 0x2F9 PUSH2 0x7F6 JUMP JUMPDEST JUMPDEST PUSH1 0x1 SWAP1 SUB DUP2 DUP2 SWAP1 PUSH1 0x0 MSTORE PUSH1 0x20 PUSH1 0x0 KECCAK256 ADD PUSH1 0x0 SWAP1 SSTORE SWAP1 SSTORE POP JUMP JUMPDEST PUSH1 0x0 PUSH1 0x6 DUP3 DUP2 SLOAD DUP2 LT PUSH2 0x329 JUMPI PUSH2 0x328 PUSH2 0x7C7 JUMP JUMPDEST JUMPDEST SWAP1 PUSH1 0x0 MSTORE PUSH1 0x20 PUSH1 0x0 KECCAK256 ADD SLOAD SWAP1 POP SWAP2 SWAP1 POP JUMP JUMPDEST PUSH1 0x6 DUP2 DUP2 SLOAD DUP2 LT PUSH2 0x34F JUMPI PUSH2 0x34E PUSH2 0x7C7 JUMP JUMPDEST JUMPDEST SWAP1 PUSH1 0x0 MSTORE PUSH1 0x20 PUSH1 0x0 KECCAK256 ADD PUSH1 0x0 SWAP1 SSTORE POP JUMP JUMPDEST PUSH1 0x0 DUP2 DUP2 SLOAD DUP2 LT PUSH2 0x370 JUMPI PUSH1 0x0 DUP1 REVERT JUMPDEST SWAP1 PUSH1 0x0 MSTORE PUSH1 0x20 PUSH1 0x0 KECCAK256 ADD PUSH1 0x0 SWAP2 POP SWAP1 POP SLOAD DUP2 JUMP JUMPDEST PUSH1 0x1 DUP2 PUSH1 0x3 DUP2 LT PUSH2 0x394 JUMPI PUSH1 0x0 DUP1 REVERT JUMPDEST ADD PUSH1 0x0 SWAP2 POP SWAP1 POP SLOAD DUP2 JUMP JUMPDEST DUP1 PUSH1 0x6 DUP4 DUP2 SLOAD DUP2 LT PUSH2 0x3B4 JUMPI PUSH2 0x3B3 PUSH2 0x7C7 JUMP JUMPDEST JUMPDEST SWAP1 PUSH1 0x0 MSTORE PUSH1 0x20 PUSH1 0x0 KECCAK256 ADD DUP2 SWAP1 SSTORE POP POP POP JUMP JUMPDEST PUSH1 0x6 DUP2 SWAP1 DUP1 PUSH1 0x1 DUP2 SLOAD ADD DUP1 DUP3 SSTORE DUP1 SWAP2 POP POP PUSH1 0x1 SWAP1 SUB SWAP1 PUSH1 0x0 MSTORE PUSH1 0x20 PUSH1 0x0 KECCAK256 ADD PUSH1 0x0 SWAP1 SWAP2 SWAP1 SWAP2 SWAP1 SWAP2 POP SSTORE POP JUMP JUMPDEST PUSH1 0x6 DUP1 SLOAD DUP1 PUSH2 0x404 JUMPI PUSH2 0x403 PUSH2 0x7F6 JUMP JUMPDEST JUMPDEST PUSH1 0x1 SWAP1 SUB DUP2 DUP2 SWAP1 PUSH1 0x0 MSTORE PUSH1 0x20 PUSH1 0x0 KECCAK256 ADD PUSH1 0x0 SWAP1 SSTORE SWAP1 SSTORE JUMP JUMPDEST PUSH1 0x4 DUP2 PUSH1 0x2 DUP2 LT PUSH2 0x42C JUMPI PUSH1 0x0 DUP1 REVERT JUMPDEST ADD PUSH1 0x0 SWAP2 POP SWAP1 POP SLOAD DUP2 JUMP JUMPDEST PUSH1 0x0 PUSH1 0x6 DUP1 SLOAD SWAP1 POP SWAP1 POP SWAP1 JUMP JUMPDEST PUSH1 0x60 PUSH1 0x6 DUP1 SLOAD DUP1 PUSH1 0x20 MUL PUSH1 0x20 ADD PUSH1 0x40 MLOAD SWAP1 DUP2 ADD PUSH1 0x40 MSTORE DUP1 SWAP3 SWAP2 SWAP1 DUP2 DUP2 MSTORE PUSH1 0x20 ADD DUP3 DUP1 SLOAD DUP1 ISZERO PUSH2 0x492 JUMPI PUSH1 0x20 MUL DUP3 ADD SWAP2 SWAP1 PUSH1 0x0 MSTORE PUSH1 0x20 PUSH1 0x0 KECCAK256 SWAP1 JUMPDEST DUP2 SLOAD DUP2 MSTORE PUSH1 0x20 ADD SWAP1 PUSH1 0x1 ADD SWAP1 DUP1 DUP4 GT PUSH2 0x47E JUMPI JUMPDEST POP POP POP POP POP SWAP1 POP SWAP1 JUMP JUMPDEST PUSH1 0x6 DUP1 SLOAD SWAP1 POP DUP2 LT PUSH2 0x4E3 JUMPI PUSH1 0x40 MLOAD PUSH32 0x8C379A000000000000000000000000000000000000000000000000000000000 DUP2 MSTORE PUSH1 0x4 ADD PUSH2 0x4DA SWAP1 PUSH2 0x882 JUMP JUMPDEST PUSH1 0x40 MLOAD DUP1 SWAP2 SUB SWAP1 REVERT JUMPDEST PUSH1 0x0 DUP2 SWAP1 POP JUMPDEST PUSH1 0x1 PUSH1 0x6 DUP1 SLOAD SWAP1 POP PUSH2 0x4FB SWAP2 SWAP1 PUSH2 0x793 JUMP JUMPDEST DUP2 LT ISZERO PUSH2 0x562 JUMPI PUSH1 0x6 PUSH1 0x1 DUP3 PUSH2 0x511 SWAP2 SWAP1 PUSH2 0x8A2 JUMP JUMPDEST DUP2 SLOAD DUP2 LT PUSH2 0x522 JUMPI PUSH2 0x521 PUSH2 0x7C7 JUMP JUMPDEST JUMPDEST SWAP1 PUSH1 0x0 MSTORE PUSH1 0x20 PUSH1 0x0 KECCAK256 ADD SLOAD PUSH1 0x6 DUP3 DUP2 SLOAD DUP2 LT PUSH2 0x541 JUMPI PUSH2 0x540 PUSH2 0x7C7 JUMP JUMPDEST JUMPDEST SWAP1 PUSH1 0x0 MSTORE PUSH1 0x20 PUSH1 0x0 KECCAK256 ADD DUP2 SWAP1 SSTORE POP DUP1 DUP1 PUSH2 0x55A SWAP1 PUSH2 0x8D6 JUMP JUMPDEST SWAP2 POP POP PUSH2 0x4E9 JUMP JUMPDEST POP PUSH1 0x6 DUP1 SLOAD DUP1 PUSH2 0x575 JUMPI PUSH2 0x574 PUSH2 0x7F6 JUMP JUMPDEST JUMPDEST PUSH1 0x1 SWAP1 SUB DUP2 DUP2 SWAP1 PUSH1 0x0 MSTORE PUSH1 0x20 PUSH1 0x0 KECCAK256 ADD PUSH1 0x0 SWAP1 SSTORE SWAP1 SSTORE POP JUMP JUMPDEST PUSH1 0x6 DUP2 DUP2 SLOAD DUP2 LT PUSH2 0x59E JUMPI PUSH1 0x0 DUP1 REVERT JUMPDEST SWAP1 PUSH1 0x0 MSTORE PUSH1 0x20 PUSH1 0x0 KECCAK256 ADD PUSH1 0x0 SWAP2 POP SWAP1 POP SLOAD DUP2 JUMP JUMPDEST PUSH1 0x0 DUP1 REVERT JUMPDEST PUSH1 0x0 DUP2 SWAP1 POP SWAP2 SWAP1 POP JUMP JUMPDEST PUSH2 0x5CA DUP2 PUSH2 0x5B7 JUMP JUMPDEST DUP2 EQ PUSH2 0x5D5 JUMPI PUSH1 0x0 DUP1 REVERT JUMPDEST POP JUMP JUMPDEST PUSH1 0x0 DUP2 CALLDATALOAD SWAP1 POP PUSH2 0x5E7 DUP2 PUSH2 0x5C1 JUMP JUMPDEST SWAP3 SWAP2 POP POP JUMP JUMPDEST PUSH1 0x0 PUSH1 0x20 DUP3 DUP5 SUB SLT ISZERO PUSH2 0x603 JUMPI PUSH2 0x602 PUSH2 0x5B2 JUMP JUMPDEST JUMPDEST PUSH1 0x0 PUSH2 0x611 DUP5 DUP3 DUP6 ADD PUSH2 0x5D8 JUMP JUMPDEST SWAP2 POP POP SWAP3 SWAP2 POP POP JUMP JUMPDEST PUSH2 0x623 DUP2 PUSH2 0x5B7 JUMP JUMPDEST DUP3 MSTORE POP POP JUMP JUMPDEST PUSH1 0x0 PUSH1 0x20 DUP3 ADD SWAP1 POP PUSH2 0x63E PUSH1 0x0 DUP4 ADD DUP5 PUSH2 0x61A JUMP JUMPDEST SWAP3 SWAP2 POP POP JUMP JUMPDEST PUSH1 0x0 DUP1 PUSH1 0x40 DUP4 DUP6 SUB SLT ISZERO PUSH2 0x65B JUMPI PUSH2 0x65A PUSH2 0x5B2 JUMP JUMPDEST JUMPDEST PUSH1 0x0 PUSH2 0x669 DUP6 DUP3 DUP7 ADD PUSH2 0x5D8 JUMP JUMPDEST SWAP3 POP POP PUSH1 0x20 PUSH2 0x67A DUP6 DUP3 DUP7 ADD PUSH2 0x5D8 JUMP JUMPDEST SWAP2 POP POP SWAP3 POP SWAP3 SWAP1 POP JUMP JUMPDEST PUSH1 0x0 DUP2 MLOAD SWAP1 POP SWAP2 SWAP1 POP JUMP JUMPDEST PUSH1 0x0 DUP3 DUP3 MSTORE PUSH1 0x20 DUP3 ADD SWAP1 POP SWAP3 SWAP2 POP POP JUMP JUMPDEST PUSH1 0x0 DUP2 SWAP1 POP PUSH1 0x20 DUP3 ADD SWAP1 POP SWAP2 SWAP1 POP JUMP JUMPDEST PUSH2 0x6B9 DUP2 PUSH2 0x5B7 JUMP JUMPDEST DUP3 MSTORE POP POP JUMP JUMPDEST PUSH1 0x0 PUSH2 0x6CB DUP4 DUP4 PUSH2 0x6B0 JUMP JUMPDEST PUSH1 0x20 DUP4 ADD SWAP1 POP SWAP3 SWAP2 POP POP JUMP JUMPDEST PUSH1 0x0 PUSH1 0x20 DUP3 ADD SWAP1 POP SWAP2 SWAP1 POP JUMP JUMPDEST PUSH1 0x0 PUSH2 0x6EF DUP3 PUSH2 0x684 JUMP JUMPDEST PUSH2 0x6F9 DUP2 DUP6 PUSH2 0x68F JUMP JUMPDEST SWAP4 POP PUSH2 0x704 DUP4 PUSH2 0x6A0 JUMP JUMPDEST DUP1 PUSH1 0x0 JUMPDEST DUP4 DUP2 LT ISZERO PUSH2 0x735 JUMPI DUP2 MLOAD PUSH2 0x71C DUP9 DUP3 PUSH2 0x6BF JUMP JUMPDEST SWAP8 POP PUSH2 0x727 DUP4 PUSH2 0x6D7 JUMP JUMPDEST SWAP3 POP POP PUSH1 0x1 DUP2 ADD SWAP1 POP PUSH2 0x708 JUMP JUMPDEST POP DUP6 SWAP4 POP POP POP POP SWAP3 SWAP2 POP POP JUMP JUMPDEST PUSH1 0x0 PUSH1 0x20 DUP3 ADD SWAP1 POP DUP2 DUP2 SUB PUSH1 0x0 DUP4 ADD MSTORE PUSH2 0x75C DUP2 DUP5 PUSH2 0x6E4 JUMP JUMPDEST SWAP1 POP SWAP3 SWAP2 POP POP JUMP JUMPDEST PUSH32 0x4E487B7100000000000000000000000000000000000000000000000000000000 PUSH1 0x0 MSTORE PUSH1 0x11 PUSH1 0x4 MSTORE PUSH1 0x24 PUSH1 0x0 REVERT JUMPDEST PUSH1 0x0 PUSH2 0x79E DUP3 PUSH2 0x5B7 JUMP JUMPDEST SWAP2 POP PUSH2 0x7A9 DUP4 PUSH2 0x5B7 JUMP JUMPDEST SWAP3 POP DUP3 DUP3 SUB SWAP1 POP DUP2 DUP2 GT ISZERO PUSH2 0x7C1 JUMPI PUSH2 0x7C0 PUSH2 0x764 JUMP JUMPDEST JUMPDEST SWAP3 SWAP2 POP POP JUMP JUMPDEST PUSH32 0x4E487B7100000000000000000000000000000000000000000000000000000000 PUSH1 0x0 MSTORE PUSH1 0x32 PUSH1 0x4 MSTORE PUSH1 0x24 PUSH1 0x0 REVERT JUMPDEST PUSH32 0x4E487B7100000000000000000000000000000000000000000000000000000000 PUSH1 0x0 MSTORE PUSH1 0x31 PUSH1 0x4 MSTORE PUSH1 0x24 PUSH1 0x0 REVERT JUMPDEST PUSH1 0x0 DUP3 DUP3 MSTORE PUSH1 0x20 DUP3 ADD SWAP1 POP SWAP3 SWAP2 POP POP JUMP JUMPDEST PUSH32 0x4F7574206F6620426F756E640000000000000000000000000000000000000000 PUSH1 0x0 DUP3 ADD MSTORE POP JUMP JUMPDEST PUSH1 0x0 PUSH2 0x86C PUSH1 0xC DUP4 PUSH2 0x825 JUMP JUMPDEST SWAP2 POP PUSH2 0x877 DUP3 PUSH2 0x836 JUMP JUMPDEST PUSH1 0x20 DUP3 ADD SWAP1 POP SWAP2 SWAP1 POP JUMP JUMPDEST PUSH1 0x0 PUSH1 0x20 DUP3 ADD SWAP1 POP DUP2 DUP2 SUB PUSH1 0x0 DUP4 ADD MSTORE PUSH2 0x89B DUP2 PUSH2 0x85F JUMP JUMPDEST SWAP1 POP SWAP2 SWAP1 POP JUMP JUMPDEST PUSH1 0x0 PUSH2 0x8AD DUP3 PUSH2 0x5B7 JUMP JUMPDEST SWAP2 POP PUSH2 0x8B8 DUP4 PUSH2 0x5B7 JUMP JUMPDEST SWAP3 POP DUP3 DUP3 ADD SWAP1 POP DUP1 DUP3 GT ISZERO PUSH2 0x8D0 JUMPI PUSH2 0x8CF PUSH2 0x764 JUMP JUMPDEST JUMPDEST SWAP3 SWAP2 POP POP JUMP JUMPDEST PUSH1 0x0 PUSH2 0x8E1 DUP3 PUSH2 0x5B7 JUMP JUMPDEST SWAP2 POP PUSH32 0xFFFFFFFFFFFFFFFFFFFFFFFFFFFFFFFFFFFFFFFFFFFFFFFFFFFFFFFFFFFFFFFF DUP3 SUB PUSH2 0x913 JUMPI PUSH2 0x912 PUSH2 0x764 JUMP JUMPDEST JUMPDEST PUSH1 0x1 DUP3 ADD SWAP1 POP SWAP2 SWAP1 POP JUMP INVALID LOG2 PUSH5 0x6970667358 0x22 SLT KECCAK256 MSTORE 0xC 0x2D 0xDD 0x26 SWAP4 0xB0 PREVRANDAO 0xAE 0xBA 0xB6 0xB5 NOT PUSH28 0xC7AF2A148BF325209F4F0E599B95B481107564736F6C634300081200 CALLER "
		},
		"gasEstimates": {
			"creation": {
				"codeDepositCost": "477600",
				"executionCost": "infinite",
				"totalCost": "infinite"
			},
			"external": {
				"arr1(uint256)": "infinite",
				"arr2(uint256)": "infinite",
				"arr3(uint256)": "infinite",
				"arr4(uint256)": "infinite",
				"getArray()": "infinite",
				"getElement(uint256)": "infinite",
				"getLength()": "2467",
				"modifyElement(uint256,uint256)": "infinite",
				"pop()": "29490",
				"push(uint256)": "46852",
				"remove(uint256)": "7640",
				"remove2(uint256)": "infinite",
				"remove3(uint256)": "infinite"
			}
		},
		"methodIdentifiers": {
			"arr1(uint256)": "6987b1fb",
			"arr2(uint256)": "edf0099b",
			"arr3(uint256)": "8732ded8",
			"arr4(uint256)": "b61f14a5",
			"getArray()": "d504ea1d",
			"getElement(uint256)": "3a7d22bc",
			"getLength()": "be1c766b",
			"modifyElement(uint256,uint256)": "8b1f5f44",
			"pop()": "a4ece52c",
			"push(uint256)": "959ac484",
			"remove(uint256)": "4cc82215",
			"remove2(uint256)": "e91e5843",
			"remove3(uint256)": "0b674ea3"
		}
	},
	"abi": [
		{
			"inputs": [
				{
					"internalType": "uint256",
					"name": "",
					"type": "uint256"
				}
			],
			"name": "arr1",
			"outputs": [
				{
					"internalType": "uint256",
					"name": "",
					"type": "uint256"
				}
			],
			"stateMutability": "view",
			"type": "function"
		},
		{
			"inputs": [
				{
					"internalType": "uint256",
					"name": "",
					"type": "uint256"
				}
			],
			"name": "arr2",
			"outputs": [
				{
					"internalType": "uint256",
					"name": "",
					"type": "uint256"
				}
			],
			"stateMutability": "view",
			"type": "function"
		},
		{
			"inputs": [
				{
					"internalType": "uint256",
					"name": "",
					"type": "uint256"
				}
			],
			"name": "arr3",
			"outputs": [
				{
					"internalType": "uint256",
					"name": "",
					"type": "uint256"
				}
			],
			"stateMutability": "view",
			"type": "function"
		},
		{
			"inputs": [
				{
					"internalType": "uint256",
					"name": "",
					"type": "uint256"
				}
			],
			"name": "arr4",
			"outputs": [
				{
					"internalType": "uint256",
					"name": "",
					"type": "uint256"
				}
			],
			"stateMutability": "view",
			"type": "function"
		},
		{
			"inputs": [],
			"name": "getArray",
			"outputs": [
				{
					"internalType": "uint256[]",
					"name": "",
					"type": "uint256[]"
				}
			],
			"stateMutability": "view",
			"type": "function"
		},
		{
			"inputs": [
				{
					"internalType": "uint256",
					"name": "_i",
					"type": "uint256"
				}
			],
			"name": "getElement",
			"outputs": [
				{
					"internalType": "uint256",
					"name": "",
					"type": "uint256"
				}
			],
			"stateMutability": "view",
			"type": "function"
		},
		{
			"inputs": [],
			"name": "getLength",
			"outputs": [
				{
					"internalType": "uint256",
					"name": "",
					"type": "uint256"
				}
			],
			"stateMutability": "view",
			"type": "function"
		},
		{
			"inputs": [
				{
					"internalType": "uint256",
					"name": "_i",
					"type": "uint256"
				},
				{
					"internalType": "uint256",
					"name": "_value",
					"type": "uint256"
				}
			],
			"name": "modifyElement",
			"outputs": [],
			"stateMutability": "nonpayable",
			"type": "function"
		},
		{
			"inputs": [],
			"name": "pop",
			"outputs": [],
			"stateMutability": "nonpayable",
			"type": "function"
		},
		{
			"inputs": [
				{
					"internalType": "uint256",
					"name": "_i",
					"type": "uint256"
				}
			],
			"name": "push",
			"outputs": [],
			"stateMutability": "nonpayable",
			"type": "function"
		},
		{
			"inputs": [
				{
					"internalType": "uint256",
					"name": "_i",
					"type": "uint256"
				}
			],
			"name": "remove",
			"outputs": [],
			"stateMutability": "nonpayable",
			"type": "function"
		},
		{
			"inputs": [
				{
					"internalType": "uint256",
					"name": "_i",
					"type": "uint256"
				}
			],
			"name": "remove2",
			"outputs": [],
			"stateMutability": "nonpayable",
			"type": "function"
		},
		{
			"inputs": [
				{
					"internalType": "uint256",
					"name": "_i",
					"type": "uint256"
				}
			],
			"name": "remove3",
			"outputs": [],
			"stateMutability": "nonpayable",
			"type": "function"
		}
	]
}