{
	"data": {
		"bytecode": {
			"linkReferences": {},
			"object": "608060405234801561001057600080fd5b5061083b806100206000396000f3fe608060405234801561001057600080fd5b50600436106100415760003560e01c80631dcc623b14610046578063421308dd146100645780634f5295c514610080575b600080fd5b61004e61009e565b60405161005b9190610283565b60405180910390f35b61007e600480360381019061007991906103ee565b610130565b005b610088610165565b6040516100959190610283565b60405180910390f35b6060600080546100ad90610495565b80601f01602080910402602001604051908101604052809291908181526020018280546100d990610495565b80156101265780601f106100fb57610100808354040283529160200191610126565b820191906000526020600020905b81548152906001019060200180831161010957829003601f168201915b5050505050905090565b818160405160200161014392919061054e565b604051602081830303815290604052600090816101609190610733565b505050565b6000805461017290610495565b80601f016020809104026020016040519081016040528092919081815260200182805461019e90610495565b80156101eb5780601f106101c0576101008083540402835291602001916101eb565b820191906000526020600020905b8154815290600101906020018083116101ce57829003601f168201915b505050505081565b600081519050919050565b600082825260208201905092915050565b60005b8381101561022d578082015181840152602081019050610212565b60008484015250505050565b6000601f19601f8301169050919050565b6000610255826101f3565b61025f81856101fe565b935061026f81856020860161020f565b61027881610239565b840191505092915050565b6000602082019050818103600083015261029d818461024a565b905092915050565b6000604051905090565b600080fd5b600080fd5b600080fd5b600080fd5b7f4e487b7100000000000000000000000000000000000000000000000000000000600052604160045260246000fd5b6102fb82610239565b810181811067ffffffffffffffff8211171561031a576103196102c3565b5b80604052505050565b600061032d6102a5565b905061033982826102f2565b919050565b600067ffffffffffffffff821115610359576103586102c3565b5b61036282610239565b9050602081019050919050565b82818337600083830152505050565b600061039161038c8461033e565b610323565b9050828152602081018484840111156103ad576103ac6102be565b5b6103b884828561036f565b509392505050565b600082601f8301126103d5576103d46102b9565b5b81356103e584826020860161037e565b91505092915050565b60008060408385031215610405576104046102af565b5b600083013567ffffffffffffffff811115610423576104226102b4565b5b61042f858286016103c0565b925050602083013567ffffffffffffffff8111156104505761044f6102b4565b5b61045c858286016103c0565b9150509250929050565b7f4e487b7100000000000000000000000000000000000000000000000000000000600052602260045260246000fd5b600060028204905060018216806104ad57607f821691505b6020821081036104c0576104bf610466565b5b50919050565b600081905092915050565b60006104dc826101f3565b6104e681856104c6565b93506104f681856020860161020f565b80840191505092915050565b7f2000000000000000000000000000000000000000000000000000000000000000600082015250565b60006105386001836104c6565b915061054382610502565b600182019050919050565b600061055a82856104d1565b91506105658261052b565b915061057182846104d1565b91508190509392505050565b60008190508160005260206000209050919050565b60006020601f8301049050919050565b600082821b905092915050565b6000600883026105df7fffffffffffffffffffffffffffffffffffffffffffffffffffffffffffffffff826105a2565b6105e986836105a2565b95508019841693508086168417925050509392505050565b6000819050919050565b6000819050919050565b600061063061062b61062684610601565b61060b565b610601565b9050919050565b6000819050919050565b61064a83610615565b61065e61065682610637565b8484546105af565b825550505050565b600090565b610673610666565b61067e818484610641565b505050565b5b818110156106a25761069760008261066b565b600181019050610684565b5050565b601f8211156106e7576106b88161057d565b6106c184610592565b810160208510156106d0578190505b6106e46106dc85610592565b830182610683565b50505b505050565b600082821c905092915050565b600061070a600019846008026106ec565b1980831691505092915050565b600061072383836106f9565b9150826002028217905092915050565b61073c826101f3565b67ffffffffffffffff811115610755576107546102c3565b5b61075f8254610495565b61076a8282856106a6565b600060209050601f83116001811461079d576000841561078b578287015190505b6107958582610717565b8655506107fd565b601f1984166107ab8661057d565b60005b828110156107d3578489015182556001820191506020850194506020810190506107ae565b868310156107f057848901516107ec601f8916826106f9565b8355505b6001600288020188555050505b50505050505056fea2646970667358221220422bc590264e8f36cdc3f8d522c9b46409bcfd8d01a5fde708f4e3a26c35b8af64736f6c63430008120033",
			"opcodes": "PUSH1 0x80 PUSH1 0x40 MSTORE CALLVALUE DUP1 ISZERO PUSH2 0x10 JUMPI PUSH1 0x0 DUP1 REVERT JUMPDEST POP PUSH2 0x83B DUP1 PUSH2 0x20 PUSH1 0x0 CODECOPY PUSH1 0x0 RETURN INVALID PUSH1 0x80 PUSH1 0x40 MSTORE CALLVALUE DUP1 ISZERO PUSH2 0x10 JUMPI PUSH1 0x0 DUP1 REVERT JUMPDEST POP PUSH1 0x4 CALLDATASIZE LT PUSH2 0x41 JUMPI PUSH1 0x0 CALLDATALOAD PUSH1 0xE0 SHR DUP1 PUSH4 0x1DCC623B EQ PUSH2 0x46 JUMPI DUP1 PUSH4 0x421308DD EQ PUSH2 0x64 JUMPI DUP1 PUSH4 0x4F5295C5 EQ PUSH2 0x80 JUMPI JUMPDEST PUSH1 0x0 DUP1 REVERT JUMPDEST PUSH2 0x4E PUSH2 0x9E JUMP JUMPDEST PUSH1 0x40 MLOAD PUSH2 0x5B SWAP2 SWAP1 PUSH2 0x283 JUMP JUMPDEST PUSH1 0x40 MLOAD DUP1 SWAP2 SUB SWAP1 RETURN JUMPDEST PUSH2 0x7E PUSH1 0x4 DUP1 CALLDATASIZE SUB DUP2 ADD SWAP1 PUSH2 0x79 SWAP2 SWAP1 PUSH2 0x3EE JUMP JUMPDEST PUSH2 0x130 JUMP JUMPDEST STOP JUMPDEST PUSH2 0x88 PUSH2 0x165 JUMP JUMPDEST PUSH1 0x40 MLOAD PUSH2 0x95 SWAP2 SWAP1 PUSH2 0x283 JUMP JUMPDEST PUSH1 0x40 MLOAD DUP1 SWAP2 SUB SWAP1 RETURN JUMPDEST PUSH1 0x60 PUSH1 0x0 DUP1 SLOAD PUSH2 0xAD SWAP1 PUSH2 0x495 JUMP JUMPDEST DUP1 PUSH1 0x1F ADD PUSH1 0x20 DUP1 SWAP2 DIV MUL PUSH1 0x20 ADD PUSH1 0x40 MLOAD SWAP1 DUP2 ADD PUSH1 0x40 MSTORE DUP1 SWAP3 SWAP2 SWAP1 DUP2 DUP2 MSTORE PUSH1 0x20 ADD DUP3 DUP1 SLOAD PUSH2 0xD9 SWAP1 PUSH2 0x495 JUMP JUMPDEST DUP1 ISZERO PUSH2 0x126 JUMPI DUP1 PUSH1 0x1F LT PUSH2 0xFB JUMPI PUSH2 0x100 DUP1 DUP4 SLOAD DIV MUL DUP4 MSTORE SWAP2 PUSH1 0x20 ADD SWAP2 PUSH2 0x126 JUMP JUMPDEST DUP3 ADD SWAP2 SWAP1 PUSH1 0x0 MSTORE PUSH1 0x20 PUSH1 0x0 KECCAK256 SWAP1 JUMPDEST DUP2 SLOAD DUP2 MSTORE SWAP1 PUSH1 0x1 ADD SWAP1 PUSH1 0x20 ADD DUP1 DUP4 GT PUSH2 0x109 JUMPI DUP3 SWAP1 SUB PUSH1 0x1F AND DUP3 ADD SWAP2 JUMPDEST POP POP POP POP POP SWAP1 POP SWAP1 JUMP JUMPDEST DUP2 DUP2 PUSH1 0x40 MLOAD PUSH1 0x20 ADD PUSH2 0x143 SWAP3 SWAP2 SWAP1 PUSH2 0x54E JUMP JUMPDEST PUSH1 0x40 MLOAD PUSH1 0x20 DUP2 DUP4 SUB SUB DUP2 MSTORE SWAP1 PUSH1 0x40 MSTORE PUSH1 0x0 SWAP1 DUP2 PUSH2 0x160 SWAP2 SWAP1 PUSH2 0x733 JUMP JUMPDEST POP POP POP JUMP JUMPDEST PUSH1 0x0 DUP1 SLOAD PUSH2 0x172 SWAP1 PUSH2 0x495 JUMP JUMPDEST DUP1 PUSH1 0x1F ADD PUSH1 0x20 DUP1 SWAP2 DIV MUL PUSH1 0x20 ADD PUSH1 0x40 MLOAD SWAP1 DUP2 ADD PUSH1 0x40 MSTORE DUP1 SWAP3 SWAP2 SWAP1 DUP2 DUP2 MSTORE PUSH1 0x20 ADD DUP3 DUP1 SLOAD PUSH2 0x19E SWAP1 PUSH2 0x495 JUMP JUMPDEST DUP1 ISZERO PUSH2 0x1EB JUMPI DUP1 PUSH1 0x1F LT PUSH2 0x1C0 JUMPI PUSH2 0x100 DUP1 DUP4 SLOAD DIV MUL DUP4 MSTORE SWAP2 PUSH1 0x20 ADD SWAP2 PUSH2 0x1EB JUMP JUMPDEST DUP3 ADD SWAP2 SWAP1 PUSH1 0x0 MSTORE PUSH1 0x20 PUSH1 0x0 KECCAK256 SWAP1 JUMPDEST DUP2 SLOAD DUP2 MSTORE SWAP1 PUSH1 0x1 ADD SWAP1 PUSH1 0x20 ADD DUP1 DUP4 GT PUSH2 0x1CE JUMPI DUP3 SWAP1 SUB PUSH1 0x1F AND DUP3 ADD SWAP2 JUMPDEST POP POP POP POP POP DUP2 JUMP JUMPDEST PUSH1 0x0 DUP2 MLOAD SWAP1 POP SWAP2 SWAP1 POP JUMP JUMPDEST PUSH1 0x0 DUP3 DUP3 MSTORE PUSH1 0x20 DUP3 ADD SWAP1 POP SWAP3 SWAP2 POP POP JUMP JUMPDEST PUSH1 0x0 JUMPDEST DUP4 DUP2 LT ISZERO PUSH2 0x22D JUMPI DUP1 DUP3 ADD MLOAD DUP2 DUP5 ADD MSTORE PUSH1 0x20 DUP2 ADD SWAP1 POP PUSH2 0x212 JUMP JUMPDEST PUSH1 0x0 DUP5 DUP5 ADD MSTORE POP POP POP POP JUMP JUMPDEST PUSH1 0x0 PUSH1 0x1F NOT PUSH1 0x1F DUP4 ADD AND SWAP1 POP SWAP2 SWAP1 POP JUMP JUMPDEST PUSH1 0x0 PUSH2 0x255 DUP3 PUSH2 0x1F3 JUMP JUMPDEST PUSH2 0x25F DUP2 DUP6 PUSH2 0x1FE JUMP JUMPDEST SWAP4 POP PUSH2 0x26F DUP2 DUP6 PUSH1 0x20 DUP7 ADD PUSH2 0x20F JUMP JUMPDEST PUSH2 0x278 DUP2 PUSH2 0x239 JUMP JUMPDEST DUP5 ADD SWAP2 POP POP SWAP3 SWAP2 POP POP JUMP JUMPDEST PUSH1 0x0 PUSH1 0x20 DUP3 ADD SWAP1 POP DUP2 DUP2 SUB PUSH1 0x0 DUP4 ADD MSTORE PUSH2 0x29D DUP2 DUP5 PUSH2 0x24A JUMP JUMPDEST SWAP1 POP SWAP3 SWAP2 POP POP JUMP JUMPDEST PUSH1 0x0 PUSH1 0x40 MLOAD SWAP1 POP SWAP1 JUMP JUMPDEST PUSH1 0x0 DUP1 REVERT JUMPDEST PUSH1 0x0 DUP1 REVERT JUMPDEST PUSH1 0x0 DUP1 REVERT JUMPDEST PUSH1 0x0 DUP1 REVERT JUMPDEST PUSH32 0x4E487B7100000000000000000000000000000000000000000000000000000000 PUSH1 0x0 MSTORE PUSH1 0x41 PUSH1 0x4 MSTORE PUSH1 0x24 PUSH1 0x0 REVERT JUMPDEST PUSH2 0x2FB DUP3 PUSH2 0x239 JUMP JUMPDEST DUP2 ADD DUP2 DUP2 LT PUSH8 0xFFFFFFFFFFFFFFFF DUP3 GT OR ISZERO PUSH2 0x31A JUMPI PUSH2 0x319 PUSH2 0x2C3 JUMP JUMPDEST JUMPDEST DUP1 PUSH1 0x40 MSTORE POP POP POP JUMP JUMPDEST PUSH1 0x0 PUSH2 0x32D PUSH2 0x2A5 JUMP JUMPDEST SWAP1 POP PUSH2 0x339 DUP3 DUP3 PUSH2 0x2F2 JUMP JUMPDEST SWAP2 SWAP1 POP JUMP JUMPDEST PUSH1 0x0 PUSH8 0xFFFFFFFFFFFFFFFF DUP3 GT ISZERO PUSH2 0x359 JUMPI PUSH2 0x358 PUSH2 0x2C3 JUMP JUMPDEST JUMPDEST PUSH2 0x362 DUP3 PUSH2 0x239 JUMP JUMPDEST SWAP1 POP PUSH1 0x20 DUP2 ADD SWAP1 POP SWAP2 SWAP1 POP JUMP JUMPDEST DUP3 DUP2 DUP4 CALLDATACOPY PUSH1 0x0 DUP4 DUP4 ADD MSTORE POP POP POP JUMP JUMPDEST PUSH1 0x0 PUSH2 0x391 PUSH2 0x38C DUP5 PUSH2 0x33E JUMP JUMPDEST PUSH2 0x323 JUMP JUMPDEST SWAP1 POP DUP3 DUP2 MSTORE PUSH1 0x20 DUP2 ADD DUP5 DUP5 DUP5 ADD GT ISZERO PUSH2 0x3AD JUMPI PUSH2 0x3AC PUSH2 0x2BE JUMP JUMPDEST JUMPDEST PUSH2 0x3B8 DUP5 DUP3 DUP6 PUSH2 0x36F JUMP JUMPDEST POP SWAP4 SWAP3 POP POP POP JUMP JUMPDEST PUSH1 0x0 DUP3 PUSH1 0x1F DUP4 ADD SLT PUSH2 0x3D5 JUMPI PUSH2 0x3D4 PUSH2 0x2B9 JUMP JUMPDEST JUMPDEST DUP2 CALLDATALOAD PUSH2 0x3E5 DUP5 DUP3 PUSH1 0x20 DUP7 ADD PUSH2 0x37E JUMP JUMPDEST SWAP2 POP POP SWAP3 SWAP2 POP POP JUMP JUMPDEST PUSH1 0x0 DUP1 PUSH1 0x40 DUP4 DUP6 SUB SLT ISZERO PUSH2 0x405 JUMPI PUSH2 0x404 PUSH2 0x2AF JUMP JUMPDEST JUMPDEST PUSH1 0x0 DUP4 ADD CALLDATALOAD PUSH8 0xFFFFFFFFFFFFFFFF DUP2 GT ISZERO PUSH2 0x423 JUMPI PUSH2 0x422 PUSH2 0x2B4 JUMP JUMPDEST JUMPDEST PUSH2 0x42F DUP6 DUP3 DUP7 ADD PUSH2 0x3C0 JUMP JUMPDEST SWAP3 POP POP PUSH1 0x20 DUP4 ADD CALLDATALOAD PUSH8 0xFFFFFFFFFFFFFFFF DUP2 GT ISZERO PUSH2 0x450 JUMPI PUSH2 0x44F PUSH2 0x2B4 JUMP JUMPDEST JUMPDEST PUSH2 0x45C DUP6 DUP3 DUP7 ADD PUSH2 0x3C0 JUMP JUMPDEST SWAP2 POP POP SWAP3 POP SWAP3 SWAP1 POP JUMP JUMPDEST PUSH32 0x4E487B7100000000000000000000000000000000000000000000000000000000 PUSH1 0x0 MSTORE PUSH1 0x22 PUSH1 0x4 MSTORE PUSH1 0x24 PUSH1 0x0 REVERT JUMPDEST PUSH1 0x0 PUSH1 0x2 DUP3 DIV SWAP1 POP PUSH1 0x1 DUP3 AND DUP1 PUSH2 0x4AD JUMPI PUSH1 0x7F DUP3 AND SWAP2 POP JUMPDEST PUSH1 0x20 DUP3 LT DUP2 SUB PUSH2 0x4C0 JUMPI PUSH2 0x4BF PUSH2 0x466 JUMP JUMPDEST JUMPDEST POP SWAP2 SWAP1 POP JUMP JUMPDEST PUSH1 0x0 DUP2 SWAP1 POP SWAP3 SWAP2 POP POP JUMP JUMPDEST PUSH1 0x0 PUSH2 0x4DC DUP3 PUSH2 0x1F3 JUMP JUMPDEST PUSH2 0x4E6 DUP2 DUP6 PUSH2 0x4C6 JUMP JUMPDEST SWAP4 POP PUSH2 0x4F6 DUP2 DUP6 PUSH1 0x20 DUP7 ADD PUSH2 0x20F JUMP JUMPDEST DUP1 DUP5 ADD SWAP2 POP POP SWAP3 SWAP2 POP POP JUMP JUMPDEST PUSH32 0x2000000000000000000000000000000000000000000000000000000000000000 PUSH1 0x0 DUP3 ADD MSTORE POP JUMP JUMPDEST PUSH1 0x0 PUSH2 0x538 PUSH1 0x1 DUP4 PUSH2 0x4C6 JUMP JUMPDEST SWAP2 POP PUSH2 0x543 DUP3 PUSH2 0x502 JUMP JUMPDEST PUSH1 0x1 DUP3 ADD SWAP1 POP SWAP2 SWAP1 POP JUMP JUMPDEST PUSH1 0x0 PUSH2 0x55A DUP3 DUP6 PUSH2 0x4D1 JUMP JUMPDEST SWAP2 POP PUSH2 0x565 DUP3 PUSH2 0x52B JUMP JUMPDEST SWAP2 POP PUSH2 0x571 DUP3 DUP5 PUSH2 0x4D1 JUMP JUMPDEST SWAP2 POP DUP2 SWAP1 POP SWAP4 SWAP3 POP POP POP JUMP JUMPDEST PUSH1 0x0 DUP2 SWAP1 POP DUP2 PUSH1 0x0 MSTORE PUSH1 0x20 PUSH1 0x0 KECCAK256 SWAP1 POP SWAP2 SWAP1 POP JUMP JUMPDEST PUSH1 0x0 PUSH1 0x20 PUSH1 0x1F DUP4 ADD DIV SWAP1 POP SWAP2 SWAP1 POP JUMP JUMPDEST PUSH1 0x0 DUP3 DUP3 SHL SWAP1 POP SWAP3 SWAP2 POP POP JUMP JUMPDEST PUSH1 0x0 PUSH1 0x8 DUP4 MUL PUSH2 0x5DF PUSH32 0xFFFFFFFFFFFFFFFFFFFFFFFFFFFFFFFFFFFFFFFFFFFFFFFFFFFFFFFFFFFFFFFF DUP3 PUSH2 0x5A2 JUMP JUMPDEST PUSH2 0x5E9 DUP7 DUP4 PUSH2 0x5A2 JUMP JUMPDEST SWAP6 POP DUP1 NOT DUP5 AND SWAP4 POP DUP1 DUP7 AND DUP5 OR SWAP3 POP POP POP SWAP4 SWAP3 POP POP POP JUMP JUMPDEST PUSH1 0x0 DUP2 SWAP1 POP SWAP2 SWAP1 POP JUMP JUMPDEST PUSH1 0x0 DUP2 SWAP1 POP SWAP2 SWAP1 POP JUMP JUMPDEST PUSH1 0x0 PUSH2 0x630 PUSH2 0x62B PUSH2 0x626 DUP5 PUSH2 0x601 JUMP JUMPDEST PUSH2 0x60B JUMP JUMPDEST PUSH2 0x601 JUMP JUMPDEST SWAP1 POP SWAP2 SWAP1 POP JUMP JUMPDEST PUSH1 0x0 DUP2 SWAP1 POP SWAP2 SWAP1 POP JUMP JUMPDEST PUSH2 0x64A DUP4 PUSH2 0x615 JUMP JUMPDEST PUSH2 0x65E PUSH2 0x656 DUP3 PUSH2 0x637 JUMP JUMPDEST DUP5 DUP5 SLOAD PUSH2 0x5AF JUMP JUMPDEST DUP3 SSTORE POP POP POP POP JUMP JUMPDEST PUSH1 0x0 SWAP1 JUMP JUMPDEST PUSH2 0x673 PUSH2 0x666 JUMP JUMPDEST PUSH2 0x67E DUP2 DUP5 DUP5 PUSH2 0x641 JUMP JUMPDEST POP POP POP JUMP JUMPDEST JUMPDEST DUP2 DUP2 LT ISZERO PUSH2 0x6A2 JUMPI PUSH2 0x697 PUSH1 0x0 DUP3 PUSH2 0x66B JUMP JUMPDEST PUSH1 0x1 DUP2 ADD SWAP1 POP PUSH2 0x684 JUMP JUMPDEST POP POP JUMP JUMPDEST PUSH1 0x1F DUP3 GT ISZERO PUSH2 0x6E7 JUMPI PUSH2 0x6B8 DUP2 PUSH2 0x57D JUMP JUMPDEST PUSH2 0x6C1 DUP5 PUSH2 0x592 JUMP JUMPDEST DUP2 ADD PUSH1 0x20 DUP6 LT ISZERO PUSH2 0x6D0 JUMPI DUP2 SWAP1 POP JUMPDEST PUSH2 0x6E4 PUSH2 0x6DC DUP6 PUSH2 0x592 JUMP JUMPDEST DUP4 ADD DUP3 PUSH2 0x683 JUMP JUMPDEST POP POP JUMPDEST POP POP POP JUMP JUMPDEST PUSH1 0x0 DUP3 DUP3 SHR SWAP1 POP SWAP3 SWAP2 POP POP JUMP JUMPDEST PUSH1 0x0 PUSH2 0x70A PUSH1 0x0 NOT DUP5 PUSH1 0x8 MUL PUSH2 0x6EC JUMP JUMPDEST NOT DUP1 DUP4 AND SWAP2 POP POP SWAP3 SWAP2 POP POP JUMP JUMPDEST PUSH1 0x0 PUSH2 0x723 DUP4 DUP4 PUSH2 0x6F9 JUMP JUMPDEST SWAP2 POP DUP3 PUSH1 0x2 MUL DUP3 OR SWAP1 POP SWAP3 SWAP2 POP POP JUMP JUMPDEST PUSH2 0x73C DUP3 PUSH2 0x1F3 JUMP JUMPDEST PUSH8 0xFFFFFFFFFFFFFFFF DUP2 GT ISZERO PUSH2 0x755 JUMPI PUSH2 0x754 PUSH2 0x2C3 JUMP JUMPDEST JUMPDEST PUSH2 0x75F DUP3 SLOAD PUSH2 0x495 JUMP JUMPDEST PUSH2 0x76A DUP3 DUP3 DUP6 PUSH2 0x6A6 JUMP JUMPDEST PUSH1 0x0 PUSH1 0x20 SWAP1 POP PUSH1 0x1F DUP4 GT PUSH1 0x1 DUP2 EQ PUSH2 0x79D JUMPI PUSH1 0x0 DUP5 ISZERO PUSH2 0x78B JUMPI DUP3 DUP8 ADD MLOAD SWAP1 POP JUMPDEST PUSH2 0x795 DUP6 DUP3 PUSH2 0x717 JUMP JUMPDEST DUP7 SSTORE POP PUSH2 0x7FD JUMP JUMPDEST PUSH1 0x1F NOT DUP5 AND PUSH2 0x7AB DUP7 PUSH2 0x57D JUMP JUMPDEST PUSH1 0x0 JUMPDEST DUP3 DUP2 LT ISZERO PUSH2 0x7D3 JUMPI DUP5 DUP10 ADD MLOAD DUP3 SSTORE PUSH1 0x1 DUP3 ADD SWAP2 POP PUSH1 0x20 DUP6 ADD SWAP5 POP PUSH1 0x20 DUP2 ADD SWAP1 POP PUSH2 0x7AE JUMP JUMPDEST DUP7 DUP4 LT ISZERO PUSH2 0x7F0 JUMPI DUP5 DUP10 ADD MLOAD PUSH2 0x7EC PUSH1 0x1F DUP10 AND DUP3 PUSH2 0x6F9 JUMP JUMPDEST DUP4 SSTORE POP JUMPDEST PUSH1 0x1 PUSH1 0x2 DUP9 MUL ADD DUP9 SSTORE POP POP POP JUMPDEST POP POP POP POP POP POP JUMP INVALID LOG2 PUSH5 0x6970667358 0x22 SLT KECCAK256 TIMESTAMP 0x2B 0xC5 SWAP1 0x26 0x4E DUP16 CALLDATASIZE 0xCD 0xC3 0xF8 0xD5 0x22 0xC9 0xB4 PUSH5 0x9BCFD8D01 0xA5 REVERT 0xE7 ADDMOD DELEGATECALL 0xE3 LOG2 PUSH13 0x35B8AF64736F6C634300081200 CALLER "
		},
		"gasEstimates": {
			"creation": {
				"codeDepositCost": "421400",
				"executionCost": "455",
				"totalCost": "421855"
			},
			"external": {
				"FN()": "infinite",
				"getFN()": "infinite",
				"setFN(string,string)": "infinite"
			}
		},
		"methodIdentifiers": {
			"FN()": "4f5295c5",
			"getFN()": "1dcc623b",
			"setFN(string,string)": "421308dd"
		}
	},
	"abi": [
		{
			"inputs": [],
			"name": "FN",
			"outputs": [
				{
					"internalType": "string",
					"name": "",
					"type": "string"
				}
			],
			"stateMutability": "view",
			"type": "function"
		},
		{
			"inputs": [],
			"name": "getFN",
			"outputs": [
				{
					"internalType": "string",
					"name": "",
					"type": "string"
				}
			],
			"stateMutability": "view",
			"type": "function"
		},
		{
			"inputs": [
				{
					"internalType": "string",
					"name": "_FN",
					"type": "string"
				},
				{
					"internalType": "string",
					"name": "_LN",
					"type": "string"
				}
			],
			"name": "setFN",
			"outputs": [],
			"stateMutability": "nonpayable",
			"type": "function"
		}
	]
}