{
	"data": {
		"bytecode": {
			"linkReferences": {},
			"object": "608060405234801561001057600080fd5b50610bbb806100206000396000f3fe608060405234801561001057600080fd5b506004361061004c5760003560e01c806346f81a87146100515780639507d39a1461006d5780639e03076a1461009e578063ad841e07146100cf575b600080fd5b61006b6004803603810190610066919061057d565b6100eb565b005b610087600480360381019061008291906105dd565b6102ea565b6040516100959291906106a9565b60405180910390f35b6100b860048036038101906100b391906105dd565b6103b2565b6040516100c69291906106a9565b60405180910390f35b6100e960048036038101906100e49190610809565b61046e565b005b6000604051806040016040528085858080601f016020809104026020016040519081016040528093929190818152602001838380828437600081840152601f19601f82011690508083019250505050505050815260200183815250908060018154018082558091505060019003906000526020600020906002020160009091909190915060008201518160000190816101849190610a84565b506020820151816001015550506000604051806040016040528085858080601f016020809104026020016040519081016040528093929190818152602001838380828437600081840152601f19601f820116905080830192505050505050508152602001838152509080600181540180825580915050600190039060005260206000209060020201600090919091909150600082015181600001908161022a9190610a84565b5060208201518160010155505061023f6104b4565b83838080601f016020809104026020016040519081016040528093929190818152602001838380828437600081840152601f19601f82011690508083019250505050505050816000018190525081816020018181525050600081908060018154018082558091505060019003906000526020600020906002020160009091909190915060008201518160000190816102d79190610a84565b5060208201518160010155505050505050565b60606000806000848154811061030357610302610b56565b5b90600052602060002090600202019050806000018160010154818054610328906108a7565b80601f0160208091040260200160405190810160405280929190818152602001828054610354906108a7565b80156103a15780601f10610376576101008083540402835291602001916103a1565b820191906000526020600020905b81548152906001019060200180831161038457829003601f168201915b505050505091509250925050915091565b600081815481106103c257600080fd5b90600052602060002090600202016000915090508060000180546103e5906108a7565b80601f0160208091040260200160405190810160405280929190818152602001828054610411906108a7565b801561045e5780601f106104335761010080835404028352916020019161045e565b820191906000526020600020905b81548152906001019060200180831161044157829003601f168201915b5050505050908060010154905082565b600080848154811061048357610482610b56565b5b90600052602060002090600202019050828160000190816104a49190610a84565b5081816001018190555050505050565b604051806040016040528060608152602001600081525090565b6000604051905090565b600080fd5b600080fd5b600080fd5b600080fd5b600080fd5b60008083601f840112610507576105066104e2565b5b8235905067ffffffffffffffff811115610524576105236104e7565b5b6020830191508360018202830111156105405761053f6104ec565b5b9250929050565b6000819050919050565b61055a81610547565b811461056557600080fd5b50565b60008135905061057781610551565b92915050565b600080600060408486031215610596576105956104d8565b5b600084013567ffffffffffffffff8111156105b4576105b36104dd565b5b6105c0868287016104f1565b935093505060206105d386828701610568565b9150509250925092565b6000602082840312156105f3576105f26104d8565b5b600061060184828501610568565b91505092915050565b600081519050919050565b600082825260208201905092915050565b60005b83811015610644578082015181840152602081019050610629565b60008484015250505050565b6000601f19601f8301169050919050565b600061066c8261060a565b6106768185610615565b9350610686818560208601610626565b61068f81610650565b840191505092915050565b6106a381610547565b82525050565b600060408201905081810360008301526106c38185610661565b90506106d2602083018461069a565b9392505050565b600080fd5b7f4e487b7100000000000000000000000000000000000000000000000000000000600052604160045260246000fd5b61071682610650565b810181811067ffffffffffffffff82111715610735576107346106de565b5b80604052505050565b60006107486104ce565b9050610754828261070d565b919050565b600067ffffffffffffffff821115610774576107736106de565b5b61077d82610650565b9050602081019050919050565b82818337600083830152505050565b60006107ac6107a784610759565b61073e565b9050828152602081018484840111156107c8576107c76106d9565b5b6107d384828561078a565b509392505050565b600082601f8301126107f0576107ef6104e2565b5b8135610800848260208601610799565b91505092915050565b600080600060608486031215610822576108216104d8565b5b600061083086828701610568565b935050602084013567ffffffffffffffff811115610851576108506104dd565b5b61085d868287016107db565b925050604061086e86828701610568565b9150509250925092565b7f4e487b7100000000000000000000000000000000000000000000000000000000600052602260045260246000fd5b600060028204905060018216806108bf57607f821691505b6020821081036108d2576108d1610878565b5b50919050565b60008190508160005260206000209050919050565b60006020601f8301049050919050565b600082821b905092915050565b60006008830261093a7fffffffffffffffffffffffffffffffffffffffffffffffffffffffffffffffff826108fd565b61094486836108fd565b95508019841693508086168417925050509392505050565b6000819050919050565b600061098161097c61097784610547565b61095c565b610547565b9050919050565b6000819050919050565b61099b83610966565b6109af6109a782610988565b84845461090a565b825550505050565b600090565b6109c46109b7565b6109cf818484610992565b505050565b5b818110156109f3576109e86000826109bc565b6001810190506109d5565b5050565b601f821115610a3857610a09816108d8565b610a12846108ed565b81016020851015610a21578190505b610a35610a2d856108ed565b8301826109d4565b50505b505050565b600082821c905092915050565b6000610a5b60001984600802610a3d565b1980831691505092915050565b6000610a748383610a4a565b9150826002028217905092915050565b610a8d8261060a565b67ffffffffffffffff811115610aa657610aa56106de565b5b610ab082546108a7565b610abb8282856109f7565b600060209050601f831160018114610aee5760008415610adc578287015190505b610ae68582610a68565b865550610b4e565b601f198416610afc866108d8565b60005b82811015610b2457848901518255600182019150602085019450602081019050610aff565b86831015610b415784890151610b3d601f891682610a4a565b8355505b6001600288020188555050505b505050505050565b7f4e487b7100000000000000000000000000000000000000000000000000000000600052603260045260246000fdfea264697066735822122005a5e098e2709808f47561ef95884274a0be0f44be16e56bb92cb6a4b25506fa64736f6c63430008120033",
			"opcodes": "PUSH1 0x80 PUSH1 0x40 MSTORE CALLVALUE DUP1 ISZERO PUSH2 0x10 JUMPI PUSH1 0x0 DUP1 REVERT JUMPDEST POP PUSH2 0xBBB DUP1 PUSH2 0x20 PUSH1 0x0 CODECOPY PUSH1 0x0 RETURN INVALID PUSH1 0x80 PUSH1 0x40 MSTORE CALLVALUE DUP1 ISZERO PUSH2 0x10 JUMPI PUSH1 0x0 DUP1 REVERT JUMPDEST POP PUSH1 0x4 CALLDATASIZE LT PUSH2 0x4C JUMPI PUSH1 0x0 CALLDATALOAD PUSH1 0xE0 SHR DUP1 PUSH4 0x46F81A87 EQ PUSH2 0x51 JUMPI DUP1 PUSH4 0x9507D39A EQ PUSH2 0x6D JUMPI DUP1 PUSH4 0x9E03076A EQ PUSH2 0x9E JUMPI DUP1 PUSH4 0xAD841E07 EQ PUSH2 0xCF JUMPI JUMPDEST PUSH1 0x0 DUP1 REVERT JUMPDEST PUSH2 0x6B PUSH1 0x4 DUP1 CALLDATASIZE SUB DUP2 ADD SWAP1 PUSH2 0x66 SWAP2 SWAP1 PUSH2 0x57D JUMP JUMPDEST PUSH2 0xEB JUMP JUMPDEST STOP JUMPDEST PUSH2 0x87 PUSH1 0x4 DUP1 CALLDATASIZE SUB DUP2 ADD SWAP1 PUSH2 0x82 SWAP2 SWAP1 PUSH2 0x5DD JUMP JUMPDEST PUSH2 0x2EA JUMP JUMPDEST PUSH1 0x40 MLOAD PUSH2 0x95 SWAP3 SWAP2 SWAP1 PUSH2 0x6A9 JUMP JUMPDEST PUSH1 0x40 MLOAD DUP1 SWAP2 SUB SWAP1 RETURN JUMPDEST PUSH2 0xB8 PUSH1 0x4 DUP1 CALLDATASIZE SUB DUP2 ADD SWAP1 PUSH2 0xB3 SWAP2 SWAP1 PUSH2 0x5DD JUMP JUMPDEST PUSH2 0x3B2 JUMP JUMPDEST PUSH1 0x40 MLOAD PUSH2 0xC6 SWAP3 SWAP2 SWAP1 PUSH2 0x6A9 JUMP JUMPDEST PUSH1 0x40 MLOAD DUP1 SWAP2 SUB SWAP1 RETURN JUMPDEST PUSH2 0xE9 PUSH1 0x4 DUP1 CALLDATASIZE SUB DUP2 ADD SWAP1 PUSH2 0xE4 SWAP2 SWAP1 PUSH2 0x809 JUMP JUMPDEST PUSH2 0x46E JUMP JUMPDEST STOP JUMPDEST PUSH1 0x0 PUSH1 0x40 MLOAD DUP1 PUSH1 0x40 ADD PUSH1 0x40 MSTORE DUP1 DUP6 DUP6 DUP1 DUP1 PUSH1 0x1F ADD PUSH1 0x20 DUP1 SWAP2 DIV MUL PUSH1 0x20 ADD PUSH1 0x40 MLOAD SWAP1 DUP2 ADD PUSH1 0x40 MSTORE DUP1 SWAP4 SWAP3 SWAP2 SWAP1 DUP2 DUP2 MSTORE PUSH1 0x20 ADD DUP4 DUP4 DUP1 DUP3 DUP5 CALLDATACOPY PUSH1 0x0 DUP2 DUP5 ADD MSTORE PUSH1 0x1F NOT PUSH1 0x1F DUP3 ADD AND SWAP1 POP DUP1 DUP4 ADD SWAP3 POP POP POP POP POP POP POP DUP2 MSTORE PUSH1 0x20 ADD DUP4 DUP2 MSTORE POP SWAP1 DUP1 PUSH1 0x1 DUP2 SLOAD ADD DUP1 DUP3 SSTORE DUP1 SWAP2 POP POP PUSH1 0x1 SWAP1 SUB SWAP1 PUSH1 0x0 MSTORE PUSH1 0x20 PUSH1 0x0 KECCAK256 SWAP1 PUSH1 0x2 MUL ADD PUSH1 0x0 SWAP1 SWAP2 SWAP1 SWAP2 SWAP1 SWAP2 POP PUSH1 0x0 DUP3 ADD MLOAD DUP2 PUSH1 0x0 ADD SWAP1 DUP2 PUSH2 0x184 SWAP2 SWAP1 PUSH2 0xA84 JUMP JUMPDEST POP PUSH1 0x20 DUP3 ADD MLOAD DUP2 PUSH1 0x1 ADD SSTORE POP POP PUSH1 0x0 PUSH1 0x40 MLOAD DUP1 PUSH1 0x40 ADD PUSH1 0x40 MSTORE DUP1 DUP6 DUP6 DUP1 DUP1 PUSH1 0x1F ADD PUSH1 0x20 DUP1 SWAP2 DIV MUL PUSH1 0x20 ADD PUSH1 0x40 MLOAD SWAP1 DUP2 ADD PUSH1 0x40 MSTORE DUP1 SWAP4 SWAP3 SWAP2 SWAP1 DUP2 DUP2 MSTORE PUSH1 0x20 ADD DUP4 DUP4 DUP1 DUP3 DUP5 CALLDATACOPY PUSH1 0x0 DUP2 DUP5 ADD MSTORE PUSH1 0x1F NOT PUSH1 0x1F DUP3 ADD AND SWAP1 POP DUP1 DUP4 ADD SWAP3 POP POP POP POP POP POP POP DUP2 MSTORE PUSH1 0x20 ADD DUP4 DUP2 MSTORE POP SWAP1 DUP1 PUSH1 0x1 DUP2 SLOAD ADD DUP1 DUP3 SSTORE DUP1 SWAP2 POP POP PUSH1 0x1 SWAP1 SUB SWAP1 PUSH1 0x0 MSTORE PUSH1 0x20 PUSH1 0x0 KECCAK256 SWAP1 PUSH1 0x2 MUL ADD PUSH1 0x0 SWAP1 SWAP2 SWAP1 SWAP2 SWAP1 SWAP2 POP PUSH1 0x0 DUP3 ADD MLOAD DUP2 PUSH1 0x0 ADD SWAP1 DUP2 PUSH2 0x22A SWAP2 SWAP1 PUSH2 0xA84 JUMP JUMPDEST POP PUSH1 0x20 DUP3 ADD MLOAD DUP2 PUSH1 0x1 ADD SSTORE POP POP PUSH2 0x23F PUSH2 0x4B4 JUMP JUMPDEST DUP4 DUP4 DUP1 DUP1 PUSH1 0x1F ADD PUSH1 0x20 DUP1 SWAP2 DIV MUL PUSH1 0x20 ADD PUSH1 0x40 MLOAD SWAP1 DUP2 ADD PUSH1 0x40 MSTORE DUP1 SWAP4 SWAP3 SWAP2 SWAP1 DUP2 DUP2 MSTORE PUSH1 0x20 ADD DUP4 DUP4 DUP1 DUP3 DUP5 CALLDATACOPY PUSH1 0x0 DUP2 DUP5 ADD MSTORE PUSH1 0x1F NOT PUSH1 0x1F DUP3 ADD AND SWAP1 POP DUP1 DUP4 ADD SWAP3 POP POP POP POP POP POP POP DUP2 PUSH1 0x0 ADD DUP2 SWAP1 MSTORE POP DUP2 DUP2 PUSH1 0x20 ADD DUP2 DUP2 MSTORE POP POP PUSH1 0x0 DUP2 SWAP1 DUP1 PUSH1 0x1 DUP2 SLOAD ADD DUP1 DUP3 SSTORE DUP1 SWAP2 POP POP PUSH1 0x1 SWAP1 SUB SWAP1 PUSH1 0x0 MSTORE PUSH1 0x20 PUSH1 0x0 KECCAK256 SWAP1 PUSH1 0x2 MUL ADD PUSH1 0x0 SWAP1 SWAP2 SWAP1 SWAP2 SWAP1 SWAP2 POP PUSH1 0x0 DUP3 ADD MLOAD DUP2 PUSH1 0x0 ADD SWAP1 DUP2 PUSH2 0x2D7 SWAP2 SWAP1 PUSH2 0xA84 JUMP JUMPDEST POP PUSH1 0x20 DUP3 ADD MLOAD DUP2 PUSH1 0x1 ADD SSTORE POP POP POP POP POP POP JUMP JUMPDEST PUSH1 0x60 PUSH1 0x0 DUP1 PUSH1 0x0 DUP5 DUP2 SLOAD DUP2 LT PUSH2 0x303 JUMPI PUSH2 0x302 PUSH2 0xB56 JUMP JUMPDEST JUMPDEST SWAP1 PUSH1 0x0 MSTORE PUSH1 0x20 PUSH1 0x0 KECCAK256 SWAP1 PUSH1 0x2 MUL ADD SWAP1 POP DUP1 PUSH1 0x0 ADD DUP2 PUSH1 0x1 ADD SLOAD DUP2 DUP1 SLOAD PUSH2 0x328 SWAP1 PUSH2 0x8A7 JUMP JUMPDEST DUP1 PUSH1 0x1F ADD PUSH1 0x20 DUP1 SWAP2 DIV MUL PUSH1 0x20 ADD PUSH1 0x40 MLOAD SWAP1 DUP2 ADD PUSH1 0x40 MSTORE DUP1 SWAP3 SWAP2 SWAP1 DUP2 DUP2 MSTORE PUSH1 0x20 ADD DUP3 DUP1 SLOAD PUSH2 0x354 SWAP1 PUSH2 0x8A7 JUMP JUMPDEST DUP1 ISZERO PUSH2 0x3A1 JUMPI DUP1 PUSH1 0x1F LT PUSH2 0x376 JUMPI PUSH2 0x100 DUP1 DUP4 SLOAD DIV MUL DUP4 MSTORE SWAP2 PUSH1 0x20 ADD SWAP2 PUSH2 0x3A1 JUMP JUMPDEST DUP3 ADD SWAP2 SWAP1 PUSH1 0x0 MSTORE PUSH1 0x20 PUSH1 0x0 KECCAK256 SWAP1 JUMPDEST DUP2 SLOAD DUP2 MSTORE SWAP1 PUSH1 0x1 ADD SWAP1 PUSH1 0x20 ADD DUP1 DUP4 GT PUSH2 0x384 JUMPI DUP3 SWAP1 SUB PUSH1 0x1F AND DUP3 ADD SWAP2 JUMPDEST POP POP POP POP POP SWAP2 POP SWAP3 POP SWAP3 POP POP SWAP2 POP SWAP2 JUMP JUMPDEST PUSH1 0x0 DUP2 DUP2 SLOAD DUP2 LT PUSH2 0x3C2 JUMPI PUSH1 0x0 DUP1 REVERT JUMPDEST SWAP1 PUSH1 0x0 MSTORE PUSH1 0x20 PUSH1 0x0 KECCAK256 SWAP1 PUSH1 0x2 MUL ADD PUSH1 0x0 SWAP2 POP SWAP1 POP DUP1 PUSH1 0x0 ADD DUP1 SLOAD PUSH2 0x3E5 SWAP1 PUSH2 0x8A7 JUMP JUMPDEST DUP1 PUSH1 0x1F ADD PUSH1 0x20 DUP1 SWAP2 DIV MUL PUSH1 0x20 ADD PUSH1 0x40 MLOAD SWAP1 DUP2 ADD PUSH1 0x40 MSTORE DUP1 SWAP3 SWAP2 SWAP1 DUP2 DUP2 MSTORE PUSH1 0x20 ADD DUP3 DUP1 SLOAD PUSH2 0x411 SWAP1 PUSH2 0x8A7 JUMP JUMPDEST DUP1 ISZERO PUSH2 0x45E JUMPI DUP1 PUSH1 0x1F LT PUSH2 0x433 JUMPI PUSH2 0x100 DUP1 DUP4 SLOAD DIV MUL DUP4 MSTORE SWAP2 PUSH1 0x20 ADD SWAP2 PUSH2 0x45E JUMP JUMPDEST DUP3 ADD SWAP2 SWAP1 PUSH1 0x0 MSTORE PUSH1 0x20 PUSH1 0x0 KECCAK256 SWAP1 JUMPDEST DUP2 SLOAD DUP2 MSTORE SWAP1 PUSH1 0x1 ADD SWAP1 PUSH1 0x20 ADD DUP1 DUP4 GT PUSH2 0x441 JUMPI DUP3 SWAP1 SUB PUSH1 0x1F AND DUP3 ADD SWAP2 JUMPDEST POP POP POP POP POP SWAP1 DUP1 PUSH1 0x1 ADD SLOAD SWAP1 POP DUP3 JUMP JUMPDEST PUSH1 0x0 DUP1 DUP5 DUP2 SLOAD DUP2 LT PUSH2 0x483 JUMPI PUSH2 0x482 PUSH2 0xB56 JUMP JUMPDEST JUMPDEST SWAP1 PUSH1 0x0 MSTORE PUSH1 0x20 PUSH1 0x0 KECCAK256 SWAP1 PUSH1 0x2 MUL ADD SWAP1 POP DUP3 DUP2 PUSH1 0x0 ADD SWAP1 DUP2 PUSH2 0x4A4 SWAP2 SWAP1 PUSH2 0xA84 JUMP JUMPDEST POP DUP2 DUP2 PUSH1 0x1 ADD DUP2 SWAP1 SSTORE POP POP POP POP POP JUMP JUMPDEST PUSH1 0x40 MLOAD DUP1 PUSH1 0x40 ADD PUSH1 0x40 MSTORE DUP1 PUSH1 0x60 DUP2 MSTORE PUSH1 0x20 ADD PUSH1 0x0 DUP2 MSTORE POP SWAP1 JUMP JUMPDEST PUSH1 0x0 PUSH1 0x40 MLOAD SWAP1 POP SWAP1 JUMP JUMPDEST PUSH1 0x0 DUP1 REVERT JUMPDEST PUSH1 0x0 DUP1 REVERT JUMPDEST PUSH1 0x0 DUP1 REVERT JUMPDEST PUSH1 0x0 DUP1 REVERT JUMPDEST PUSH1 0x0 DUP1 REVERT JUMPDEST PUSH1 0x0 DUP1 DUP4 PUSH1 0x1F DUP5 ADD SLT PUSH2 0x507 JUMPI PUSH2 0x506 PUSH2 0x4E2 JUMP JUMPDEST JUMPDEST DUP3 CALLDATALOAD SWAP1 POP PUSH8 0xFFFFFFFFFFFFFFFF DUP2 GT ISZERO PUSH2 0x524 JUMPI PUSH2 0x523 PUSH2 0x4E7 JUMP JUMPDEST JUMPDEST PUSH1 0x20 DUP4 ADD SWAP2 POP DUP4 PUSH1 0x1 DUP3 MUL DUP4 ADD GT ISZERO PUSH2 0x540 JUMPI PUSH2 0x53F PUSH2 0x4EC JUMP JUMPDEST JUMPDEST SWAP3 POP SWAP3 SWAP1 POP JUMP JUMPDEST PUSH1 0x0 DUP2 SWAP1 POP SWAP2 SWAP1 POP JUMP JUMPDEST PUSH2 0x55A DUP2 PUSH2 0x547 JUMP JUMPDEST DUP2 EQ PUSH2 0x565 JUMPI PUSH1 0x0 DUP1 REVERT JUMPDEST POP JUMP JUMPDEST PUSH1 0x0 DUP2 CALLDATALOAD SWAP1 POP PUSH2 0x577 DUP2 PUSH2 0x551 JUMP JUMPDEST SWAP3 SWAP2 POP POP JUMP JUMPDEST PUSH1 0x0 DUP1 PUSH1 0x0 PUSH1 0x40 DUP5 DUP7 SUB SLT ISZERO PUSH2 0x596 JUMPI PUSH2 0x595 PUSH2 0x4D8 JUMP JUMPDEST JUMPDEST PUSH1 0x0 DUP5 ADD CALLDATALOAD PUSH8 0xFFFFFFFFFFFFFFFF DUP2 GT ISZERO PUSH2 0x5B4 JUMPI PUSH2 0x5B3 PUSH2 0x4DD JUMP JUMPDEST JUMPDEST PUSH2 0x5C0 DUP7 DUP3 DUP8 ADD PUSH2 0x4F1 JUMP JUMPDEST SWAP4 POP SWAP4 POP POP PUSH1 0x20 PUSH2 0x5D3 DUP7 DUP3 DUP8 ADD PUSH2 0x568 JUMP JUMPDEST SWAP2 POP POP SWAP3 POP SWAP3 POP SWAP3 JUMP JUMPDEST PUSH1 0x0 PUSH1 0x20 DUP3 DUP5 SUB SLT ISZERO PUSH2 0x5F3 JUMPI PUSH2 0x5F2 PUSH2 0x4D8 JUMP JUMPDEST JUMPDEST PUSH1 0x0 PUSH2 0x601 DUP5 DUP3 DUP6 ADD PUSH2 0x568 JUMP JUMPDEST SWAP2 POP POP SWAP3 SWAP2 POP POP JUMP JUMPDEST PUSH1 0x0 DUP2 MLOAD SWAP1 POP SWAP2 SWAP1 POP JUMP JUMPDEST PUSH1 0x0 DUP3 DUP3 MSTORE PUSH1 0x20 DUP3 ADD SWAP1 POP SWAP3 SWAP2 POP POP JUMP JUMPDEST PUSH1 0x0 JUMPDEST DUP4 DUP2 LT ISZERO PUSH2 0x644 JUMPI DUP1 DUP3 ADD MLOAD DUP2 DUP5 ADD MSTORE PUSH1 0x20 DUP2 ADD SWAP1 POP PUSH2 0x629 JUMP JUMPDEST PUSH1 0x0 DUP5 DUP5 ADD MSTORE POP POP POP POP JUMP JUMPDEST PUSH1 0x0 PUSH1 0x1F NOT PUSH1 0x1F DUP4 ADD AND SWAP1 POP SWAP2 SWAP1 POP JUMP JUMPDEST PUSH1 0x0 PUSH2 0x66C DUP3 PUSH2 0x60A JUMP JUMPDEST PUSH2 0x676 DUP2 DUP6 PUSH2 0x615 JUMP JUMPDEST SWAP4 POP PUSH2 0x686 DUP2 DUP6 PUSH1 0x20 DUP7 ADD PUSH2 0x626 JUMP JUMPDEST PUSH2 0x68F DUP2 PUSH2 0x650 JUMP JUMPDEST DUP5 ADD SWAP2 POP POP SWAP3 SWAP2 POP POP JUMP JUMPDEST PUSH2 0x6A3 DUP2 PUSH2 0x547 JUMP JUMPDEST DUP3 MSTORE POP POP JUMP JUMPDEST PUSH1 0x0 PUSH1 0x40 DUP3 ADD SWAP1 POP DUP2 DUP2 SUB PUSH1 0x0 DUP4 ADD MSTORE PUSH2 0x6C3 DUP2 DUP6 PUSH2 0x661 JUMP JUMPDEST SWAP1 POP PUSH2 0x6D2 PUSH1 0x20 DUP4 ADD DUP5 PUSH2 0x69A JUMP JUMPDEST SWAP4 SWAP3 POP POP POP JUMP JUMPDEST PUSH1 0x0 DUP1 REVERT JUMPDEST PUSH32 0x4E487B7100000000000000000000000000000000000000000000000000000000 PUSH1 0x0 MSTORE PUSH1 0x41 PUSH1 0x4 MSTORE PUSH1 0x24 PUSH1 0x0 REVERT JUMPDEST PUSH2 0x716 DUP3 PUSH2 0x650 JUMP JUMPDEST DUP2 ADD DUP2 DUP2 LT PUSH8 0xFFFFFFFFFFFFFFFF DUP3 GT OR ISZERO PUSH2 0x735 JUMPI PUSH2 0x734 PUSH2 0x6DE JUMP JUMPDEST JUMPDEST DUP1 PUSH1 0x40 MSTORE POP POP POP JUMP JUMPDEST PUSH1 0x0 PUSH2 0x748 PUSH2 0x4CE JUMP JUMPDEST SWAP1 POP PUSH2 0x754 DUP3 DUP3 PUSH2 0x70D JUMP JUMPDEST SWAP2 SWAP1 POP JUMP JUMPDEST PUSH1 0x0 PUSH8 0xFFFFFFFFFFFFFFFF DUP3 GT ISZERO PUSH2 0x774 JUMPI PUSH2 0x773 PUSH2 0x6DE JUMP JUMPDEST JUMPDEST PUSH2 0x77D DUP3 PUSH2 0x650 JUMP JUMPDEST SWAP1 POP PUSH1 0x20 DUP2 ADD SWAP1 POP SWAP2 SWAP1 POP JUMP JUMPDEST DUP3 DUP2 DUP4 CALLDATACOPY PUSH1 0x0 DUP4 DUP4 ADD MSTORE POP POP POP JUMP JUMPDEST PUSH1 0x0 PUSH2 0x7AC PUSH2 0x7A7 DUP5 PUSH2 0x759 JUMP JUMPDEST PUSH2 0x73E JUMP JUMPDEST SWAP1 POP DUP3 DUP2 MSTORE PUSH1 0x20 DUP2 ADD DUP5 DUP5 DUP5 ADD GT ISZERO PUSH2 0x7C8 JUMPI PUSH2 0x7C7 PUSH2 0x6D9 JUMP JUMPDEST JUMPDEST PUSH2 0x7D3 DUP5 DUP3 DUP6 PUSH2 0x78A JUMP JUMPDEST POP SWAP4 SWAP3 POP POP POP JUMP JUMPDEST PUSH1 0x0 DUP3 PUSH1 0x1F DUP4 ADD SLT PUSH2 0x7F0 JUMPI PUSH2 0x7EF PUSH2 0x4E2 JUMP JUMPDEST JUMPDEST DUP2 CALLDATALOAD PUSH2 0x800 DUP5 DUP3 PUSH1 0x20 DUP7 ADD PUSH2 0x799 JUMP JUMPDEST SWAP2 POP POP SWAP3 SWAP2 POP POP JUMP JUMPDEST PUSH1 0x0 DUP1 PUSH1 0x0 PUSH1 0x60 DUP5 DUP7 SUB SLT ISZERO PUSH2 0x822 JUMPI PUSH2 0x821 PUSH2 0x4D8 JUMP JUMPDEST JUMPDEST PUSH1 0x0 PUSH2 0x830 DUP7 DUP3 DUP8 ADD PUSH2 0x568 JUMP JUMPDEST SWAP4 POP POP PUSH1 0x20 DUP5 ADD CALLDATALOAD PUSH8 0xFFFFFFFFFFFFFFFF DUP2 GT ISZERO PUSH2 0x851 JUMPI PUSH2 0x850 PUSH2 0x4DD JUMP JUMPDEST JUMPDEST PUSH2 0x85D DUP7 DUP3 DUP8 ADD PUSH2 0x7DB JUMP JUMPDEST SWAP3 POP POP PUSH1 0x40 PUSH2 0x86E DUP7 DUP3 DUP8 ADD PUSH2 0x568 JUMP JUMPDEST SWAP2 POP POP SWAP3 POP SWAP3 POP SWAP3 JUMP JUMPDEST PUSH32 0x4E487B7100000000000000000000000000000000000000000000000000000000 PUSH1 0x0 MSTORE PUSH1 0x22 PUSH1 0x4 MSTORE PUSH1 0x24 PUSH1 0x0 REVERT JUMPDEST PUSH1 0x0 PUSH1 0x2 DUP3 DIV SWAP1 POP PUSH1 0x1 DUP3 AND DUP1 PUSH2 0x8BF JUMPI PUSH1 0x7F DUP3 AND SWAP2 POP JUMPDEST PUSH1 0x20 DUP3 LT DUP2 SUB PUSH2 0x8D2 JUMPI PUSH2 0x8D1 PUSH2 0x878 JUMP JUMPDEST JUMPDEST POP SWAP2 SWAP1 POP JUMP JUMPDEST PUSH1 0x0 DUP2 SWAP1 POP DUP2 PUSH1 0x0 MSTORE PUSH1 0x20 PUSH1 0x0 KECCAK256 SWAP1 POP SWAP2 SWAP1 POP JUMP JUMPDEST PUSH1 0x0 PUSH1 0x20 PUSH1 0x1F DUP4 ADD DIV SWAP1 POP SWAP2 SWAP1 POP JUMP JUMPDEST PUSH1 0x0 DUP3 DUP3 SHL SWAP1 POP SWAP3 SWAP2 POP POP JUMP JUMPDEST PUSH1 0x0 PUSH1 0x8 DUP4 MUL PUSH2 0x93A PUSH32 0xFFFFFFFFFFFFFFFFFFFFFFFFFFFFFFFFFFFFFFFFFFFFFFFFFFFFFFFFFFFFFFFF DUP3 PUSH2 0x8FD JUMP JUMPDEST PUSH2 0x944 DUP7 DUP4 PUSH2 0x8FD JUMP JUMPDEST SWAP6 POP DUP1 NOT DUP5 AND SWAP4 POP DUP1 DUP7 AND DUP5 OR SWAP3 POP POP POP SWAP4 SWAP3 POP POP POP JUMP JUMPDEST PUSH1 0x0 DUP2 SWAP1 POP SWAP2 SWAP1 POP JUMP JUMPDEST PUSH1 0x0 PUSH2 0x981 PUSH2 0x97C PUSH2 0x977 DUP5 PUSH2 0x547 JUMP JUMPDEST PUSH2 0x95C JUMP JUMPDEST PUSH2 0x547 JUMP JUMPDEST SWAP1 POP SWAP2 SWAP1 POP JUMP JUMPDEST PUSH1 0x0 DUP2 SWAP1 POP SWAP2 SWAP1 POP JUMP JUMPDEST PUSH2 0x99B DUP4 PUSH2 0x966 JUMP JUMPDEST PUSH2 0x9AF PUSH2 0x9A7 DUP3 PUSH2 0x988 JUMP JUMPDEST DUP5 DUP5 SLOAD PUSH2 0x90A JUMP JUMPDEST DUP3 SSTORE POP POP POP POP JUMP JUMPDEST PUSH1 0x0 SWAP1 JUMP JUMPDEST PUSH2 0x9C4 PUSH2 0x9B7 JUMP JUMPDEST PUSH2 0x9CF DUP2 DUP5 DUP5 PUSH2 0x992 JUMP JUMPDEST POP POP POP JUMP JUMPDEST JUMPDEST DUP2 DUP2 LT ISZERO PUSH2 0x9F3 JUMPI PUSH2 0x9E8 PUSH1 0x0 DUP3 PUSH2 0x9BC JUMP JUMPDEST PUSH1 0x1 DUP2 ADD SWAP1 POP PUSH2 0x9D5 JUMP JUMPDEST POP POP JUMP JUMPDEST PUSH1 0x1F DUP3 GT ISZERO PUSH2 0xA38 JUMPI PUSH2 0xA09 DUP2 PUSH2 0x8D8 JUMP JUMPDEST PUSH2 0xA12 DUP5 PUSH2 0x8ED JUMP JUMPDEST DUP2 ADD PUSH1 0x20 DUP6 LT ISZERO PUSH2 0xA21 JUMPI DUP2 SWAP1 POP JUMPDEST PUSH2 0xA35 PUSH2 0xA2D DUP6 PUSH2 0x8ED JUMP JUMPDEST DUP4 ADD DUP3 PUSH2 0x9D4 JUMP JUMPDEST POP POP JUMPDEST POP POP POP JUMP JUMPDEST PUSH1 0x0 DUP3 DUP3 SHR SWAP1 POP SWAP3 SWAP2 POP POP JUMP JUMPDEST PUSH1 0x0 PUSH2 0xA5B PUSH1 0x0 NOT DUP5 PUSH1 0x8 MUL PUSH2 0xA3D JUMP JUMPDEST NOT DUP1 DUP4 AND SWAP2 POP POP SWAP3 SWAP2 POP POP JUMP JUMPDEST PUSH1 0x0 PUSH2 0xA74 DUP4 DUP4 PUSH2 0xA4A JUMP JUMPDEST SWAP2 POP DUP3 PUSH1 0x2 MUL DUP3 OR SWAP1 POP SWAP3 SWAP2 POP POP JUMP JUMPDEST PUSH2 0xA8D DUP3 PUSH2 0x60A JUMP JUMPDEST PUSH8 0xFFFFFFFFFFFFFFFF DUP2 GT ISZERO PUSH2 0xAA6 JUMPI PUSH2 0xAA5 PUSH2 0x6DE JUMP JUMPDEST JUMPDEST PUSH2 0xAB0 DUP3 SLOAD PUSH2 0x8A7 JUMP JUMPDEST PUSH2 0xABB DUP3 DUP3 DUP6 PUSH2 0x9F7 JUMP JUMPDEST PUSH1 0x0 PUSH1 0x20 SWAP1 POP PUSH1 0x1F DUP4 GT PUSH1 0x1 DUP2 EQ PUSH2 0xAEE JUMPI PUSH1 0x0 DUP5 ISZERO PUSH2 0xADC JUMPI DUP3 DUP8 ADD MLOAD SWAP1 POP JUMPDEST PUSH2 0xAE6 DUP6 DUP3 PUSH2 0xA68 JUMP JUMPDEST DUP7 SSTORE POP PUSH2 0xB4E JUMP JUMPDEST PUSH1 0x1F NOT DUP5 AND PUSH2 0xAFC DUP7 PUSH2 0x8D8 JUMP JUMPDEST PUSH1 0x0 JUMPDEST DUP3 DUP2 LT ISZERO PUSH2 0xB24 JUMPI DUP5 DUP10 ADD MLOAD DUP3 SSTORE PUSH1 0x1 DUP3 ADD SWAP2 POP PUSH1 0x20 DUP6 ADD SWAP5 POP PUSH1 0x20 DUP2 ADD SWAP1 POP PUSH2 0xAFF JUMP JUMPDEST DUP7 DUP4 LT ISZERO PUSH2 0xB41 JUMPI DUP5 DUP10 ADD MLOAD PUSH2 0xB3D PUSH1 0x1F DUP10 AND DUP3 PUSH2 0xA4A JUMP JUMPDEST DUP4 SSTORE POP JUMPDEST PUSH1 0x1 PUSH1 0x2 DUP9 MUL ADD DUP9 SSTORE POP POP POP JUMPDEST POP POP POP POP POP POP JUMP JUMPDEST PUSH32 0x4E487B7100000000000000000000000000000000000000000000000000000000 PUSH1 0x0 MSTORE PUSH1 0x32 PUSH1 0x4 MSTORE PUSH1 0x24 PUSH1 0x0 REVERT INVALID LOG2 PUSH5 0x6970667358 0x22 SLT KECCAK256 SDIV 0xA5 0xE0 SWAP9 0xE2 PUSH17 0x9808F47561EF95884274A0BE0F44BE16E5 PUSH12 0xB92CB6A4B25506FA64736F6C PUSH4 0x43000812 STOP CALLER "
		},
		"gasEstimates": {
			"creation": {
				"codeDepositCost": "600600",
				"executionCost": "632",
				"totalCost": "601232"
			},
			"external": {
				"create(string,uint256)": "infinite",
				"get(uint256)": "infinite",
				"sine(uint256)": "infinite",
				"update(uint256,string,uint256)": "infinite"
			}
		},
		"methodIdentifiers": {
			"create(string,uint256)": "46f81a87",
			"get(uint256)": "9507d39a",
			"sine(uint256)": "9e03076a",
			"update(uint256,string,uint256)": "ad841e07"
		}
	},
	"abi": [
		{
			"inputs": [
				{
					"internalType": "string",
					"name": "_name",
					"type": "string"
				},
				{
					"internalType": "uint256",
					"name": "_age",
					"type": "uint256"
				}
			],
			"name": "create",
			"outputs": [],
			"stateMutability": "nonpayable",
			"type": "function"
		},
		{
			"inputs": [
				{
					"internalType": "uint256",
					"name": "_i",
					"type": "uint256"
				}
			],
			"name": "get",
			"outputs": [
				{
					"internalType": "string",
					"name": "name",
					"type": "string"
				},
				{
					"internalType": "uint256",
					"name": "age",
					"type": "uint256"
				}
			],
			"stateMutability": "view",
			"type": "function"
		},
		{
			"inputs": [
				{
					"internalType": "uint256",
					"name": "",
					"type": "uint256"
				}
			],
			"name": "sine",
			"outputs": [
				{
					"internalType": "string",
					"name": "name",
					"type": "string"
				},
				{
					"internalType": "uint256",
					"name": "age",
					"type": "uint256"
				}
			],
			"stateMutability": "view",
			"type": "function"
		},
		{
			"inputs": [
				{
					"internalType": "uint256",
					"name": "_i",
					"type": "uint256"
				},
				{
					"internalType": "string",
					"name": "_name",
					"type": "string"
				},
				{
					"internalType": "uint256",
					"name": "_age",
					"type": "uint256"
				}
			],
			"name": "update",
			"outputs": [],
			"stateMutability": "nonpayable",
			"type": "function"
		}
	]
}