{
	"data": {
		"bytecode": {
			"linkReferences": {},
			"object": "6080604052600a600055600f60015534801561001a57600080fd5b5061044d8061002a6000396000f3fe608060405234801561001057600080fd5b506004361061007d5760003560e01c80637134120b1161005b5780637134120b146100de57806375da9f761461010f578063b37178e11461012d578063de0dd18a1461014c5761007d565b80631aa35610146100825780632eb3c979146100a05780636d4ce63c146100bf575b600080fd5b61008a61016b565b6040516100979190610289565b60405180910390f35b6100a8610171565b6040516100b69291906102a4565b60405180910390f35b6100c76101cf565b6040516100d59291906102a4565b60405180910390f35b6100f860048036038101906100f391906102fe565b6101e0565b6040516101069291906102a4565b60405180910390f35b61011761020e565b6040516101249190610289565b60405180910390f35b610135610214565b6040516101439291906102a4565b60405180910390f35b610154610245565b6040516101629291906102a4565b60405180910390f35b60005481565b6000806005600080828254610186919061036d565b925050819055506005600160008282546101a091906103a1565b925050819055506001546000546101b791906103d5565b91506001546000546101c9919061036d565b90509091565b600080600054600154915091509091565b600080600393506005925082846101f791906103d5565b91508284610205919061036d565b90509250929050565b60015481565b600080600060039050600060059050808261022f91906103d5565b9350808261023d919061036d565b925050509091565b60008060015460005461025891906103d5565b915060015460005461026a919061036d565b90509091565b6000819050919050565b61028381610270565b82525050565b600060208201905061029e600083018461027a565b92915050565b60006040820190506102b9600083018561027a565b6102c6602083018461027a565b9392505050565b600080fd5b6102db81610270565b81146102e657600080fd5b50565b6000813590506102f8816102d2565b92915050565b60008060408385031215610315576103146102cd565b5b6000610323858286016102e9565b9250506020610334858286016102e9565b9150509250929050565b7f4e487b7100000000000000000000000000000000000000000000000000000000600052601160045260246000fd5b600061037882610270565b915061038383610270565b925082820190508082111561039b5761039a61033e565b5b92915050565b60006103ac82610270565b91506103b783610270565b92508282039050818111156103cf576103ce61033e565b5b92915050565b60006103e082610270565b91506103eb83610270565b92508282026103f981610270565b915082820484148315176104105761040f61033e565b5b509291505056fea264697066735822122035fbb3c7b4d898f08e15c7a233f6d79d57e1579cc623e7f156e62158b03fbb4764736f6c63430008120033",
			"opcodes": "PUSH1 0x80 PUSH1 0x40 MSTORE PUSH1 0xA PUSH1 0x0 SSTORE PUSH1 0xF PUSH1 0x1 SSTORE CALLVALUE DUP1 ISZERO PUSH2 0x1A JUMPI PUSH1 0x0 DUP1 REVERT JUMPDEST POP PUSH2 0x44D DUP1 PUSH2 0x2A PUSH1 0x0 CODECOPY PUSH1 0x0 RETURN INVALID PUSH1 0x80 PUSH1 0x40 MSTORE CALLVALUE DUP1 ISZERO PUSH2 0x10 JUMPI PUSH1 0x0 DUP1 REVERT JUMPDEST POP PUSH1 0x4 CALLDATASIZE LT PUSH2 0x7D JUMPI PUSH1 0x0 CALLDATALOAD PUSH1 0xE0 SHR DUP1 PUSH4 0x7134120B GT PUSH2 0x5B JUMPI DUP1 PUSH4 0x7134120B EQ PUSH2 0xDE JUMPI DUP1 PUSH4 0x75DA9F76 EQ PUSH2 0x10F JUMPI DUP1 PUSH4 0xB37178E1 EQ PUSH2 0x12D JUMPI DUP1 PUSH4 0xDE0DD18A EQ PUSH2 0x14C JUMPI PUSH2 0x7D JUMP JUMPDEST DUP1 PUSH4 0x1AA35610 EQ PUSH2 0x82 JUMPI DUP1 PUSH4 0x2EB3C979 EQ PUSH2 0xA0 JUMPI DUP1 PUSH4 0x6D4CE63C EQ PUSH2 0xBF JUMPI JUMPDEST PUSH1 0x0 DUP1 REVERT JUMPDEST PUSH2 0x8A PUSH2 0x16B JUMP JUMPDEST PUSH1 0x40 MLOAD PUSH2 0x97 SWAP2 SWAP1 PUSH2 0x289 JUMP JUMPDEST PUSH1 0x40 MLOAD DUP1 SWAP2 SUB SWAP1 RETURN JUMPDEST PUSH2 0xA8 PUSH2 0x171 JUMP JUMPDEST PUSH1 0x40 MLOAD PUSH2 0xB6 SWAP3 SWAP2 SWAP1 PUSH2 0x2A4 JUMP JUMPDEST PUSH1 0x40 MLOAD DUP1 SWAP2 SUB SWAP1 RETURN JUMPDEST PUSH2 0xC7 PUSH2 0x1CF JUMP JUMPDEST PUSH1 0x40 MLOAD PUSH2 0xD5 SWAP3 SWAP2 SWAP1 PUSH2 0x2A4 JUMP JUMPDEST PUSH1 0x40 MLOAD DUP1 SWAP2 SUB SWAP1 RETURN JUMPDEST PUSH2 0xF8 PUSH1 0x4 DUP1 CALLDATASIZE SUB DUP2 ADD SWAP1 PUSH2 0xF3 SWAP2 SWAP1 PUSH2 0x2FE JUMP JUMPDEST PUSH2 0x1E0 JUMP JUMPDEST PUSH1 0x40 MLOAD PUSH2 0x106 SWAP3 SWAP2 SWAP1 PUSH2 0x2A4 JUMP JUMPDEST PUSH1 0x40 MLOAD DUP1 SWAP2 SUB SWAP1 RETURN JUMPDEST PUSH2 0x117 PUSH2 0x20E JUMP JUMPDEST PUSH1 0x40 MLOAD PUSH2 0x124 SWAP2 SWAP1 PUSH2 0x289 JUMP JUMPDEST PUSH1 0x40 MLOAD DUP1 SWAP2 SUB SWAP1 RETURN JUMPDEST PUSH2 0x135 PUSH2 0x214 JUMP JUMPDEST PUSH1 0x40 MLOAD PUSH2 0x143 SWAP3 SWAP2 SWAP1 PUSH2 0x2A4 JUMP JUMPDEST PUSH1 0x40 MLOAD DUP1 SWAP2 SUB SWAP1 RETURN JUMPDEST PUSH2 0x154 PUSH2 0x245 JUMP JUMPDEST PUSH1 0x40 MLOAD PUSH2 0x162 SWAP3 SWAP2 SWAP1 PUSH2 0x2A4 JUMP JUMPDEST PUSH1 0x40 MLOAD DUP1 SWAP2 SUB SWAP1 RETURN JUMPDEST PUSH1 0x0 SLOAD DUP2 JUMP JUMPDEST PUSH1 0x0 DUP1 PUSH1 0x5 PUSH1 0x0 DUP1 DUP3 DUP3 SLOAD PUSH2 0x186 SWAP2 SWAP1 PUSH2 0x36D JUMP JUMPDEST SWAP3 POP POP DUP2 SWAP1 SSTORE POP PUSH1 0x5 PUSH1 0x1 PUSH1 0x0 DUP3 DUP3 SLOAD PUSH2 0x1A0 SWAP2 SWAP1 PUSH2 0x3A1 JUMP JUMPDEST SWAP3 POP POP DUP2 SWAP1 SSTORE POP PUSH1 0x1 SLOAD PUSH1 0x0 SLOAD PUSH2 0x1B7 SWAP2 SWAP1 PUSH2 0x3D5 JUMP JUMPDEST SWAP2 POP PUSH1 0x1 SLOAD PUSH1 0x0 SLOAD PUSH2 0x1C9 SWAP2 SWAP1 PUSH2 0x36D JUMP JUMPDEST SWAP1 POP SWAP1 SWAP2 JUMP JUMPDEST PUSH1 0x0 DUP1 PUSH1 0x0 SLOAD PUSH1 0x1 SLOAD SWAP2 POP SWAP2 POP SWAP1 SWAP2 JUMP JUMPDEST PUSH1 0x0 DUP1 PUSH1 0x3 SWAP4 POP PUSH1 0x5 SWAP3 POP DUP3 DUP5 PUSH2 0x1F7 SWAP2 SWAP1 PUSH2 0x3D5 JUMP JUMPDEST SWAP2 POP DUP3 DUP5 PUSH2 0x205 SWAP2 SWAP1 PUSH2 0x36D JUMP JUMPDEST SWAP1 POP SWAP3 POP SWAP3 SWAP1 POP JUMP JUMPDEST PUSH1 0x1 SLOAD DUP2 JUMP JUMPDEST PUSH1 0x0 DUP1 PUSH1 0x0 PUSH1 0x3 SWAP1 POP PUSH1 0x0 PUSH1 0x5 SWAP1 POP DUP1 DUP3 PUSH2 0x22F SWAP2 SWAP1 PUSH2 0x3D5 JUMP JUMPDEST SWAP4 POP DUP1 DUP3 PUSH2 0x23D SWAP2 SWAP1 PUSH2 0x36D JUMP JUMPDEST SWAP3 POP POP POP SWAP1 SWAP2 JUMP JUMPDEST PUSH1 0x0 DUP1 PUSH1 0x1 SLOAD PUSH1 0x0 SLOAD PUSH2 0x258 SWAP2 SWAP1 PUSH2 0x3D5 JUMP JUMPDEST SWAP2 POP PUSH1 0x1 SLOAD PUSH1 0x0 SLOAD PUSH2 0x26A SWAP2 SWAP1 PUSH2 0x36D JUMP JUMPDEST SWAP1 POP SWAP1 SWAP2 JUMP JUMPDEST PUSH1 0x0 DUP2 SWAP1 POP SWAP2 SWAP1 POP JUMP JUMPDEST PUSH2 0x283 DUP2 PUSH2 0x270 JUMP JUMPDEST DUP3 MSTORE POP POP JUMP JUMPDEST PUSH1 0x0 PUSH1 0x20 DUP3 ADD SWAP1 POP PUSH2 0x29E PUSH1 0x0 DUP4 ADD DUP5 PUSH2 0x27A JUMP JUMPDEST SWAP3 SWAP2 POP POP JUMP JUMPDEST PUSH1 0x0 PUSH1 0x40 DUP3 ADD SWAP1 POP PUSH2 0x2B9 PUSH1 0x0 DUP4 ADD DUP6 PUSH2 0x27A JUMP JUMPDEST PUSH2 0x2C6 PUSH1 0x20 DUP4 ADD DUP5 PUSH2 0x27A JUMP JUMPDEST SWAP4 SWAP3 POP POP POP JUMP JUMPDEST PUSH1 0x0 DUP1 REVERT JUMPDEST PUSH2 0x2DB DUP2 PUSH2 0x270 JUMP JUMPDEST DUP2 EQ PUSH2 0x2E6 JUMPI PUSH1 0x0 DUP1 REVERT JUMPDEST POP JUMP JUMPDEST PUSH1 0x0 DUP2 CALLDATALOAD SWAP1 POP PUSH2 0x2F8 DUP2 PUSH2 0x2D2 JUMP JUMPDEST SWAP3 SWAP2 POP POP JUMP JUMPDEST PUSH1 0x0 DUP1 PUSH1 0x40 DUP4 DUP6 SUB SLT ISZERO PUSH2 0x315 JUMPI PUSH2 0x314 PUSH2 0x2CD JUMP JUMPDEST JUMPDEST PUSH1 0x0 PUSH2 0x323 DUP6 DUP3 DUP7 ADD PUSH2 0x2E9 JUMP JUMPDEST SWAP3 POP POP PUSH1 0x20 PUSH2 0x334 DUP6 DUP3 DUP7 ADD PUSH2 0x2E9 JUMP JUMPDEST SWAP2 POP POP SWAP3 POP SWAP3 SWAP1 POP JUMP JUMPDEST PUSH32 0x4E487B7100000000000000000000000000000000000000000000000000000000 PUSH1 0x0 MSTORE PUSH1 0x11 PUSH1 0x4 MSTORE PUSH1 0x24 PUSH1 0x0 REVERT JUMPDEST PUSH1 0x0 PUSH2 0x378 DUP3 PUSH2 0x270 JUMP JUMPDEST SWAP2 POP PUSH2 0x383 DUP4 PUSH2 0x270 JUMP JUMPDEST SWAP3 POP DUP3 DUP3 ADD SWAP1 POP DUP1 DUP3 GT ISZERO PUSH2 0x39B JUMPI PUSH2 0x39A PUSH2 0x33E JUMP JUMPDEST JUMPDEST SWAP3 SWAP2 POP POP JUMP JUMPDEST PUSH1 0x0 PUSH2 0x3AC DUP3 PUSH2 0x270 JUMP JUMPDEST SWAP2 POP PUSH2 0x3B7 DUP4 PUSH2 0x270 JUMP JUMPDEST SWAP3 POP DUP3 DUP3 SUB SWAP1 POP DUP2 DUP2 GT ISZERO PUSH2 0x3CF JUMPI PUSH2 0x3CE PUSH2 0x33E JUMP JUMPDEST JUMPDEST SWAP3 SWAP2 POP POP JUMP JUMPDEST PUSH1 0x0 PUSH2 0x3E0 DUP3 PUSH2 0x270 JUMP JUMPDEST SWAP2 POP PUSH2 0x3EB DUP4 PUSH2 0x270 JUMP JUMPDEST SWAP3 POP DUP3 DUP3 MUL PUSH2 0x3F9 DUP2 PUSH2 0x270 JUMP JUMPDEST SWAP2 POP DUP3 DUP3 DIV DUP5 EQ DUP4 ISZERO OR PUSH2 0x410 JUMPI PUSH2 0x40F PUSH2 0x33E JUMP JUMPDEST JUMPDEST POP SWAP3 SWAP2 POP POP JUMP INVALID LOG2 PUSH5 0x6970667358 0x22 SLT KECCAK256 CALLDATALOAD 0xFB 0xB3 0xC7 0xB4 0xD8 SWAP9 CREATE DUP15 ISZERO 0xC7 LOG2 CALLER 0xF6 0xD7 SWAP14 JUMPI 0xE1 JUMPI SWAP13 0xC6 0x23 0xE7 CALL JUMP 0xE6 0x21 PC 0xB0 EXTCODEHASH 0xBB SELFBALANCE PUSH5 0x736F6C6343 STOP ADDMOD SLT STOP CALLER "
		},
		"gasEstimates": {
			"creation": {
				"codeDepositCost": "220200",
				"executionCost": "44475",
				"totalCost": "264675"
			},
			"external": {
				"get()": "infinite",
				"pure_calc_2()": "infinite",
				"pure_calc_3(uint256,uint256)": "infinite",
				"u1()": "2430",
				"u2()": "2451",
				"view_calc()": "infinite",
				"view_calc_2()": "infinite"
			}
		},
		"methodIdentifiers": {
			"get()": "6d4ce63c",
			"pure_calc_2()": "b37178e1",
			"pure_calc_3(uint256,uint256)": "7134120b",
			"u1()": "1aa35610",
			"u2()": "75da9f76",
			"view_calc()": "de0dd18a",
			"view_calc_2()": "2eb3c979"
		}
	},
	"abi": [
		{
			"inputs": [],
			"name": "get",
			"outputs": [
				{
					"internalType": "uint256",
					"name": "",
					"type": "uint256"
				},
				{
					"internalType": "uint256",
					"name": "",
					"type": "uint256"
				}
			],
			"stateMutability": "view",
			"type": "function"
		},
		{
			"inputs": [],
			"name": "pure_calc_2",
			"outputs": [
				{
					"internalType": "uint256",
					"name": "prod",
					"type": "uint256"
				},
				{
					"internalType": "uint256",
					"name": "sum",
					"type": "uint256"
				}
			],
			"stateMutability": "pure",
			"type": "function"
		},
		{
			"inputs": [
				{
					"internalType": "uint256",
					"name": "_u1",
					"type": "uint256"
				},
				{
					"internalType": "uint256",
					"name": "_u2",
					"type": "uint256"
				}
			],
			"name": "pure_calc_3",
			"outputs": [
				{
					"internalType": "uint256",
					"name": "prod",
					"type": "uint256"
				},
				{
					"internalType": "uint256",
					"name": "sum",
					"type": "uint256"
				}
			],
			"stateMutability": "pure",
			"type": "function"
		},
		{
			"inputs": [],
			"name": "u1",
			"outputs": [
				{
					"internalType": "uint256",
					"name": "",
					"type": "uint256"
				}
			],
			"stateMutability": "view",
			"type": "function"
		},
		{
			"inputs": [],
			"name": "u2",
			"outputs": [
				{
					"internalType": "uint256",
					"name": "",
					"type": "uint256"
				}
			],
			"stateMutability": "view",
			"type": "function"
		},
		{
			"inputs": [],
			"name": "view_calc",
			"outputs": [
				{
					"internalType": "uint256",
					"name": "prod",
					"type": "uint256"
				},
				{
					"internalType": "uint256",
					"name": "sum",
					"type": "uint256"
				}
			],
			"stateMutability": "view",
			"type": "function"
		},
		{
			"inputs": [],
			"name": "view_calc_2",
			"outputs": [
				{
					"internalType": "uint256",
					"name": "prod",
					"type": "uint256"
				},
				{
					"internalType": "uint256",
					"name": "sum",
					"type": "uint256"
				}
			],
			"stateMutability": "nonpayable",
			"type": "function"
		}
	]
}