{
	"data": {
		"bytecode": {
			"linkReferences": {},
			"object": "6080604052600a600055600f60015534801561001a57600080fd5b506103078061002a6000396000f3fe608060405234801561001057600080fd5b50600436106100575760003560e01c80631aa356101461005c5780636472ff651461007a5780636d4ce63c1461009957806375da9f76146100b857806396f1b6be146100d6575b600080fd5b6100646100f5565b60405161007191906101b4565b60405180910390f35b6100826100fb565b6040516100909291906101cf565b60405180910390f35b6100a1610159565b6040516100af9291906101cf565b60405180910390f35b6100c061016a565b6040516100cd91906101b4565b60405180910390f35b6100de610170565b6040516100ec9291906101cf565b60405180910390f35b60005481565b60008060056000808282546101109190610227565b9250508190555060056001600082825461012a919061025b565b92505081905550600154600054610141919061028f565b91506001546000546101539190610227565b90509091565b600080600054600154915091509091565b60015481565b600080600154600054610183919061028f565b91506001546000546101959190610227565b90509091565b6000819050919050565b6101ae8161019b565b82525050565b60006020820190506101c960008301846101a5565b92915050565b60006040820190506101e460008301856101a5565b6101f160208301846101a5565b9392505050565b7f4e487b7100000000000000000000000000000000000000000000000000000000600052601160045260246000fd5b60006102328261019b565b915061023d8361019b565b9250828201905080821115610255576102546101f8565b5b92915050565b60006102668261019b565b91506102718361019b565b9250828203905081811115610289576102886101f8565b5b92915050565b600061029a8261019b565b91506102a58361019b565b92508282026102b38161019b565b915082820484148315176102ca576102c96101f8565b5b509291505056fea26469706673582212203d2a37fcda4cda154360cfa6d5f8009d642bab8cb1b5403cc7b8677981b8d0ca64736f6c63430008120033",
			"opcodes": "PUSH1 0x80 PUSH1 0x40 MSTORE PUSH1 0xA PUSH1 0x0 SSTORE PUSH1 0xF PUSH1 0x1 SSTORE CALLVALUE DUP1 ISZERO PUSH2 0x1A JUMPI PUSH1 0x0 DUP1 REVERT JUMPDEST POP PUSH2 0x307 DUP1 PUSH2 0x2A PUSH1 0x0 CODECOPY PUSH1 0x0 RETURN INVALID PUSH1 0x80 PUSH1 0x40 MSTORE CALLVALUE DUP1 ISZERO PUSH2 0x10 JUMPI PUSH1 0x0 DUP1 REVERT JUMPDEST POP PUSH1 0x4 CALLDATASIZE LT PUSH2 0x57 JUMPI PUSH1 0x0 CALLDATALOAD PUSH1 0xE0 SHR DUP1 PUSH4 0x1AA35610 EQ PUSH2 0x5C JUMPI DUP1 PUSH4 0x6472FF65 EQ PUSH2 0x7A JUMPI DUP1 PUSH4 0x6D4CE63C EQ PUSH2 0x99 JUMPI DUP1 PUSH4 0x75DA9F76 EQ PUSH2 0xB8 JUMPI DUP1 PUSH4 0x96F1B6BE EQ PUSH2 0xD6 JUMPI JUMPDEST PUSH1 0x0 DUP1 REVERT JUMPDEST PUSH2 0x64 PUSH2 0xF5 JUMP JUMPDEST PUSH1 0x40 MLOAD PUSH2 0x71 SWAP2 SWAP1 PUSH2 0x1B4 JUMP JUMPDEST PUSH1 0x40 MLOAD DUP1 SWAP2 SUB SWAP1 RETURN JUMPDEST PUSH2 0x82 PUSH2 0xFB JUMP JUMPDEST PUSH1 0x40 MLOAD PUSH2 0x90 SWAP3 SWAP2 SWAP1 PUSH2 0x1CF JUMP JUMPDEST PUSH1 0x40 MLOAD DUP1 SWAP2 SUB SWAP1 RETURN JUMPDEST PUSH2 0xA1 PUSH2 0x159 JUMP JUMPDEST PUSH1 0x40 MLOAD PUSH2 0xAF SWAP3 SWAP2 SWAP1 PUSH2 0x1CF JUMP JUMPDEST PUSH1 0x40 MLOAD DUP1 SWAP2 SUB SWAP1 RETURN JUMPDEST PUSH2 0xC0 PUSH2 0x16A JUMP JUMPDEST PUSH1 0x40 MLOAD PUSH2 0xCD SWAP2 SWAP1 PUSH2 0x1B4 JUMP JUMPDEST PUSH1 0x40 MLOAD DUP1 SWAP2 SUB SWAP1 RETURN JUMPDEST PUSH2 0xDE PUSH2 0x170 JUMP JUMPDEST PUSH1 0x40 MLOAD PUSH2 0xEC SWAP3 SWAP2 SWAP1 PUSH2 0x1CF JUMP JUMPDEST PUSH1 0x40 MLOAD DUP1 SWAP2 SUB SWAP1 RETURN JUMPDEST PUSH1 0x0 SLOAD DUP2 JUMP JUMPDEST PUSH1 0x0 DUP1 PUSH1 0x5 PUSH1 0x0 DUP1 DUP3 DUP3 SLOAD PUSH2 0x110 SWAP2 SWAP1 PUSH2 0x227 JUMP JUMPDEST SWAP3 POP POP DUP2 SWAP1 SSTORE POP PUSH1 0x5 PUSH1 0x1 PUSH1 0x0 DUP3 DUP3 SLOAD PUSH2 0x12A SWAP2 SWAP1 PUSH2 0x25B JUMP JUMPDEST SWAP3 POP POP DUP2 SWAP1 SSTORE POP PUSH1 0x1 SLOAD PUSH1 0x0 SLOAD PUSH2 0x141 SWAP2 SWAP1 PUSH2 0x28F JUMP JUMPDEST SWAP2 POP PUSH1 0x1 SLOAD PUSH1 0x0 SLOAD PUSH2 0x153 SWAP2 SWAP1 PUSH2 0x227 JUMP JUMPDEST SWAP1 POP SWAP1 SWAP2 JUMP JUMPDEST PUSH1 0x0 DUP1 PUSH1 0x0 SLOAD PUSH1 0x1 SLOAD SWAP2 POP SWAP2 POP SWAP1 SWAP2 JUMP JUMPDEST PUSH1 0x1 SLOAD DUP2 JUMP JUMPDEST PUSH1 0x0 DUP1 PUSH1 0x1 SLOAD PUSH1 0x0 SLOAD PUSH2 0x183 SWAP2 SWAP1 PUSH2 0x28F JUMP JUMPDEST SWAP2 POP PUSH1 0x1 SLOAD PUSH1 0x0 SLOAD PUSH2 0x195 SWAP2 SWAP1 PUSH2 0x227 JUMP JUMPDEST SWAP1 POP SWAP1 SWAP2 JUMP JUMPDEST PUSH1 0x0 DUP2 SWAP1 POP SWAP2 SWAP1 POP JUMP JUMPDEST PUSH2 0x1AE DUP2 PUSH2 0x19B JUMP JUMPDEST DUP3 MSTORE POP POP JUMP JUMPDEST PUSH1 0x0 PUSH1 0x20 DUP3 ADD SWAP1 POP PUSH2 0x1C9 PUSH1 0x0 DUP4 ADD DUP5 PUSH2 0x1A5 JUMP JUMPDEST SWAP3 SWAP2 POP POP JUMP JUMPDEST PUSH1 0x0 PUSH1 0x40 DUP3 ADD SWAP1 POP PUSH2 0x1E4 PUSH1 0x0 DUP4 ADD DUP6 PUSH2 0x1A5 JUMP JUMPDEST PUSH2 0x1F1 PUSH1 0x20 DUP4 ADD DUP5 PUSH2 0x1A5 JUMP JUMPDEST SWAP4 SWAP3 POP POP POP JUMP JUMPDEST PUSH32 0x4E487B7100000000000000000000000000000000000000000000000000000000 PUSH1 0x0 MSTORE PUSH1 0x11 PUSH1 0x4 MSTORE PUSH1 0x24 PUSH1 0x0 REVERT JUMPDEST PUSH1 0x0 PUSH2 0x232 DUP3 PUSH2 0x19B JUMP JUMPDEST SWAP2 POP PUSH2 0x23D DUP4 PUSH2 0x19B JUMP JUMPDEST SWAP3 POP DUP3 DUP3 ADD SWAP1 POP DUP1 DUP3 GT ISZERO PUSH2 0x255 JUMPI PUSH2 0x254 PUSH2 0x1F8 JUMP JUMPDEST JUMPDEST SWAP3 SWAP2 POP POP JUMP JUMPDEST PUSH1 0x0 PUSH2 0x266 DUP3 PUSH2 0x19B JUMP JUMPDEST SWAP2 POP PUSH2 0x271 DUP4 PUSH2 0x19B JUMP JUMPDEST SWAP3 POP DUP3 DUP3 SUB SWAP1 POP DUP2 DUP2 GT ISZERO PUSH2 0x289 JUMPI PUSH2 0x288 PUSH2 0x1F8 JUMP JUMPDEST JUMPDEST SWAP3 SWAP2 POP POP JUMP JUMPDEST PUSH1 0x0 PUSH2 0x29A DUP3 PUSH2 0x19B JUMP JUMPDEST SWAP2 POP PUSH2 0x2A5 DUP4 PUSH2 0x19B JUMP JUMPDEST SWAP3 POP DUP3 DUP3 MUL PUSH2 0x2B3 DUP2 PUSH2 0x19B JUMP JUMPDEST SWAP2 POP DUP3 DUP3 DIV DUP5 EQ DUP4 ISZERO OR PUSH2 0x2CA JUMPI PUSH2 0x2C9 PUSH2 0x1F8 JUMP JUMPDEST JUMPDEST POP SWAP3 SWAP2 POP POP JUMP INVALID LOG2 PUSH5 0x6970667358 0x22 SLT KECCAK256 RETURNDATASIZE 0x2A CALLDATACOPY 0xFC 0xDA 0x4C 0xDA ISZERO NUMBER PUSH1 0xCF 0xA6 0xD5 0xF8 STOP SWAP14 PUSH5 0x2BAB8CB1B5 BLOCKHASH EXTCODECOPY 0xC7 0xB8 PUSH8 0x7981B8D0CA64736F PUSH13 0x63430008120033000000000000 "
		},
		"gasEstimates": {
			"creation": {
				"codeDepositCost": "155000",
				"executionCost": "44414",
				"totalCost": "199414"
			},
			"external": {
				"calc()": "infinite",
				"calc_2()": "infinite",
				"get()": "infinite",
				"u1()": "2407",
				"u2()": "2473"
			}
		},
		"methodIdentifiers": {
			"calc()": "96f1b6be",
			"calc_2()": "6472ff65",
			"get()": "6d4ce63c",
			"u1()": "1aa35610",
			"u2()": "75da9f76"
		}
	},
	"abi": [
		{
			"inputs": [],
			"name": "calc",
			"outputs": [
				{
					"internalType": "uint256",
					"name": "prod",
					"type": "uint256"
				},
				{
					"internalType": "uint256",
					"name": "sum",
					"type": "uint256"
				}
			],
			"stateMutability": "view",
			"type": "function"
		},
		{
			"inputs": [],
			"name": "calc_2",
			"outputs": [
				{
					"internalType": "uint256",
					"name": "prod",
					"type": "uint256"
				},
				{
					"internalType": "uint256",
					"name": "sum",
					"type": "uint256"
				}
			],
			"stateMutability": "nonpayable",
			"type": "function"
		},
		{
			"inputs": [],
			"name": "get",
			"outputs": [
				{
					"internalType": "uint256",
					"name": "",
					"type": "uint256"
				},
				{
					"internalType": "uint256",
					"name": "",
					"type": "uint256"
				}
			],
			"stateMutability": "view",
			"type": "function"
		},
		{
			"inputs": [],
			"name": "u1",
			"outputs": [
				{
					"internalType": "uint256",
					"name": "",
					"type": "uint256"
				}
			],
			"stateMutability": "view",
			"type": "function"
		},
		{
			"inputs": [],
			"name": "u2",
			"outputs": [
				{
					"internalType": "uint256",
					"name": "",
					"type": "uint256"
				}
			],
			"stateMutability": "view",
			"type": "function"
		}
	]
}